:020000040001F9
:10C0000060390020D5C40100EFC40100F1C4010073
:10C010000000000000000000000000000000000020
:10C02000000000000000000000000000F3C4010058
:10C030000000000000000000F5C40100F7C401008A
:10C04000F9C40100F9C40100F9C40100F9C40100F8
:10C05000F9C40100000000002D270200F9C401000E
:10C06000F9C40100F9C40100F9C40100F9C40100D8
:10C07000F9C40100F9C40100F9C40100F9C40100C8
:10C08000F9C40100EF320200F9C40100F9C4010053
:10C0900011330200F9C4010087370200F9C401001E
:10C0A000F9C40100F9C40100000000000000000014
:10C0B0000000000000000000000000000000000080
:10C0C0000000000000000000000000000000000070
:10C0D0000000000000000000000000000000000060
:10C0E0000000000000000000000000000000000050
:10C440000348854607F086FF0048004779DD010074
:10C4500060390020401E00BF00BF00BF00BF00BF0A
:10C4600000BF00BF00BF00BF00BF00BF00BFF1D1D1
:10C4700070470000401E00BF00BF00BF00BF00BFEC
:10C4800000BF00BF00BF00BF00BF00BF00BFF1D1B1
:10C4900070470000401E00BF00BF00BF00BF00BFCC
:10C4A00000BF00BF00BF00BF00BF00BF00BFF1D191
:10C4B00070470000401E00BF00BF00BF00BF00BFAC
:10C4C00000BF00BF00BF00BF00BF00BF00BFF1D171
:10C4D000704700000321094802680A4302600848C7
:10C4E00002680A4302600748804707480047FEE7A2
:10C4F000FEE7FEE7FEE7FEE7FEE70000240500405A
:10C5000054050040B1C5010041C40100324833491F
:10C51000086070473248008CC0B2012812D1304800
:10C52000808C0007000F00280CD12D48806AF02174
:10C530000840402806D12A48C06A0840002801D196
:10C54000012070470020FCE72548008CC0B201287C
:10C550002CD12348808C0007000F002826D12048CA
:10C56000806AF0210840002806D11D48C06A0840B2
:10C57000002801D1012070471948806AF021084045
:10C58000102806D11648C06A0840002801D10120B1
:10C59000F1E71348806AF0210840302806D110489E
:10C5A000C06A0840002801D10120E4E70020E2E74A
:10C5B00010B5FFF7C9FF002805D00A480A494860AE
:10C5C000C8130A498861FFF7A5FF002802D001209F
:10C5D0000749886010BD00000024F40000280020F6
:10C5E000C00F00F0DFFF07C000050040006C0040F6
:10C5F0000006004070B505460C4616462B462246FE
:10C600003146EBA007F004FF0F2001F00DFC00E025
:10C6100000BF002CFCD170BD70B504460D462A4603
:10C620002146ED48FFF7E6FF70BD70B596B001A852
:10C6300004F065FB044600BF2646002E06D000BF6E
:10C64000E6A2E9493046FFF7D5FF00BF00BF0198D9
:10C65000002804D00120E549087016B070BD0821FB
:10C6600010A80173002101750AA8129002A8149065
:10C6700012A9DF4805F05AF8044600BF2646002EEE
:10C6800007D000BFD5A2D84910313046FFF7B2FF1E
:10C6900000BF00BF10A8007B002803D110A8007DB8
:10C6A000002803D0D3480078012813D0D24800785E
:10C6B00040084000D04908700846007802218843AD
:10C6C000CD490870A0200881502048810020486092
:10C6D000888117E0C848007840084000C6490870C3
:10C6E0000846007802218843801CC3490870A020B6
:10C6F00008815020488112A848601E2088810120AE
:10C70000BC490870BC4886DF04462146BBA007F040
:10C710007FFE00BF2646002E07D000BFAFA27B21C0
:10C72000C9003046FFF766FF00BF00BF00231A466E
:10C730000821BCA003F06DFA0546002D02D1BCA073
:10C7400007F066FE0120C1490870082001F06CFB6B
:10C7500000BF82E7F7B584B0154605980078152824
:10C760007DD008DC11280DD0122855D0132877D0A1
:10C77000142876D1A2E0212874D0222873D023284F
:10C78000F7D1E2E0B2A007F043FE05984068871CAD
:10C79000B87979793A79009201910290FB78BA7868
:10C7A0007978B34807F034FE092001F03DFB0023FF
:10C7B0001A460921AFA003F02CFA0646002E02D13A
:10C7C0009BA007F025FE0422AD48049907F04CFD1C
:10C7D000059840680188AB4803F07BF8044600BF29
:10C7E0000394039C002C07D000BF7CA2FF2147319B
:10C7F0000398FFF7FFFE00BF00BFA3480078401C6E
:10C80000A149087008460078012801DAFFF70DFFFA
:10C810009EA007F0FDFDADE0A4A007F0F9FD6221A8
:10C82000984807F048FD03F0FFF80646002E02D1B5
:10C83000A7A007F0EDFD00231A460C21ABA003F0E2
:10C84000E8F90646002E02D1ACA007F0E1FD092070
:10C8500001F0EFFA8C48007801280AD104E045E0A5
:10C8600010E086E049E05CE0FFF7DFFEABA007F0F8
:10C87000CFFD85480078401E83490870B4A007F0BA
:10C88000C7FD77E004984178BAA007F0C1FD7C4865
:10C8900004F013FE044600BF2746002F07D000BF58
:10C8A0004EA2FF2173313846FFF7A4FE00BF00BF40
:10C8B00004984178BAA007F0ABFD5BE0C3A007F095
:10C8C000A7FDCD4801F0FEFB044600BF2746002F20
:10C8D00007D000BF41A2FF217C313846FFF78AFE16
:10C8E00000BF00BFC5A007F093FD43E0CEA007F056
:10C8F0008FFDD6A007F08CFD3CE0DDA007F088FDA1
:10C9000000BF2F46002F07D000BF34A2FF2188317F
:10C910003846FFF76FFE00BF00BFDEA007F078FDCE
:10C9200028E0E7A007F074FD00BF2F46002F07D0D6
:10C9300000BF2AA2FF218E313846FFF75BFE00BF01
:10C9400000BFEAA007F064FD14E0F3A007F060FD6B
:10C9500000BF2F46002F07D000BF20A2FF21943137
:10C960003846FFF747FE00BF00BFF6A007F050FDB6
:10C9700000E000BF00BF002007B0F0BDF0B50546E5
:10C980000B4600211C680EE0665C481C275CAF4229
:10C9900006D1881C20181060701E90800020F0BD09
:10C9A000701C091800BF98888842EDD80520F6E76A
:10C9B0005B4150504C5D3A204153534552543A200C
:10C9C00025732C2025642C206572726F72203078BC
:10C9D000253038780D0A0000EFBEADDE2E2E5C6DDE
:10C9E00061696E2E63000000AB0300003D2800204B
:10C9F000362800203C280020802A00205B4150502F
:10CA00004C5D3A205363616E2073746172742065CB
:10CA100072726F7220636F64653A203078257820D7
:10CA20000D0A00005363616E6E696E6700000000BE
:10CA30005B4150504C5D3A204C434420577269741E
:10CA400065206661696C6564210D0A003528002047
:10CA50005B4150504C5D3A203E3E20444D5F455670
:10CA6000545F434F4E4E454354494F4E0D0A00000C
:10CA70005C490200436F6E6E65637465640000007C
:10CA800037280020042A00203B2800205B4150501A
:10CA90004C5D3A203C3C20444D5F4556545F434F2B
:10CAA0004E4E454354494F4E0D0A00005B415050D5
:10CAB0004C5D3A203E3E20444D5F4556545F44490C
:10CAC00053434F4E4E454354494F4E0D0A0000000C
:10CAD0005B4150504C5D3A204C434420436C6561AF
:10CAE00072206661696C6564210D0A004469736394
:10CAF0006F6E6E6563746564000000005B415050AA
:10CB00004C5D3A5B345D3A204C4344205772697463
:10CB100065206661696C6564210D0A005B415050B7
:10CB20004C5D3A203C3C20444D5F4556545F44499F
:10CB300053434F4E4E454354494F4E3A2073636121
:10CB40006E20737461727465643F0D0A000000000A
:10CB50005B4150504C5D3A203C3C20444D5F455673
:10CB6000545F444953434F4E4E454354494F4E0D35
:10CB70000A0000005B4150504C5D3A5B3078253034
:10CB800032585D203E3E20444D5F4556545F53452C
:10CB90004355524954595F53455455500D0A0000AE
:10CBA0005B4150504C5D3A5B3078253032585D2007
:10CBB0003C3C20444D5F4556545F534543555249D4
:10CBC00054595F53455455500D0A00005B41505075
:10CBD0004C5D3A203E3E20444D5F4556545F5345E0
:10CBE0004355524954595F53455455505F434F4D37
:10CBF000504C4554450D0A00682A00205B415050B6
:10CC00004C5D3A203C3C20444D5F4556545F5345B3
:10CC10004355524954595F53455455505F434F4D06
:10CC2000504C4554450D0A005B4150504C5D3A2034
:10CC30003E3E20444D5F4C494E4B5F534543555259
:10CC400045445F494E440D0A000000005B415050CE
:10CC50004C5D3A203C3C20444D5F4C494E4B5F5369
:10CC60004543555245445F494E440D0A00000000BB
:10CC70005B4150504C5D3A203E3E20444D5F45564E
:10CC8000545F4C494E4B5F534543555245440D0A42
:10CC9000000000005B4150504C5D3A203C3C204479
:10CCA0004D5F4556545F4445564943455F434F4E9B
:10CCB000544558545F4C4F414445440D0A00000010
:10CCC0005B4150504C5D3A203E3E20444D5F4556FE
:10CCD000545F4445564943455F434F4E544558546D
:10CCE0005F53544F5245440D0A0000005B415050C1
:10CCF0004C5D3A203C3C20444D5F4556545F4445D2
:10CD0000564943455F434F4E544558545F53544F23
:10CD10005245440D0A0000005B4150504C5D3A20E2
:10CD20003E3E20444D5F4556545F44455649434579
:10CD30005F434F4E544558545F44454C4554454419
:10CD40000D0A00005B4150504C5D3A203C3C2044B1
:10CD50004D5F4556545F4445564943455F434F4EEA
:10CD6000544558545F44454C455445440D0A000011
:10CD700070B5F74873DF044600BF2546002D07D085
:10CD800000BFF44AFF21CA312846FFF733FC00BF39
:10CD900000BF0020F04908700E2001F045F870BD7A
:10CDA000F0B585B00646351D308819286ED006DCF2
:10CDB00010280BD011286AD0132869D179E01B28DC
:10CDC00011D01D2874D05228F7D1A7E0707B01281C
:10CDD00008D10D2001F028F80E2001F02AF8B088C3
:10CDE000DE490880C2E028460B300390A87AC008CC
:10CDF0006946088201AA03A90220FFF7BFFD044685
:10CE0000002C05D001AA03A90320FFF7B7FD0446B3
:10CE1000002C4CD1002741E000BF79000198401858
:10CE20004078009000980002009079000198405CE2
:10CE300000990843009000BFC9A0009907F0E8FAE4
:10CE4000CB490098884228D10D2171563120C0432A
:10CE5000814221DB87DF0446002C03D02146C5A098
:10CE600007F0D6FA0020CD490870082000F0E1FF55
:10CE7000CB48007802218843C9490870C94AA81CD8
:10CE800088DF0446002C07D0214602E019E059E073
:10CE90006BE0C5A007F0BCFA07E07F1C6946088973
:10CEA000C10F09184910B942B6D800BF00BF5DE0F4
:10CEB00023E00023C84A1946A84800887FDF0446BB
:10CEC00000BF2888A5490988884215D0A87802287B
:10CED0000CD1C2A007F09CFAC748007801280BD1FA
:10CEE0000220C5490870FFF7A0FB05E0A8780328D9
:10CEF00002D1C2A007F08CFA38E02888A91C75DF9F
:10CF0000044600BF2746002F06D000BF914AC549FE
:10CF10003846FFF76FFB00BF00BF27E00022114635
:10CF20008E480088A9DF044600BF2746002F07D09F
:10CF300000BF884A932189003846FFF75BFB00BF9A
:10CF400000BF13E028888549098888420CD1002059
:10CF5000C043824908800D2000F06BFFB2A007F0AB
:10CF600057FA01207C49087000E000BF00BF05B0FF
:10CF7000F0BD10B50446022C02D0032C0BD100E00A
:10CF800000BFB6480078002804D00020B3490870DC
:10CF9000FFF74BFB00E000BF00BF10BD10B504461B
:10CFA00021466E4805F031F82246AD496B4802F043
:10CFB000D6FC2146AB4801F030F82146AA4801F0E2
:10CFC000F6F92246A949654801F09BFE2246A84988
:10CFD000624801F0D8FA2146604807F040F8204640
:10CFE000FFF7DEFE10BD10B50446204603F0E1FA5F
:10CFF0002046FFF7BEFF10BD70B500BF00234822DA
:10D000009C49082006F077FB054600BF2E46002EFF
:10D0100007D000BF4F4A83495A313046FFF7EAFA3A
:10D0200000BF00BF00BF944806F09BFB044600BF52
:10D030002546002D07D000BF464AAB21890028466F
:10D04000FFF7D8FA00BF00BF8C4806F093FB0446F8
:10D0500000BF2546002D07D000BF3E4A2B21090105
:10D060002846FFF7C7FA00BF00BF70BD7FB503F0C9
:10D0700043FB044600BF2546002D07D000BF354ABC
:10D080000B2189012846FFF7B5FA00BF00BF012038
:10D090007B490969C1400140002900D100E000201E
:10D0A0000090684604F067F9044600BF2546002D4D
:10D0B00007D000BF274A5B4980312846FFF79AFA1C
:10D0C00000BF00BF052102A8013007F0F4F86D4849
:10D0D0000190022168460172407A41084900684681
:10D0E0004172407A02218843014668464172407A83
:10D0F0001C21884301460C3168464172407A202148
:10D10000884369464872072101A881711021C171C5
:10D11000007A40084000401C01A9087201A8007A6A
:10D1200002218843801C01A90872574804F094F931
:10D13000044600BF2546002D07D000BF054A3949E7
:10D1400096312846FFF756FA00BF00BF7FBD0000AA
:10D1500058290020DCC901003428002004280020C0
:10D16000095B4150504C5D3A2025780D0A000000C3
:10D170000D1800005B4150504C5D3A205363616EC6
:10D180002073746F70206661696C65642C20726511
:10D1900061736F6E2025640D0A00000035280020A1
:10D1A000802A0020144902005B4150504C5D3A2017
:10D1B000436F6E6E656374696F6E2052657175653D
:10D1C0007374204661696C65642C20726561736FAD
:10D1D0006E2025640D0A0000062800205B41505097
:10D1E0004C5D3A205363616E2074696D6564206FF5
:10D1F00075742E0D0A0000003C2800205B41505041
:10D200004C5D3A20436F6E6E656374696F6E205299
:10D210006571756573742074696D6564206F7574CC
:10D220002E0D0A00470200005B4150504C5D3A2031
:10D23000424C455F4741505F4556545F4449534314
:10D240004F4E4E45435445443A20646973636F6EB4
:10D250006E65637465640D0A000000003D280020BF
:10D26000042A0020682A0020742A00208429002033
:10D270006C290020902A00209DCF0100E7CF0100FB
:10D280000005005055C701003628002010B50820C1
:10D2900000F0C1FD092000F0BEFD0F2000F0BBFD35
:10D2A0000E2000F0B8FD0D2000F0B5FD10BD30B52A
:10D2B00001200021032213048C00234305242407AA
:10D2C00007252D0264198500635100BF30BD70B57C
:10D2D00002F062FC0446002C1FD002F0E6FB04467C
:10D2E00000BF2546002D06D100BFFE4AFE490020A2
:10D2F000FFF780F900BF00BF082002F0C5FB04461D
:10D3000000BF2546002D07D100BFF64AF649C91CCB
:10D310000020FFF76FF900BF00BF70BD70B540DFA0
:10D32000044600BF2546002D07D000BFED4AC521A9
:10D3300089002846FFF75EF900BF00BF70BDF3B556
:10D3400085B00E463078012802D0022859D136E047
:10D35000E64804F0B2F8054600BF2F46002F07D07C
:10D3600000BFE04AC92189003846FFF743F900BFF2
:10D3700000BF059800F0A6FE054600BF2F46002F0F
:10D3800007D000BFD74A6521C9003846FFF732F9F8
:10D3900000BF00BF00231A460A21D5A002F039FCC5
:10D3A000044600BF2746002F07D100BFCD4ACE4913
:10D3B00025310020FFF71EF900BF00BF22E0718871
:10D3C000CEA007F025F87288D6A101A807F030F8A2
:10D3D00001A806F07BFFC7B200231A46394601A810
:10D3E00002F017FC044600BF2746002F07D100BFFC
:10D3F000BC4ABD4931310020FFF7FCF800BF00BF37
:10D4000000E000BF00BF07B0F0BDF3B585B00D462A
:10D410002878002804D001282ED0022871D14DE0B0
:10D42000C4A006F0F5FFCDA006F0F2FF059800F0CD
:10D43000FEFF064600BF3746002F07D000BFA94AAF
:10D44000352109013846FFF7D5F800BF00BFCCA051
:10D4500006F0DEFF059800F0DEFF064600BF374607
:10D46000002F07D000BF9F4A9F494F313846FFF732
:10D47000C1F800BF00BF45E06978CDA006F0C8FF45
:10D480006A78D5A101A806F0D3FF01A806F01EFF17
:10D49000C7B200234022394601A802F0BAFB044675
:10D4A00000BF2746002F07D100BF8E4A8E495C314E
:10D4B0000020FFF79FF800BF00BF23E06978CAA0F3
:10D4C00006F0A6FF6A78C4A101A806F0B1FF01A882
:10D4D00006F0FCFEC7B200234022394601A802F044
:10D4E00098FB044600BF2746002F07D100BF7D4AA6
:10D4F0007D4969310020FFF77DF800BF00BF01E0E2
:10D50000FFE700BF00BF07B0F0BD38B5C0480090CE
:10D510006946C04800F05FFD044600BF2546002D67
:10D5200007D000BF6F4A70497C312846FFF762F888
:10D5300000BF00BF38BD38B5B74800906946B7484E
:10D5400000F0FCFE044600BF2546002D07D000BFBA
:10D55000644A392109012846FFF74CF800BF00BF93
:10D5600038BD70B502F085F9044600BF2546002D90
:10D5700007D000BF5B4A5C4994312846FFF73AF870
:10D5800000BF00BF70BD704710B50446FFF7FBFF3A
:10D5900010BD10B50446A2480068401CA0490860B0
:10D5A00003219F48006806F035FE002901D00120C4
:10D5B00000E000209B49087010BD70B505469948F1
:10D5C0000078002809D09849984806F0FEFD84B2FA
:10D5D0002146974801F04CFD00BF70BD10B50446D0
:10D5E0009448007801214840924908700846017823
:10D5F0008F4801F075FD10BDF8B500BF00208E4BBF
:10D6000005221146009005F087FE054600BF2E4614
:10D61000002E06D000BF334A88493046FEF7EAFFA5
:10D6200000BF00BF00BF864A0121864805F0F1FE19
:10D63000044600BF2546002D07D000BF294A7F4978
:10D64000891D2846FEF7D6FF00BF00BF7E4A012194
:10D650007E4805F0DEFE044600BF2546002D07D0BB
:10D6600000BF204A75490B312846FEF7C3FF00BFB3
:10D6700000BF774A0121774805F0CBFE044600BF82
:10D680002546002D07D000BF164A6C4910312846A8
:10D69000FEF7B0FF00BF00BF6F4A01216F4805F0E1
:10D6A000B8FE044600BF2546002D07D000BF0D4A36
:10D6B000624915312846FEF79DFF00BF00BFF8BD47
:10D6C0003EB500BF6846007801090901491C009178
:10D6D00068460078F02188431030009000BF042293
:10D6E0005FA1C1E0DCC9010006030000372800206B
:10D6F0004865617274205261746500005B4150504E
:10D700004C5D3A204852204D6561737572656D65B8
:10D710006E74207265636569766564202564200DEA
:10D720000A0000004865617274205261746520250A
:10D73000640000005B4150504C5D3A2042617474BB
:10D7400065727920536572766963652064697363D5
:10D750006F76657265642E200D0A00005B415050A3
:10D760004C5D3A2052656164696E67206261747431
:10D77000657279206C6576656C2E200D0A000000BC
:10D780005B4150504C5D3A20456E61626C696E673A
:10D790002042617474657279204C6576656C204E08
:10D7A0006F74696669636174696F6E2E200D0A007B
:10D7B0005B4150504C5D3A2042617474657279202F
:10D7C0004C6576656C2072656365697665642025B5
:10D7D000642025250D0A0000426174746572792069
:10D7E00025642025250000005B4150504C5D3A2007
:10D7F00042617474657279204C6576656C2052655F
:10D8000061642061732025642025250D0A00000035
:10D810003FD30100682A00200BD40100742A0020A5
:10D82000402800200B280020F42900201C2800207C
:10D830008429002044280020D82A00206404000005
:10D8400089D501002428002093D501002828002034
:10D85000BBD501002C280020DDD501003028002098
:10D86000533133300000000068467CDF044600BFBF
:10D870002546002D06D000BFFD4AFE492846FEF78A
:10D88000B9FE00BF00BFFC4878DF044600BF254654
:10D89000002D07D000BFF64AF649C91C2846FEF7FE
:10D8A000A9FE00BF00BF002001900290FF2191312E
:10D8B000684681804900C18000210181FF219131AA
:10D8C000418101A87ADF044600BF2546002D07D01C
:10D8D00000BFE74AE7490D312846FEF78BFE00BF3F
:10D8E00000BF3EBD30B593B006210491E34A07CA9C
:10D8F00001AB07C3382105A806F0DDFC022168460C
:10D90000017501218175018304A907910321818596
:10D9100001A90C91002105A806F032FA044600BFC7
:10D920002546002D07D000BFD14AD2492D312846C7
:10D93000FEF760FE00BF00BF1421D14806F0BBFC1B
:10D940000020CF4908704860087228200882002013
:10D95000488213B030BD30B59BB003210091142133
:10D9600016A806F0A8FC00201690012110A8017747
:10D970006846189000BF18A8007901090901491CE0
:10D9800018A801710079F0218843103018A9087196
:10D9900000BF00BF16A8407B0009000116A948730C
:10D9A00016A8407BF021884316A9487300BF00BF2A
:10D9B00016A8807B00090001887316A8807BF021DF
:10D9C000884316A9887300BF00BF18A8C079010951
:10D9D0000901491C18A8C171C079F0218843103091
:10D9E00018A9C87100BF00BF16A8007C000900017B
:10D9F00016A9087416A8007CF021884316A908749B
:10DA000000BFA04801F0CFFA044600BF2546002D14
:10DA100007D000BF964A974958312846FEF7EAFDDD
:10DA200000BF00BF142111A806F045FC00BF10A8DC
:10DA3000407C01090901491C10A84174407CF02177
:10DA40008843103010A9487400BF00BF11A8807B24
:10DA500000090001401C11A9887311A8807BF021E6
:10DA60008843103011A9887300BF00BF11A8C07B84
:10DA700000090001401CC87311A8C07BF021884335
:10DA8000103011A9C87300BF00BF10A8007D0109A4
:10DA90000901491C10A80175007DF0218843103050
:10DAA00010A9087500BF00201190012110A8017273
:10DAB00000201390642110A8017411A9724800F08D
:10DAC00073FE044600BF2546002D07D000BF684AFC
:10DAD00068496B312846FEF78DFD00BF00BF40212D
:10DAE00001A806F0E8FB69A101A806F03BFB00BF16
:10DAF00010A8007801090901491C10A801700078DC
:10DB0000F0218843103010A9087000BF00BF10A892
:10DB1000407800090001487010A84078F02188433F
:10DB200010A9487000BF01A800F0A8FF044600BF7C
:10DB30002546002D07D000BF4D4A4E497631284674
:10DB4000FEF758FD00BF00BF1BB030BD10B551201F
:10DB50005349086064204860012088600873514878
:10DB600006F026FB8C2050490860FF202D304860CD
:10DB70000A208860002008734C4806F019FB6420D6
:10DB80004B490860FF20F530486001208860002084
:10DB90000873484806F00CFB10BD10B5044600BFE2
:10DBA000334A344999312046FEF724FD00BF10BDA9
:10DBB00070B505462878002811D13B213E480088E1
:10DBC00076DF044600BF2646002E07D000BF284A55
:10DBD0002849AD313046FEF70DFD00BF00BF70BDD6
:10DBE00030B587B01C21684606F065FB0020009028
:10DBF0000520C0030190029003216846017321486B
:10DC000081896846C181002101742C4805902C4807
:10DC10000690684606F04FF9044600BF2546002DE1
:10DC200007D000BF124A1349C5312846FEF7E2FC6F
:10DC300000BF00BF07B030BD224800784008400058
:10DC4000401C2049087008460078022188431D497D
:10DC50000870084600781C2188430C301949087068
:10DC600008460078202188431649087007202BE0D9
:10DC7000DCC901008C040000410300001C490200C3
:10DC800058290020842900206C2900204E6F7264DE
:10DC9000696353656D69636F6E647563746F720059
:10DCA000D42900200C280020E4290020142800207A
:10DCB000F42900201C28002004280020B1DB0100EA
:10DCC0009BDB0100062800204870102088707047F8
:10DCD00070B50022012109045848006805F0E0FBF6
:10DCE000044600BF2546002D06D000BF544A5549C2
:10DCF0002846FEF77FFC00BF00BF00220121C903B8
:10DD00005148006805F0CCFB044600BF2546002DB5
:10DD100007D000BF4A4A4B49C91C2846FEF76AFC97
:10DD200000BF00BF002249494948006805F0B8FB20
:10DD3000044600BF2546002D07D000BF404A414998
:10DD4000891D2846FEF756FC00BF00BF00220521B2
:10DD5000C9034048006805F0A3FB044600BF254600
:10DD6000002D07D000BF364A364909312846FEF754
:10DD700041FC00BF00BF70BD01F0C4F9FFF786FA97
:10DD8000FFF795FAFFF7A3FAFFF736F9FFF76EF9F9
:10DD9000FFF7E7FBFFF7B9FBFFF7CDFBFFF72CFC25
:10DDA000FFF78EFCFFF79EFDFFF7D5FDFFF7CEFED8
:10DDB000FFF716FFFFF740FFFFF78AFFFEF7D8FFD8
:10DDC000FEF733FC00202449087000BFFFF7A6FAD5
:10DDD000214800780128F9D120480078012811D184
:10DDE00087DF044600BF2546002D07D000BF144A38
:10DDF000144936312846FEF7FDFB00BF00BF08205E
:10DE000000F017F8FEF7B4FF144800780128DDD1C0
:10DE1000FEF70BFCDAE703210522120707231B029A
:10DE2000D2188300D1507047012181400C4A916083
:10DE30007047012181400A4AD160704724280020A0
:10DE4000DCC90100690500002828002066260000C2
:10DE50002C280020302800203428002035280020DD
:10DE60000005005010B59D4800689D49096888422A
:10DE70003DD09A480068142148439A494018807858
:10DE8000002810D1954A126814235A430B46D21821
:10DE90009188924A126814235A43924B985A00224E
:10DEA00095DF04460FE08D4A126814235A438D4BC8
:10DEB000D21811460831894A126814235A43894BF3
:10DEC000985A97DF0446002C0DD187A006F0A0FADF
:10DED00082480068401C8149086008460078400775
:10DEE000400F086002E08C4806F092FA00BF10BDB7
:10DEF00070B504460D46FFF7B5FF70BDF8B5054691
:10DF00000C46A089A988884221D1002602206946B2
:10DF100008703146761C20461230405C30400028A4
:10DF200007D13146761C20461230405C6946488055
:10DF300008E0214612318819017842781202114313
:10DF40006846418069462846AA68904700BFF8BDE8
:10DF500038B50446207800283CD1A0886F49884213
:10DF600038D1A079012835D160886D4909680880C9
:10DF700000251EE00C202946414320460A30405A25
:10DF80006849884214D10C202946414320460A3072
:10DF9000081840896249096848800C202946414395
:10DFA00020460A30081800895D490968888003E026
:10DFB0006D1C207AA842DDD800BF5BA006F028FACD
:10DFC0000120694608705648006882685448006815
:10DFD000904700BF38BD38B504460D46002C01D02F
:10DFE000002D01D10E2038BD0121684681704B49BA
:10DFF00001804B4804604A4928680968886000200D
:10E00000C04347490968088000204549096848809D
:10E010005249684601F043FCE5E770B505460C46F9
:10E02000002D01D0002C00D170BD2088102804D014
:10E0300037280DD0382810D105E0607B022801D1A7
:10E04000A08828800AE021462846FFF757FF05E010
:10E0500021462846FFF74CFF00E000BF00BF00BF8D
:10E06000E2E7F7B50646154632463D48019906F007
:10E07000CFF92F461A48006819490968491C184AFF
:10E08000116014214843174944181046007840078E
:10E09000400F11460860019961810221E181211D33
:10E0A00021610021A181012121722771FF2000023D
:10E0B00038400112617126800120A070FFF7D2FE66
:10E0C0000020FEBD10B50446002C01D10E2010BD6D
:10E0D000618820880122FFF7C4FFF8E7502800205C
:10E0E0004C280020682D00205B4852535F435D3A66
:10E0F00020534420526561642F5772697465204132
:10E1000050492072657475726E7320537563636530
:10E1100073732E2E0D0A0000A04902000D18000096
:10E1200048280020372A00005B4852535F435D3A7D
:10E13000204865617274205261746520536572765F
:10E1400069636520646973636F76657265642061D5
:10E150007420706565722E0D0A00000051DF010009
:10E16000FC49020010B5C0480068C04909688842EF
:10E170003DD0BD48006814214843BD49401880780F
:10E18000002810D1B84A126814235A430B46D218FB
:10E190009188B54A126814235A43B54B985A002205
:10E1A00095DF04460FE0B04A126814235A43B04B7F
:10E1B000D21811460831AC4A126814235A43AC4BAA
:10E1C000985A97DF0446002C0DD1AAA006F020F93A
:10E1D000A5480068401CA44908600846007840072C
:10E1E000400F086002E0AF4806F012F900BF10BD12
:10E1F00070B504460D46FFF7B5FF70BDF8B504468F
:10E200000D462E460C363088A188884209D102215D
:10E2100068460170B179417069462046A26890470E
:10E2200000BFFFF79FFFF8BD38B504460D46A8892B
:10E23000A188884209D1012168460170A97C4170FA
:10E2400069462046A268904700BF38BD38B50446ED
:10E25000207800283DD1A0889349884239D1A079FF
:10E26000012836D1608891490968088000251FE09F
:10E270000C202946414320460A30405A8C498842A6
:10E2800014D10C202946414320460A300818408901
:10E290008649096848800C202946414320460A30B7
:10E2A0000818008981490968888004E0681CC5B2A3
:10E2B000207AA842DCDC00BF7EA006F0A9F800208E
:10E2C0006946087079480068826878480068904715
:10E2D00002E084A006F09CF838BDF7B50646154666
:10E2E00032468E48019906F093F82F465F48006841
:10E2F0005E490968491C5D4A1160142148435C4924
:10E300004418104600784007400F114608600199F4
:10E3100061810221E181211D21610021A181012171
:10E3200021722771FF20000238400112617126809E
:10E330000120A070FFF716FF0020FEBD38B504468F
:10E340000D46002C01D0002D01D10E2038BD012139
:10E350006846817054490180544804600020C043DD
:10E3600052490968088000205049096848804F498F
:10E37000096888804D492868096888606849684646
:10E3800001F08DFAE2E710B502461388654CA3420E
:10E390000CD00123437093884380CB8BC3808B8B3D
:10E3A00083800B46203383600223037010BD70B559
:10E3B00005460C46002D01D0002C00D170BD2088F0
:10E3C000372815D004DC102807D035281FD114E0D9
:10E3D000382808D050281AD114E0607B022801D1D7
:10E3E000A088288014E021462846FFF71DFF0FE093
:10E3F00021462846FFF7FCFE0AE021462846FFF7A3
:10E40000FDFE05E021462846FFF7BDFF00BF00BF27
:10E4100000BF00BFD2E710B50446002C01D10E208A
:10E4200010BD618820880122FFF757FFF8E770B51B
:10E4300004460E4800680D490968491C0B4A1160E2
:10E44000142148430A494518104600784007400FF8
:10E4500011460860A088A880208828800020A87025
:10E46000FFF780FE002070BD5C28002058280020A7
:10E47000082E00205B4241535F435D3A2053442005
:10E48000526561642F57726974652041504920724A
:10E49000657475726E7320537563636573732E2E86
:10E4A0000D0A0000444A02000F1800005428002002
:10E4B000192A00005B4241535F435D3A2042617478
:10E4C0007465727920536572766963652064697337
:10E4D000636F766572656420617420706565722E65
:10E4E0000D0A00005B4241535F435D3A2042617474
:10E4F0007465727920536572766963652064697307
:10E50000636F76657279206661696C7572652061EA
:10E510007420706565722E200D0A0000A04A02006A
:10E520004DE20100FFFF00008A884282704700220E
:10E53000D24342827047F8B504460E46207D00283B
:10E5400020D0B51D2988608981421AD1288B0228E4
:10E5500017D12068002814D000BF00BFA97EEA7E32
:10E56000120211430846C107C90F002902D000203A
:10E57000009001E001200090694620462268904703
:10E5800000BF00BFF8BDF8B505460E4614462F88FB
:10E590002088102804D011280AD0502815D10FE067
:10E5A000607B012803D121463046FFF7BDFF0DE017
:10E5B000A088B84203D121463046FFF7B8FF05E0F6
:10E5C00021463046FFF7B7FF00E000BF00BFF8BDAF
:10E5D000F0B591B004460D46207D002819D00020EA
:10E5E000099000BF08A8007901090901491C08A881
:10E5F00001710079F0218843103008A9087100BF2B
:10E60000697B08A84171807906218843801C08A98C
:10E6100088711C210AA805F04EFE08A8007A022184
:10E620008843811C08A80172007A08218843411898
:10E6300008A80172007A04218843011D08A801720C
:10E64000007A10218843217D002901D0012100E0BA
:10E650000021090110221140084308A90872002076
:10E660000B900D900E90207D002801D009A800E0AD
:10E6700000200F900020109000BF01216846817398
:10E680007249818100BF00200290A97B6846017217
:10E69000E97B4172807A06218843811C6846817239
:10E6A000807A08218843014668468172807A102169
:10E6B0008843014668468172807A4108490068466D
:10E6C0008172297B0191142104A805F0F4FD03A8AF
:10E6D000049002A80590012168460183002141832E
:10E6E0000121818301A80890A088A31D04AA0AA97A
:10E6F000A2DF0646002E02D0304611B0F0BDA86859
:10E7000000284DD000BF01216846817350498181A6
:10E7100000BF00200290287C6946087200BF68464E
:10E72000407A0109090168464172407AF021884324
:10E730006946487200BF6846807A06218843811C7A
:10E7400068468172807A0821884301466846817252
:10E75000807A10218843014668468172807A410898
:10E76000490068468172A96805F0DEFC074614215D
:10E7700004A805F0A0FD03A8049002A8059068462F
:10E78000078300214183018B81830890E088224622
:10E790000E3204A9A3DF0646002E03D03046ACE7B4
:10E7A0000020E0810020A8E7F8B504460D4628685F
:10E7B00020600020C043608228792075FF202074EB
:10E7C00000BF0121684681702249018000BF221DDF
:10E7D00069460120A0DF0646002E01D03046F8BD74
:10E7E00029462046FFF7F4FEF9E733B585B0044625
:10E7F0000025207C6946097E884224D001210491AD
:10E800006846007E2074608A1349884219D0207DB2
:10E81000002816D000200090019002900390012162
:10E820000491E18868460180012181700021818086
:10E8300004A8029006A80390608A6946A6DF0546F0
:10E8400000E0082500BF284607B030BD192A0000A7
:10E85000082900000F180000FFFF000070B50446F3
:10E860000D4600BF002D01D0012000E0002006462B
:10E87000002E05D100BFE6A23321FDF7BBFE00BF8D
:10E8800000BF00BF002C01D0012000E000200646A0
:10E89000002E05D100BFDEA23421FDF7ABFE00BF84
:10E8A00000BF2878207029882879FF231B0219408F
:10E8B00000200206080A1043607028791B022968AC
:10E8C000194000200204080C1043A07029791B0293
:10E8D0002868184000210902000E0843E0702879DA
:10E8E0002071287A6071190CA8680840000AA0718C
:10E8F0000902A8680840000CE07170BDF8B5054633
:10E900000E46002400BF002E01D0012000E00020B0
:10E910000746002F05D100BFBDA24B21FDF76AFEBF
:10E9200000BF00BF00BF002D01D0012000E000208B
:10E930000746002F05D100BFB5A24C21FDF75AFEB6
:10E9400000BF00BF32782046611CCCB22A5429197E
:10E95000708800F054F90019C4B22919B08800F089
:10E960004EF90019C4B22919F08800F048F90019CD
:10E97000C4B200BF072C01D1012000E000200746EF
:10E98000002F05D100BFA2A25421FDF733FE00BF26
:10E9900000BFF8BDF0B58FB007460D4614461E46C1
:10E9A00000BF002D01D0012000E000200090009861
:10E9B000002805D100BF96A26D21FDF71BFE00BF08
:10E9C00000BF00BF002C01DD012000E0002000900E
:10E9D0000098002805D100BF8DA26E21FDF70AFE28
:10E9E00000BF00BF1C2107A805F065FC6946087F31
:10E9F00002218843801C69460877002008900A900D
:10EA00000B900C900D9000BF012108A881766846FC
:10EA1000078700BF00200190317868460171717846
:10EA20004171807906218843811C68468171807913
:10EA30000821884301466846817180791021884306
:10EA400001466846817180794108490068468171B4
:10EA5000142102A805F02FFC0EA8029001A8039033
:10EA600068460482002141828482069502AA07A991
:10EA700072480088149BA2DF0FB0F0BD7FB504463A
:10EA800000BF0121684681736D49818100BF6B4AD7
:10EA900003A90120A0DF0546002D02D0284604B0BE
:10EAA00070BD208800280DDD66480090228823462E
:10EAB0003C3365486168FFF76DFF0546002D01D0C6
:10EAC0002846ECE7208900280EDD60480090228966
:10EAD00023463C335C48401FE168FFF75BFF054677
:10EAE000002D01D02846DAE7208A00280EDD58489C
:10EAF0000090228A23463C335348001F6169FFF788
:10EB000049FF0546002D01D02846C8E7208B002884
:10EB10000EDD50480090228B23463C334A48801E2D
:10EB2000E169FFF737FF0546002D01D02846B6E71B
:10EB3000208C00280EDD48480090228C23463C3370
:10EB40004148C01E616AFFF725FF0546002D01D030
:10EB50002846A4E7208D00280EDD40480090228D35
:10EB600023463C333848401EE16AFFF713FF054651
:10EB7000002D01D0284692E7206B002813D001A871
:10EB8000216BFFF76BFE364823463C33082201A970
:10EB900000902D48801FFFF7FDFE0546002D01D097
:10EBA00028467CE700BF606B00280FD02D480090FE
:10EBB000606B027923463C3301682348401CFFF711
:10EBC000E9FE0546002D01D0284668E7A06B002825
:10EBD00013D001A8A16BFFF791FE234823463C33D5
:10EBE000072201A9009018482730FFF7D3FE0546F9
:10EBF000002D01D0284652E700BF00204FE7024613
:10EC00000A70FF2000021040001248700220704776
:10EC10002E2E5C536F757263655F733133305C62A7
:10EC20006C655C626C655F73657276696365735C65
:10EC3000626C655F6469732E6300000060280020C9
:10EC40000A18000062280020292A00006A280020F3
:10EC5000722800207A280020822800208A2800209C
:10EC6000922800209A280020A22800208A88028466
:10EC700070470022D2430284704738B505460C46DF
:10EC8000208B022817D12868002814D000BF00BFAD
:10EC9000A17EE27E120211430846C107C90F002976
:10ECA00002D00020009001E0012000906946284633
:10ECB0002A68904700BF38BD70B504460D46AE1DAA
:10ECC0003188A089814203D131462046FFF7D5FF24
:10ECD00070BD0FB5028CF94B9A4211D00022009200
:10ECE00001920292039203896A4613800123937072
:10ECF000002393800A4610320292921C039200BFB6
:10ED00000FBDF8B505460E4614462F8820881028FA
:10ED100006D011280CD0382817D050281AD10FE06F
:10ED2000607B012803D121463046FFF79FFF12E0A8
:10ED3000A088B84203D121463046FFF79AFF0AE087
:10ED400021463046FFF7B8FF05E021463046FFF781
:10ED5000C0FF00BF00BF00BFF8BDF7B582B00446DA
:10ED600017460020019001256079002803D0042176
:10ED70000198084301902220005D002803D0022161
:10ED80000198084301900398FF280ADD01210198AA
:10ED9000084301907919039800F0A8F94019C5B209
:10EDA00005E00398C2B22846691CCDB23A544C2003
:10EDB000005B002803DD1021019808430190002624
:10EDC00018E0A81C14280BD94C20005B801B4200C3
:10EDD000700023462433C118184605F045FA0DE0AB
:10EDE0007919720023462433985A00F07FF94019AC
:10EDF000C5B2761C4C20005BB042E2DC00BF4C2068
:10EE0000005B801B81B24C2001530198387028466A
:10EE100005B0F0BD30B595B005460C4600200D900C
:10EE200000BF08A8007D01090901491C08A8017557
:10EE3000007DF0218843103008A9087500BF217BB0
:10EE400008A84175807D06218843811C08A881752A
:10EE50001C210EA805F02FFA08A8007E1021884377
:10EE6000103008A9087600200F90119012900DA87C
:10EE700013900020149000BF0121684681779049CB
:10EE8000818300BF00200690617B68460176A17BEC
:10EE90004176807E06218843811C68468176807E8B
:10EEA00008218843014668468176807E1021884388
:10EEB000014668468176807E41084900491C6846C3
:10EEC0008176142108A805F0F6F907A8089006A88D
:10EED000099001AA00212846FFF73FFF0146684636
:10EEE0000185002141851421818501A80C90E888C5
:10EEF0002B46083308AA0EA9A2DF15B030BD30B5E5
:10EF00008FB005460C461C2108A805F0D4F908A9C5
:10EF1000087802218843801C08A908700020099005
:10EF20000B900C900D900E9000BF012168468172ED
:10EF30006349491C018100BF00200190E17B6846C4
:10EF40000171217C4171807906218843811C6846CA
:10EF500081718079082188430146684681718079F2
:10EF60001021884301466846817180794108490033
:10EF700068468171142103A805F09DF902A8039049
:10EF800001A804900121684681820021C1820121EB
:10EF90000183A0680790E8882B46103303AA08A9CC
:10EFA000A2DF0FB030BDF8B504460E4630682060D1
:10EFB000307960710020C043208400212220015557
:10EFC0004C20015300BF0121684681703D490180FA
:10EFD00000BFA21D69460120A0DF0546002D01D01B
:10EFE0002846F8BD31462046FFF714FF0546002DA0
:10EFF00001D02846F5E7B068002808D03146204601
:10F00000FFF77DFF0546002D01D02846E9E70020E7
:10F01000E7E7F0B58BB004460F46208C27498842BD
:10F0200022D006AA39462046FFF797FE06460596E7
:10F03000002001900290039004902189684681800D
:10F04000012181710021018105A8039006A8049087
:10F05000208C01A9A6DF0546002D04D16846808AD0
:10F06000B04200D00C2500E0082528460BB0F0BDCA
:10F0700070B504460D464C20005B14280AD12622A8
:10F08000A118881E05F0F0F84C20005B401E81B2EC
:10F090004C2001534C20015B005B401C82B24C2091
:10F0A0000253490020462430455270BD01464C2091
:10F0B000405A142808D1012070470000FFFF0000CB
:10F0C000372A00000D1800000020F5E70246108CDA
:10F0D0000B4B984202D15171002070470820FCE789
:10F0E00022221154704702460020704702460A70DF
:10F0F000FF200002104000124870022070470000FC
:10F10000FFFF000008B500201023122211210090FB
:10F11000132000F069F808BD70B504460D46E0B252
:10F1200000F047F8204670BD70B505460E4608A0B1
:10F1300005F06EF9002404E0295D06A005F068F9E9
:10F14000641CB442F8D302A005F062F970BD00005F
:10F150000D0A0000307825303258200000BF4248A8
:10F1600080680128FBD100203F4988603F488069C2
:10F17000C0B2704770B504460D4601260AE020462D
:10F18000641E002804DB7D20C000FDF763F901E068
:10F19000002603E0344880680128F0D100BF002C2D
:10F1A00005DB00203049886030488069287030468F
:10F1B00070BD2E49C86100BF2B49C9690129FBD127
:10F1C0000021294AD161704730B503460025284601
:10F1D0006D1C1C5C05E02046FFF7EBFF28466D1C0C
:10F1E0001C5C002CF7D130BDF8B507460C4615461F
:10F1F0001E46204600F025F80021304600F02AF88F
:10F200001A48C4604661069800280DD0384600F0C0
:10F2100018F80021284600F01DF8144805618760A1
:10F22000012012494031C862114810494862042047
:10F23000086001200F498860086000200A49886042
:10F24000F8BD03210522120707231B02D2188300F1
:10F25000D150704710B58A0005231B0707242402EC
:10F260001B1984001A5110BD0021004000250040E8
:10F2700000509D00002000400246002112E0C8001E
:10F28000F94BC0188078937898420AD1C800F64BA1
:10F29000185A1388984204D1C800F34BC01840682C
:10F2A0007047491CF14800688142E8D30020F7E725
:10F2B0000246EE480068022815D2EC480068C000FB
:10F2C000E94BC0181388038053884380E7480068DF
:10F2D000C000E54BC0184160E4480068401CE34BA7
:10F2E0001860002070470420FCE710B5002409E0F6
:10F2F00038226243DE4BD01838226243D218516B59
:10F300008847641CD94800688442F1D30020D94959
:10F31000086010BDF8B504460D466020005D2E2142
:10F32000484307193846FFF7A7FF0646002E2ED0A0
:10F33000D048006802282AD25C20015BCD480068D2
:10F3400038225043CA4A801841800121C9480068C8
:10F3500038225043C64A1154C648006838214843F1
:10F36000114640184560C34800683821484311469B
:10F3700040184663BF480068401CBE490860084604
:10F380000068BA490968884201D1FFF7AEFFF8BDAD
:10F39000F8B504460D466020005D2E21484307194C
:10F3A0003846FFF769FF0646002E3CD0B14800689A
:10F3B000022838D25C20015BAE48006838225043F6
:10F3C000AB4A80184180002D12D00021A948006866
:10F3D00038225043A64A1154A6490968382251439D
:10F3E000A34A8918081D2E22394604F03DFF06E085
:10F3F0000221A0480068382250439D4A11549D487C
:10F400000068382148439A49401846639948006883
:10F41000401C984908600846006894490968884279
:10F4200001D1FFF762FFF8BD70B50446924800684D
:10F43000401C91490860084600688C490968884268
:10F440002ED200215F2001556020005D401CC1B21A
:10F4500060200155005D2E21484305196020005DA4
:10F46000C0008149401801882980408868800020B8
:10F4700028715C20025B2988804804F0C9FF5C2168
:10F48000085B2A46012190DF0646002E07D00021A6
:10F490006120015531462046FFF73CFF70BD02E078
:10F4A00000216120015500BFF8E710B502460B8925
:10F4B0006020805C2E2460438018808D834201DAB6
:10F4C000012010BD0020FCE770B50446002A16D1CB
:10F4D0000D896020005D2E2670430019808D8542C5
:10F4E00001D1002070BD0889401C18806020005D9B
:10F4F0002E2568430019808D58800120F2E7088985
:10F50000401CD588A84201D10020EBE70889401CA7
:10F510001880D088401E58800120E3E738B50446A3
:10F520006020005D2E21484305195F20005D002802
:10F5300011D05F22125D521ED1B26022125D2E23C5
:10F540005A4315190C224A43AB1DD0180289521C8C
:10F550006B461A8002E0688D69460880A88D69466E
:10F5600048805C21085B694692DF38BDF0B585B004
:10F5700004460F46002001906020005D2E21484384
:10F5800005195F20005D0C214843A91D4018029019
:10F590005F20005D401C2979884207D103AB00221F
:10F5A00020460299FFF790FF019029E05F20065D59
:10F5B00021E02879401EB04202D10020009005E0F1
:10F5C000701C0C214843A91D4018009003AB204635
:10F5D000009A0299FFF778FF002802D001200190DD
:10F5E0000CE0009802905F20005D401CC1B25F20DB
:10F5F0000155701CC6B22879B042DADC00BF00BFEA
:10F600000198002804D101203870002005B0F0BD19
:10F61000002038705C21085B03A993DFF6E7F8B59A
:10F6200004460D46688800282AD16020005D2E21FE
:10F63000484307192E46083671883980B08878808B
:10F64000F2887A853189B9852046FFF767FF0090F7
:10F650000098002806D0002161200155204600991D
:10F66000FFF758FE13E00000A82E0020B828002065
:10F67000B82E0020B4280020BC280020444B0200F3
:10F6800000212046FFF784FE2046FFF7CDFEF8BD9F
:10F69000F3B587B00546002006906020405D2E211E
:10F6A0004843441908984088002857D108980830E2
:10F6B00005902079049005980078039003990498A8
:10F6C0004018032804DC217903980818207101E010
:10F6D00003202071049E0020029017E00A22029865
:10F6E00042430598801C11180C207043A21D8318FA
:10F6F0000A22184604F0B8FD00210C207043A21D18
:10F7000080184181761C0298401C02902079B042FA
:10F71000E4D8701E0C214843A11D401801902846D2
:10F720000199FFF7C2FE002802D02079032802D1F8
:10F730000120069011E021795F2041552846FFF70E
:10F74000EDFE0746002F08D00021612041553946C3
:10F750002846FFF7DFFD09B0F0BD01E0012006906B
:10F760000698002823D000215F20415505A928468E
:10F77000FFF7FCFE0746002F07D00021612041550E
:10F7800039462846FFF7C6FDE5E76846007D0028B4
:10F790000CD05C20425B2188924804F039FE0121A4
:10F7A0002846FFF7F5FD2846FFF73EFE00BF00BFE5
:10F7B000D1E7FEB504460D466020005D2E2148438A
:10F7C00007192E4608365F20005D0C214843B91DFD
:10F7D000401802906888002816D100BF0FE006216B
:10F7E0004143B21C891849887F4A914206D10621BB
:10F7F0004143B21C525A02994A8103E0401C3188AD
:10F800008142ECD800BF00BF002001905F20005D66
:10F81000401C3979884202D10120019016E05F2016
:10F82000005D401CC1B25F20015501A92046FFF7D1
:10F830009DFE00900098002807D00021612001550E
:10F8400020460099FFF766FDFEBD00BF68460079BF
:10F8500000280CD05C20025B3988644804F0D8FD95
:10F8600001212046FFF794FD2046FFF7DDFD00BF94
:10F87000EAE700205E49086001205E490870002028
:10F880005D4908605D49086070470020584908607C
:10F89000584908705849086058490860704770B561
:10F8A00004460D46002C01D0002D01D10E2070BD64
:10F8B00050480078002801D10820F8E74C4800683B
:10F8C000022801D10620F2E729462046FFF7F0FC86
:10F8D000EDE7F8B504460F46002C01D10E20F8BD27
:10F8E00044480078002801D10820F8E74048006823
:10F8F000002801D10820F2E76120005D002801D036
:10F900001120ECE700203C4908603C4908600021D8
:10F91000602001555C2007536020005D2E21484384
:10F9200005196020005DC000354940180188298014
:10F93000408868805C20025B2988324804F068FDBA
:10F940005C21085B2A46012190DF0646002E01D08B
:10F950003046C4E70121612001550020BFE7F8B51A
:10F9600006460D4614463788002D01D0002C00D1E4
:10F97000F8BD20480078002800D1F9E72088302819
:10F980001DD004DC102807D0112827D10BE0322825
:10F990001AD0332822D11CE0607B022802D1A18832
:10F9A0005C2041531BE0A088B84207D06221284662
:10F9B00004F081FC0021C9435C2041530FE0211D6C
:10F9C0002846FFF72CFE0AE0211D2846FFF760FEBF
:10F9D00005E0211D2846FFF7ECFE00E000BF00BF58
:10F9E00000BFC5E7E84A020002290000944B02006C
:10F9F000B8280020C0280020BC280020B4280020FF
:10FA0000A82E0020444B020010B50446C948FCF75C
:10FA100031FD0020C84908700846447001230222C5
:10FA20007C2000F0F9FA10BD10B5C248FCF722FDA9
:10FA30000020C149087080204870012302227C20E8
:10FA400000F0EAFA002800D110BD01231222BB49C0
:10FA50007C2000F0E1FA002800D1F5E7C020B6498B
:10FA60004870012302227C2000F0D6FA002800D141
:10FA7000EAE701231222B1497C2000F0CDFA0028E8
:10FA800000D1E1E70120DFE710B50446A948FCF703
:10FA9000F1FC0020A8490870702020434870012321
:10FAA00002227C2000F0B8FA10BD10B5A148FCF786
:10FAB000E1FC0020A04908700C20487001230222BC
:10FAC0007C2000F0A9FA10BD10B59A48FCF7D2FCD2
:10FAD00000209949087008204870012302227C20E8
:10FAE00000F09AFA10BD30B50346954C002901D1BB
:10FAF000002030BD1878934DE8615B1C0120924DC9
:10FB0000A86022E000BF9148C069002802D1601EB1
:10FB10000400F8D1002C0CD100208C4D686001202D
:10FB2000894D686100BF894840680028FBD00020EB
:10FB3000DFE70020854DE861481EC0B2010000D11A
:10FB400004E018787F4DE8615B1CDBE700BF002A0A
:10FB50000AD000207D4D686001207B4D686100BFA8
:10FB60007A4840680028FBD00120C2E7F8B57C2421
:10FB70000020009004250026002760107149803184
:10FB80008860324629466846FFF7ADFF07460020E9
:10FB90006E4948623846F8BD10B500F047F90028B4
:10FBA00000D110BDFFF7E2FF3820FFF72DFF00283E
:10FBB00000D1F6E73920FFF727FF002800D1F0E752
:10FBC0001420FFF721FF002800D1EAE70820FFF703
:10FBD0005BFF002800D1E4E75F20FFF715FF002856
:10FBE00000D1DEE76A20FFF70FFF002800D1D8E739
:10FBF0005748FCF73FFCFFF758FF002800D1D0E73B
:10FC0000FFF712FF002800D1CBE70620FFF7FCFE2C
:10FC1000C7E7FFB581B0064617461D460020464996
:10FC20000870E81980304870012302227C2000F01F
:10FC3000F3F9002801D105B0F0BD1220401BC2B27B
:10FC400001233E497C2000F0E7F9002800D1F2E7CB
:10FC5000002039490870E8198030487001230222D9
:10FC60007C2000F0D9F9002800D1E4E74020324997
:10FC70000870002408E0102C00D108E031782E4AEA
:10FC8000601C1154761CC4B202988442F3DB00BF9E
:10FC9000601CC2B2012328497C2000F0BDF9CAE7EC
:10FCA00070B5044601231A4623497F2000F0B4F9B9
:10FCB000002800D170BD204801781D258D43E8073C
:10FCC000C00F002803D00020C043207008E010209F
:10FCD0002840002802D00120207001E00020207080
:10FCE00004202840002802D00120607009E008208C
:10FCF0002840002803D00020C043607001E00020AD
:10FD000060700120D6E738B5044601231A466946DB
:10FD10007F2000F081F9002800D138BD68460078C6
:10FD2000C043C1B2009168460078C006C00E207082
:10FD30000120F2E710270000282F0020C128002012
:10FD4000204E0000004500400040004000410040BF
:10FD5000400D0300F8B5C24805680020C04908609E
:10FD60000805072109024018066EBE48052109074B
:10FD7000072212028918086605200007114640185C
:10FD8000406E0090B748052109078918486600BFF2
:10FD900001204006B449886000BF00BF4010886061
:10FDA00000BF0420FCF776FBAF4800698001C00F5C
:10FDB000002807D0AC480069C001C00F002801D05E
:10FDC000012422E00024122719E000BF01200006D0
:10FDD000A549C86000BF0420FCF75CFB00BF012000
:10FDE0000006A149886000BF0420FCF753FB9E4831
:10FDF00000698001C00F002801D0012403E03846CB
:10FE00007F1E0028E1D100BF00BF052000070721A9
:10FE100009024018066605210907072212028918FF
:10FE2000009848668E4805602046F8BD10B58D489C
:10FE3000401E0521090707221202891808660521BC
:10FE4000090789184866002088498860C861182019
:10FE5000834988601920C8603320C0044862834801
:10FE60003830834908618148E438824951221201BF
:10FE70008918486001207E4988600520784908601B
:10FE8000FFF768FF10BDF8B504460D4616467A4FD9
:10FE9000002D01D10020F8BD20787149C861641C93
:10FEA00001207649886031E000BF7048C0690028B1
:10FEB00006D16E48406A002802D1781E0700F4D1AE
:10FEC000002F03D06948406A002813D000206749FA
:10FED0004862634908606A49C8630520FCF7DAFA9A
:10FEE00001206749C86305205D490860FFF79EFF50
:10FEF0000020D0E700205D49C861681EC0B205003F
:10FF000000D104E020785649C861641CCCE700BFEA
:10FF1000002E0AD000205549486001205749486109
:10FF200000BF524840680028FBD00120B3E7F8B575
:10FF300005460C461746504E002C01D10020F8BD56
:10FF4000012C07D14D4814304A4951221201891819
:10FF5000486006E049481C30464951221201891880
:10FF600048600120424948600020404988600120E3
:10FF70004249086041E000BF3C488068002806D143
:10FF80003A48406A002802D1701E0600F4D10020D1
:10FF900036498860002E03D00846406A002813D0F6
:10FFA0000020324948622E4908603549C86305205F
:10FFB000FCF770FA01203249C8630520284908601F
:10FFC000FFF734FF0020BAE72548806928706D1CD0
:10FFD000601EC0B20446012806D1284814302549C5
:10FFE0005122120189184860002C00D106E014202B
:10FFF000FCF750FA012021490862BCE700BF00BFAE
:020000040002F8
:100000001A4840680028FBD00020184948600120A9
:100010001749886000BF92E7F8B504460E461546BA
:100020001F4600200090002D18DDFFF793FE0028EA
:1000300014D060100A4980318860E007C00F0028A2
:1000400006D03A4629463046FFF771FF009005E09A
:100050003A4629463046FFF716FF00900098F8BD53
:10006000004500400D060000000500500041004022
:1000700000F5014000F00140204E0000004000402B
:10008000C04F0040002314214143FC4A5354142123
:10009000414389184B8001231421414389188B6007
:1000A0000023142141438918CB601421414389184E
:1000B0000B611421414389188B80704710B50020D3
:1000C000EF490880EF490870EC49091F0870487033
:1000D0008870002403E02046FFF7D4FF641C0A2C3C
:1000E000F9D310BDFFB583B004460F46154603266D
:1000F000E448007800280BD1002D06D1069800288E
:1001000003D10220DF49087002E00120DD490870B8
:10011000DC480078030004F09FF907FD05314E84A8
:10012000BAD7FD00D8484069401C002808D00122F9
:100130001207126991B2D44A506904F06BF802E0D8
:10014000012000074069401E01210907096989B2A1
:10015000484302900120000700690004820C01203E
:100160000007006980B278430146029821DF064605
:10017000002E02D10220C3490870D0E0384620DFAB
:100180000646002E16D1002D11D1069800280AD15E
:100190002078042803D10720BA4908700AE0052016
:1001A000B849087006E00420B649087002E0032050
:1001B000B4490870B3E0B4484069401C002808D036
:1001C00001221207126991B2AF4A506904F022F875
:1001D00002E0012000074069401E0121090709696A
:1001E00089B24843012109070290096989B279431C
:1001F00008462A46029921DF0646002E10D10698AD
:1002000000280AD12078042803D106209D490870CF
:1002100006E005209B49087002E004209949087017
:100220007DE099484069401C002808D0012212074F
:10023000126991B2944A506903F0ECFF02E0012088
:1002400000074069401E01210907096989B2484336
:10025000A900401861884018012109070290096926
:1002600089B27943AA00891862888818069A029987
:1002700021DF0646002E09D12078042803D106206C
:100280008049087002E005207E49087047E001209F
:100290000007006980B27843AB00C0180290608804
:1002A00082082169029821DF0646002E0BD1002D1D
:1002B00006D10698002803D107207249087002E091
:1002C0000620704908702AE06F484069401C0028E9
:1002D00008D001221207126991B26B4A506903F0EB
:1002E00099FF02E0012000074069401E0121090733
:1002F000096989B24843019001200007006981B271
:10030000019803F087FF029020DF0646002E04D1FB
:10031000072000E002E05B49087000E000BF00BF7A
:10032000304607B0F0BDF0B585B00F275348001F29
:1003300000781421484351494418E5682078022880
:1003400004D0042823D005286FD16FE020690390E2
:100350004B48008886026088801B049003988019AF
:100360000390A088801945190121890204988842C8
:1003700006D2049882082846039921DF074605E043
:10038000FF2201322846039921DF074681E0A06859
:1003900000013E49401800890490A06800014018FF
:1003A00040890390A06800014018406802900298BC
:1003B000A84205D10399049848436188884202D035
:1003C000A06802280DD101200007006981B22846EB
:1003D00003F020FF2A4909884618304620DF0746E7
:1003E00022E001200007006981B2284603F012FFD5
:1003F000064601200007006980B27043281A800871
:10040000019001200007006980B2711C4843618897
:100410004919401A8008009031462046009B019AF5
:10042000FFF760FE074600BF33E031E00120000720
:10043000006981B2284603F0EDFE0646A088411906
:1004400001200007006980B27043081A80080490F8
:10045000A08840196188421801200007006980B215
:10046000711C4843801A8008039031462046039B44
:10047000049AFFF737FE07460BE000004C2F0020E0
:10048000DC280020DF28002000100010143000209D
:1004900000BF00BF002F02D10120F9498870384603
:1004A00005B0F0BDFFB581B0064617460024F448FC
:1004B00040780A2837D0F2480078F1494978401846
:1004C000C4B20A2C02DB20460A38C4B214206043AE
:1004D000EB49091D0E541420604340180761142095
:1004E00060434118029805C8CA60886014206043C0
:1004F000E34A121D8018049941801420604380183B
:100500000A9981800025101F8078002805D1FFF707
:100510000AFF0546112D00D10025D9484078401C1E
:10052000D749487000E00425284605B0F0BD10B555
:100530000024D3484078002807DDFFF7F4FE044686
:10054000002C02D0112C00D10024204610BDF8B59B
:100550000446CB48007814214843C949091D0E5C64
:10056000081F007814214843C549091D40188068B8
:100570000001C4490D58C248007814214843C049BD
:10058000091D40184088091F009009781422514322
:10059000BB4A121D89180B69111F09781422514397
:1005A000B74A121D89180846083022463146A84726
:1005B000F8BDFEB505460026B148807801287DD1FA
:1005C0000020AF498870B0480078082811D1022D6A
:1005D00003D10020AC49087002E00020AB4908704C
:1005E000FFF7A5FF0646002E02D03046FFF7AFFF0B
:1005F000FEBD022D02D0032D79D174E0A048007811
:10060000142148439E49091D4418A1480088401CF4
:100610009F4908802078022807D108460088800278
:100620006188884201DB012000E000200746207835
:10063000052805D194480078072801D1012000E061
:10064000002002902078042805D18F4800780728E0
:1006500001D1012000E000200190207804280BD176
:100660008B48008880026188884205DB86480078D4
:10067000002801D1012000E000200090029800280D
:1006800007D10198002804D10098002801D1002F3B
:100690001FD000207C4908703046FFF758FF78498A
:1006A0000878FFF7EFFC002079490880744840780B
:1006B000401E734948700846007800E01AE0401C6C
:1006C0000870084600780A2803DB084600780A38D4
:1006D0000870FFF72CFF0646002E02D03046FFF7C9
:1006E00036FF05E003E00D20FFF731FF00E000BF1B
:1006F00000BF00BF00BF7BE770B5FFF7DFFC002045
:100700006449088064484069401C002808D00122E0
:100710001207126991B2604A506903F07BFD02E052
:10072000012000074069801E01210907096989B27B
:1007300048435A49086000205549088000BF0DE031
:10074000002102014F4B99500201D2181181020180
:10075000D21891810201D2185181401C0028EFD09B
:100760000820494908704C484069401C002808D0BE
:1007700001221207126991B2474A506903F04AFDFB
:1007800002E0012000074069401E012109070969B4
:1007900089B24843064601200007006981B230460D
:1007A00003F038FD054620DF0446002C04D101206B
:1007B0003349887035490870204670BDF8B5044645
:1007C0000D4600BF31480078002801D10820F8BD4F
:1007D00000BF002C01D10E20F9E7002D01D10E2021
:1007E000F5E72068002801D10E20F0E7A08801215C
:1007F0000907096989B2884202DCA088102801DA59
:100800000720E4E7E088002830D023484069401CF6
:10081000002808D001221207126991B21E4A5069BD
:1008200003F0F8FC02E0012000074069401E0121AE
:100830000907096989B24843E188A2885143174AE8
:1008400012688918884211D3E088A18848430121A1
:100850000907096989B288420ADDA18801221207C5
:10086000126990B203F0ECFC002901D00720AEE73A
:1008700020798007800F002812D00720A7E700000A
:10088000482F002014300020DF280020DE28002020
:10089000DC280020D428002000100010D8280020D8
:1008A000FE480088012801D1042090E7FB48008819
:1008B0002860FB4800686860F84909880901F94A1E
:1008C000891868684860F54909880901206850500E
:1008D000A088F2490988090189180881E088EF4950
:1008E00009880901891848810027A688E1884E43B4
:1008F00000BF781C87B201200007006980B2B042B7
:1009000005D201200007006980B2361A00E00026F7
:1009100001200007006980B2E14909684018E049F8
:10092000086001200007006980B2B042E1D9DB48CD
:1009300000880001DB4940188781D8480088401CA6
:10094000D6490880002042E73CB5034600BFD648A0
:100950000078002801D108203CBD00BF002B01D148
:100960000E20F9E7002A01D10E20F5E718680028CB
:1009700005D118680001CB4C2058002801D1072070
:10098000EAE75C68186801940090019C186800010F
:10099000C44D401900894843201801900098000177
:1009A0002C4600194089009C240164192489604365
:1009B000009C2401641964680019019CA04201D8BC
:1009C0000720C9E7019C0098546010600020C3E72D
:1009D000F8B504460E4615461F4600BFB2480078DB
:1009E000002801D10820F8BD00BF002E01D10E2043
:1009F000F9E7002C01D10E20F5E72068002805D189
:100A000020680001A7490858002801D10720EAE71B
:100A100020680001A3494018408921680901A14AC2
:100A200089180989484321680901891849684018CB
:100A30006168884201D80720D5E7002D06D02068DC
:100A40000001984940180089A84201DA0720CAE746
:100A5000E81921680901934A89180989884201DD4A
:100A60000720C0E7304600F05CF9002804D0384683
:100A700000F057F9002801D11020B4E7606800F0B9
:100A800050F9002801D11020ADE72B46324621460F
:100A900002200097FFF706FDA5E7F8B504460E46CD
:100AA00015461F4600BF80480078002801D1082065
:100AB000F8BD00BF002E01D10E20F9E7002C01D1B6
:100AC0000E20F5E72068002805D12068000175494F
:100AD0000858002801D10720EAE720680001714981
:100AE00040184089216809016E4A891809894843DC
:100AF000216809018918496840186168884201D84D
:100B00000720D5E7002D06D0206800016549401870
:100B10000089A84201DA0720CAE7E819216809011B
:100B2000604A89180989884201DD0720C0E73046FC
:100B300000F0F7F8002804D0384600F0F2F800285A
:100B400001D11020B4E7606800F0EBF8002801D173
:100B50001020ADE72B463246214605200097FFF7CF
:100B6000A1FCA5E7FFB581B00C4615461E4600BFA7
:100B70004D480078002802D1082005B0F0BD00BF24
:100B8000002C01D10E20F8E70198002801D10E2099
:100B9000F3E72068002805D1206800014149085882
:100BA000002801D10720E8E7206800013D494018EE
:100BB0004089216809013B4A89180989484321680D
:100BC00009018918496840186168884201D80720DE
:100BD000D3E7002D06D02068000132494018008973
:100BE000A84201DA0720C8E7A819216809012D4A9F
:100BF00089180989884201DD0720BEE7019800F0C5
:100C000090F8002804D0304600F08BF8002801D17D
:100C10001020B2E7606800F084F8002801D11020AD
:100C2000ABE7606881192A46019803F01DFB009527
:100C3000206800011B490F58002203212046019B18
:100C4000B847002099E7F8B504460D4600BF16489E
:100C50000078002801D10820F8BD00BF002C01D188
:100C60000E20F9E72068002805D1206800010D4911
:100C70000858002801D10720EEE720680001094943
:100C80004018408921680901064A891809894843A2
:100C90002168090189184968401807E0D428002014
:100CA000D828002014300020DE2800206168884207
:100CB00001D80720D0E7606800F033F8002801D1A0
:100CC0001020C9E723681B011A4FDB1962685B68B3
:100CD000D01A226812013B46D218118903F09AFA01
:100CE000002901D00720B7E700202B460246214605
:100CF00000900420FFF7D6FB06463046ACE70146DD
:100D000000BF0D480078002801D10820704700BFBF
:100D1000002901D10E20F9E708484078086000203A
:100D2000F4E701468807800F002801D101207047B1
:100D30000020FCE714300020DE280020482F00208F
:100D400010B5044601210C206043FB4A80188172D3
:100D5000891E0C20604380180181FF210C20604314
:100D60008018C1720C2161438818072103F0A3FA8F
:100D700010BD10B5044618216143F04A8918084691
:100D80001130062103F097FA18206043EB49401810
:100D90000021016041608160C160FF211820604333
:100DA000E64A80180174182060438018C1752046F7
:100DB00001F0E6FB0020A100E14A505010BD70B5E3
:100DC00003460C460820002115E00C254D43DA4E61
:100DD000AD19AD7A2540002D0CD0DA4DAB4205D0CF
:100DE0000C254D43AD192D899D4202D11160002083
:100DF00003E00520491C0029E7D000BF70BD7CB589
:100E00000546A9B26A46D048FFF79EFD0446002C6D
:100E100009D15C216846FFF716FF0446002C02D179
:100E20002846FFF7A6FF20467CBDF8B505460E46CE
:100E3000052700240FE018216143C04A891808469D
:100E400010300722294603F048FA002802D1346006
:100E5000002702E0641C072CEDD300BF3846F8BD24
:100E600010B50446002010BDFEB504460E46A1781C
:100E70006A46B548FFF768FD0546002D49D1607800
:100E80000C214843AC494018807A40210840402852
:100E900001D0022E01D1AD4F04E0012E01D1AC4FA3
:100EA00000E0AC4FA07818225043A44A81180023D8
:100EB00018226846B8470546002D1AD1022E18D0D0
:100EC00060780C2148439C494018807A402188432F
:100ED00061780C225143984A8918887260781C22E4
:100EE00050439D4A811818231C226846B84705467E
:100EF00000BF022E0DD020780C214843974940189E
:100F0000807A800096490A582146684690470546EF
:100F100000BFFEBDFEB507460C4606200290617874
:100F20000C225143844A8918088902AA6946AADF1B
:100F30000646002E45D161780C225143894A891812
:100F4000081D69460A8903F0C8F9002813D16078A2
:100F50000C21484378494018807A02210840022831
:100F60002FD060780C2148437E4940180021016051
:100F70004160816025E060780C2148437949085838
:100F8000002801D0714D00E0714D694609896078F3
:100F90000C225043734A115061780C225143714A1C
:100FA0008918081D69460A8903F05EF960780C22E9
:100FB00050436C4A811834230C223846A847064611
:100FC00000BF0020FEBD02460020704770B50546F8
:100FD0000C4661780C225143624A881834230C2253
:100FE0002946FFF7BFFD0646002E0DD160780C2183
:100FF00048435C490858401C002805D1002160780E
:101000000C225043574A1150304670BD0246002012
:101010007047F8B504460026002760780C21484345
:101020005049085800281FD060780C214843424995
:101030004018807A80210840802815D160780C21E2
:1010400048433D494018807A4021084040280BD051
:1010500060780C21484343494018061D60780C21F4
:1010600048434049085A87B261780C225143324ABA
:10107000891808893A463146A9DF0546002D00D077
:10108000394D2846F8BD01460020704770B504462A
:1010900022780C235A43314BD218111D62780C234D
:1010A0005A43254BD21810897EDF0546002D29D1E1
:1010B00020780C21484329494018407A01210843EF
:1010C00021780C225143254A8918487260780C21F6
:1010D000484319494018807A0421084361780C225A
:1010E0005143154A8918887260780C21484311468B
:1010F0004018807A2021884361780C2251430E4A9F
:1011000089188872284670BD0146002902D1164808
:1011100033387047FF20087048708870C87000200E
:10112000F7E7FFB58FB01D4600BF0C4800680028E8
:101130001CD113B0F0BD0000103100204030002061
:1011400024300020FFFF0000E02800209B0A02005E
:10115000D1090200610E0200E83000201C3100209D
:1011600028490200043100204180000000BF189887
:101170005C2801D913B0F0BD012006900BA8FFF741
:10118000C3FF064600BF3746002F06D000BFF0A2BF
:10119000FE493846FBF72EFA00BF00BF002108A821
:1011A000017301740A9518980990002712E0B9B2EA
:1011B00007AAF748FFF7C8FB0646002E09D1082208
:1011C00007A90F9803F089F8002802D108A98F73A6
:1011D00002E07F1C072FEAD300BF08A8807BFF280E
:1011E00078D0109804280AD118985C2803D12020C0
:1011F00008A9087499E0402008A9087495E0E54919
:10120000681A182103F006F80446072C1DD209A815
:101210000D901198002810D108A9887B01218140E8
:10122000DD4A12681140002901D0012100E00021AF
:10123000002902D10020069077E008A9887B01F000
:101240009FF9202008A908746FE0D449681A1C216E
:1012500002F0E0FF0446002C1AD109A80D902021CD
:1012600008A80174447300200390CD4904911C2008
:101270006043CA494018009008A8807B1821484361
:10128000C4494018019068460A90182009904CE023
:10129000C449681A0C2102F0BDFF0446002C1AD183
:1012A000302108A8017444730121C1730C206043EC
:1012B000BD494018807A02210840022835D008A88C
:1012C000407B0C214843B749401800210160416030
:1012D00081602AE04DE000200690402008A90874B3
:1012E000B248854204D104201090012006901CE0F1
:1012F00008A8807B8000AE490858A84215D101207B
:10130000069009A80D9000200CE008A98A7B0C210A
:101310004143A54BC918C97A8A4202D108AA507321
:1013200002E0401C0028F0D000BF0698012820D120
:101330001098042806D108A9087C0321084308A9AD
:1013400008740FE01098032806D108A9087C012131
:10135000084308A9087405E008A9087C022108438D
:1013600008A9087409A80D900CA90BA8119A01F0FE
:101370004AF900BFFEE67FB50646002E02D18D4831
:1013800004B070BD00240FE000BF00210C206043BA
:10139000894A11500C206043801841720C20604330
:1013A0008018817200BF641C002CEDD0002403E083
:1013B0002046FFF7C5FC641C002CF9D079480021B9
:1013C000016041608160002403E02046FFF7D1FC0A
:1013D000641C072CF9D35C21684681810721C181F7
:1013E000764802906A4902A8FFF7E8F90546002D01
:1013F00030D10120724908703078002821D10024B2
:101400001CE0A1B26A466248FFF79EFA0546002D2D
:101410000FD1182161435F4A8818002318226946BA
:10142000FFF7A0FB0546002D07D000206449087097
:1014300006E000206249087002E0641C072CE0D33B
:1014400008E06A469089D289504381B25048FFF73C
:10145000FAFB0546284693E770B505460C4600BFE3
:1014600057480078002802D15248801F70BD00BF45
:10147000002D01D14F48F9E7002C01D14D48F5E787
:101480002068002801D14B48F0E74B48006800284D
:101490000FD14949206808600522611D4648001D9A
:1014A00002F0E2FE2079444988720020287000266C
:1014B00001E0404E0A3E3046D8E7F8B5044600BF8A
:1014C0003F480078002802D13A48801FF8BD00BF8D
:1014D000002C01D13748F9E700BF2078012806DA4F
:1014E00020780C21484334490858002802D131485B
:1014F000801FEBE700BF00BF6078012807DA607843
:101500000C21484328494018807A012802D12948F3
:10151000801CDBE700BF274DAD1F60780C214843DE
:1015200021494018807A02210840022860D1A07821
:10153000FF2807D160780C2148431B494018C07A26
:10154000FF2856D060780C2148431749401839E0ED
:101550002E2E5C536F757263655F733133305C623E
:101560006C655C6465766963655F6D616E61676516
:10157000725C6465766963655F6D616E61676572F3
:101580005F63656E7472616C2E6300005B05000022
:10159000E028002040300020E8280020E83000202B
:1015A0002831002004310020103100205849020069
:1015B000243000200E8000001C3100202311020086
:1015C000EC280020C07AA07063781C267343FE4E7E
:1015D0009A1963781C267343FB4E9B1919461231E6
:1015E00063780C267343F94E9B19188981DF0546F1
:1015F00041E060780C225043F44A8118684600F0BC
:10160000C7FF0546002D35D16846017860780C2269
:101610005043EE4A8018C17268460078A070207866
:101620000C214843EA494018407AC007C00F0028FF
:101630001CD060780C21484311464018807A202144
:10164000084361780C225143E04A89188872207857
:101650000C214843DE494018407A02210843217892
:101660000C225143DA4A8918487203E02046FFF7FA
:101670000DFD054600BF284628E7024600BFD548B5
:101680000078002801D1D448704700BF002A02D159
:10169000D148801DF8E7002902D1CF48801DF3E72B
:1016A00000BF1078012806DA10780C235843C84B85
:1016B0001858002801D1C848E6E700BF00BF50789D
:1016C000012807DA50780C235843C04BC018807AA1
:1016D000012802D1C0480830D6E700BF50780C235B
:1016E0005843BA4BC018807A04231840002809D107
:1016F00050780C235843B54BC018807A20231840EB
:10170000002802D0012008700EE050780C235843C6
:10171000AE4BC018807A80231840002802D00220E7
:10172000087001E0002008700020ADE7F8B504461D
:1017300000BFA8480078002801D1A748F8BD00BF25
:10174000002C02D1A448801DF8E7002902D1A2484C
:10175000801DF3E70868002802D19F48801DEDE74F
:101760008868002802D19C48801DE7E700BF2078E8
:10177000012806DA20780C256843954D2858002862
:1017800001D19548DAE700BF002200230020009035
:1017900000BF45E00025009500BF12E00C266E4317
:1017A0008A4FF619F67A86420AD10C266E43F6194C
:1017B000B67A02273E40022E02D10126009602E0B0
:1017C0006D1C002DEAD000BF009D002D27D10D7BA0
:1017D0009D420FD918254543804EAD19ED7DED078B
:1017E000ED0F002D06D118254543AD199F008E68D9
:1017F000F5515B1C0D79954211D918254543774E5B
:10180000AD19ED7D02263540002D08D11825454340
:10181000724EAD19103597000E68F551521C401CE0
:101820000728B7D30A710B73002087E702466A487E
:101830008830704770B5044600BF664800780028BD
:1018400001D1654870BD00BF002C02D16248801DE7
:10185000F8E700BF2078012806DA20780C214843F9
:101860005B490858002801D15B48EBE700BF00BF87
:10187000A078072807DAA07818214843574940186C
:10188000C07DFF2802D154480830DBE700BFA078B4
:10189000FFF7B5FA05462846D4E770B5044600BF01
:1018A0004C480078002801D14B4870BD00BF002C87
:1018B00002D14948801DF8E700BF2078012806DAE8
:1018C00020780C21484342490858002801D1424859
:1018D000EBE700BF002600250BE0182068433F49D6
:1018E0004018C07DFF2803D02846FFF788FA064637
:1018F0006D1C072DF1D33046D7E7FEB504460D46E3
:1019000000BF34480078002801D13348FEBD00BF35
:10191000002C02D13048801DF8E7002D02D12E485E
:10192000801DF3E700BF2078012806DA20780C211B
:10193000484327490858002801D12748E6E700BF57
:1019400000BF6078012807DA60780C2148431F49FE
:101950004018807A012802D11F480830D6E700BF1E
:1019600000BFA078072807DAA078182148431B4950
:101970004018C07DFF2802D117480830C6E700BFD5
:10198000A868002812D0686800280FD06868062868
:101990000CD22878012809D163780C277B43104F9B
:1019A000DB19181D6A68A96802F05EFCA1786A4616
:1019B0000C48FEF7C9FF0646287880000A490A58F5
:1019C00021466846904711E0E830002010310020A1
:1019D0001C310020EC28002008800000403000204E
:1019E00004310020E0280020284902000646304645
:1019F0008CE77CB504460D4600BFFD480078002802
:101A000001D1FC487CBD00BF002C02D1F948801DEB
:101A1000F8E7002D02D1F748801DF3E700BF2078DA
:101A2000012806DA20780C214843F3490858002899
:101A300001D1F048E6E700BF00BFA078072807DA29
:101A4000A07818214843ED494018C07DFF2802D1F5
:101A5000E8480830D6E700BF60780C214843E849E1
:101A60004018807A02210840022802D0E1488930DB
:101A7000C8E7A868002812D1686806280FD228781D
:101A800001280CD160780C214843DE494018001D24
:101A9000A86060780C214843DA4908586860A1784A
:101AA0006A46D948FEF750FF064628788000D74995
:101AB0000A5821466846904706463046A2E7014646
:101AC00000BFCB480078002801D1CA48704700BF4A
:101AD000002902D1C748801DF8E700BF0878012817
:101AE00006DA08780C225043C34A1058002801D166
:101AF000C048EBE700BF00BF8878072807DA88787E
:101B000018225043BD4A8018C07DFF2802D1B94831
:101B10000830DBE700BFB7488830D7E7FEB504469A
:101B20000D4600BFB2480078002801D1B148FEBD83
:101B300000BF002C02D1AF48801DF8E7002D02D174
:101B4000AC48801DF3E76868002802D1A948801DD1
:101B5000EDE700BF2078012806DA20780C21484301
:101B6000A5490858002801D1A248E0E700BF00BFFE
:101B7000A078072807DAA078182148439F49401821
:101B8000C07DFF2802D19B480830D0E700BF2868FD
:101B9000042801D20720CAE79D4FA1786A469A48D7
:101BA000FEF7D2FE0646002E23D1442304226946C6
:101BB00002A8FEF7D7FF0646002E04D10298401C6B
:101BC000002800D0934F4423042229466846B84792
:101BD0000646002E0DD14823142268466968FEF798
:101BE0005CFF0646002E04D1A17889008A4A686805
:101BF000505030469BE7FEB504460D4600BF7C487A
:101C00000078002801D17B48FEBD00BF002C02D126
:101C10007848801DF8E7002D02D17648801DF3E753
:101C200000BF2078012806DA20780C214843724949
:101C30000858002801D16F48E6E700BF00BFA07830
:101C4000072807DAA078182148436C494018C07D5E
:101C5000FF2802D167480830D6E700BF686800282F
:101C600005D1A07880006C490858686004E0A1782C
:101C70008900694A68685050A1786A466248FEF750
:101C800063FE0646002E1AD144230422694602A8A8
:101C9000FEF768FF0646002E0FD10298401C002870
:101CA0000BD04823142269466868FEF75BFF06469E
:101CB000002E04D10298286001E04E4E383630469E
:101CC000A2E73EB5044600BF49480078002801D18C
:101CD00048483EBD00BF002C02D14648801DF8E7B1
:101CE00000BF2078012806DA20780C2148434249B9
:101CF0000858002801D13F48EBE700BF00BFA0789B
:101D0000072807DAA078182148433C494018C07DCD
:101D1000FF2802D137480830DBE700BFA1786A46C8
:101D20003948FEF711FE0546002D17D14423042241
:101D3000694602A8FEF716FF05460298401C0028D7
:101D40000CD04423042235496846FEF7A6FE05461A
:101D5000002D03D1A17889002F4A50502846B8E7BA
:101D6000024600BF22480078002801D12148704770
:101D700000BF002902D11F48801DF8E7002A02D1C8
:101D80001C48801DF3E700BF1078012806DA1078A0
:101D90000C235843184B1858002801D11548E6E782
:101DA00000BF107808700020E1E770B504460D46CA
:101DB00000BF0F480078002801D10E4870BD00BF59
:101DC000002C02D10B48801DF8E7002D02D10948F4
:101DD000801DF3E700BF2078012806DA20780C2167
:101DE00048430549085800281AD10248E6E7000090
:101DF000EC280020088000001C310020403000202A
:101E00001031002004310020E02800203849020071
:101E1000D10902009B0A0200243000205849020028
