:020000040001F9
:10C000002034002095C40100AFC40100B1C4010078
:10C010000000000000000000000000000000000020
:10C02000000000000000000000000000B3C4010098
:10C030000000000000000000B5C40100B7C401000A
:10C04000B9C40100B9C40100B9C40100B9C40100F8
:10C05000B9C401000000000039080200B9C40100A1
:10C06000B9C40100B9C40100B9C40100B9C40100D8
:10C07000B9C40100B9C40100B9C40100B9C40100C8
:10C08000B9C40100FB130200B9C40100B9C4010026
:10C090001D140200B9C4010093180200B9C40100C4
:10C0A000B9C40100B9C40100000000000000000094
:10C0B0000000000000000000000000000000000080
:10C0C0000000000000000000000000000000000070
:10C0D0000000000000000000000000000000000060
:10C0E0000000000000000000000000000000000050
:10C440000348854605F04EFE00480047DFCB01005B
:10C4500020340020401E00BF00BF00BF00BF00BF4F
:10C4600000BF00BF00BF00BF00BF00BF00BFF1D1D1
:10C4700070470000401E00BF00BF00BF00BF00BFEC
:10C4800000BF00BF00BF00BF00BF00BF00BFF1D1B1
:10C49000704700000321094802680A430260084807
:10C4A00002680A4302600748804707480047FEE7E2
:10C4B000FEE7FEE7FEE7FEE7FEE70000240500409A
:10C4C0005405004071C5010041C4010032483349A0
:10C4D000086070473248008CC0B2012812D1304841
:10C4E000808C0007000F00280CD12D48806AF021B5
:10C4F0000840402806D12A48C06A0840002801D1D7
:10C50000012070470020FCE72548008CC0B20128BC
:10C510002CD12348808C0007000F002826D120480A
:10C52000806AF0210840002806D11D48C06A0840F2
:10C53000002801D1012070471948806AF021084085
:10C54000102806D11648C06A0840002801D10120F1
:10C55000F1E71348806AF0210840302806D11048DE
:10C56000C06A0840002801D10120E4E70020E2E78A
:10C5700010B5FFF7C9FF002805D00A480A494860EE
:10C58000C8130A498861FFF7A5FF002802D00120DF
:10C590000749886010BD00000024F4000028002036
:10C5A000C00F00F0DFFF07C000050040006C004036
:10C5B0000006004070B505460C4616462B4622463E
:10C5C0003146FEA005F0C2FD122000F052FB132000
:10C5D00000F04FFB00E000BF002CFCD170BD70B537
:10C5E00004460D462A462146FE48FFF7E3FF70BD8C
:10C5F00070B51421FC4805F026FD0320FA490870A7
:10C6000000204860087228200882002048820846DE
:10C6100073DF044600BF2546002D07D000BFF3A2FC
:10C62000FF2128312846FFF7C5FF00BF00BF0020CB
:10C63000F1490870122000F01CFB70BD7047704774
:10C6400070B500BF00234822EC49082005F0D9F856
:10C65000054600BF2E46002E07D000BFE3A2FF21F3
:10C6600050313046FFF7A6FF00BF00BF00BFE448CF
:10C6700005F0FDF8044600BF2546002D07D000BF99
:10C68000DAA2FF2154312846FFF794FF00BF00BF14
:10C69000DC4805F0F5F8044600BF2546002D07D01C
:10C6A00000BFD2A2FF2158312846FFF783FF00BF09
:10C6B00000BF70BD10B5122000F0D2FA132000F0B8
:10C6C000CFFA10BD30B5112003210A4613048C00A7
:10C6D00023430524240707252D026419850063518F
:10C6E00000BF30BD70B540DF044600BF2546002DB9
:10C6F00007D000BFBDA2FF2177312846FFF75AFFC0
:10C7000000BF00BF70BD70B501F077FC044600BFEC
:10C710002546002D07D000BFB4A2FF218031284656
:10C72000FFF748FF00BF00BF70BD70B596B001A80D
:10C7300002F06BFB044600BF2646002E07D000BF68
:10C74000AAA2FF2191313046FFF734FF00BF00BF9E
:10C750000198002801D016B070BD082110A80173FF
:10C76000002101750AA8129002A8149012A9A648E7
:10C7700003F062F8044600BF2646002E07D000BF33
:10C780009AA2FF21A1313046FFF714FF00BF00BF7E
:10C7900010A8007B002803D110A8007D002803D03A
:10C7A0009A480078012813D0994800784008400042
:10C7B0009749087008460078022188439449087018
:10C7C000A02008815020488100204860888117E01F
:10C7D0008F480078400840008D490870084600786E
:10C7E00002218843801C8A490870A02008815020BB
:10C7F000488112A848601E20888101208349087062
:10C80000834886DF0446214682A005F09FFC00BFD6
:10C810002646002E07D000BF74A2FF21BE3130464D
:10C82000FFF7C8FE00BF00BF0125002D02D183A085
:10C8300005F08CFC012088490870132000F019FADB
:10C8400000BF88E738B500BF6846007801090901D4
:10C85000491C009168460078F02188431030009010
:10C8600000BF07227DA168467CDF044600BF254645
:10C87000002D07D000BF5DA2FF21D9312846FFF768
:10C8800099FE00BF00BF38BD10B5764C112000F0F6
:10C89000F5F9002800D0744C204610BD10B5AA242C
:10C8A000112000F0EBF9002800D02424204610BD10
:10C8B00030B597B004210291FFF7E6FF01906B4974
:10C8C0006846818101A9059104210182FFF7E6FFF5
:10C8D000C1B200916549891D684601836946089186
:10C8E000012103A80182382109A805F0ACFB02212F
:10C8F00008A80171012181716846018502A90B9187
:10C9000003A81590022110A80176002109A805F0BE
:10C91000BDFA044600BF2546002D06D000BF33A255
:10C9200053492846FFF746FE00BF00BF17B030BD91
:10C9300030B59BB003210091142116A805F083FBAC
:10C9400000201690012110A801776846189000BFBA
:10C9500018A8007901090901491C18A8017100797A
:10C96000F0218843103018A9087100BF00BF16A835
:10C97000407B0009000116A9487316A8407BF021EE
:10C98000884316A9487300BF00BF16A8807B000922
:10C990000001887316A8807BF021884316A988734C
:10C9A00000BF00BF18A8C07901090901491C18A8D7
:10C9B000C171C079F021884310305BE05B41505079
:10C9C0004C5D3A204153534552543A2025732C2054
:10C9D00025642C206572726F72203078253038788B
:10C9E0000D0A0000EFBEADDED42800202E2E5C6DB7
:10C9F00061696E2E63000000042800206029002079
:10CA00003DC601003FC6010006280020072800207F
:10CA1000502900205B4150504C5D3A205363616EB9
:10CA2000207374617274206572726F7220636F6418
:10CA3000653A2030782578200D0A00005B4150507F
:10CA40004C5D3A204C4344205772697465206661FE
:10CA5000696C6564210D0A000528002053313330CC
:10CA60005F474700740E00FE740E00FF09180000B7
:10CA70002302000018A9C87100BF00BF16A8007CDF
:10CA80000009000116A9087416A8007CF02188434B
:10CA900016A9087400BF7D4800F049FE044600BF97
:10CAA0002546002D06D000BF794A7A492846FFF76F
:10CAB00081FD00BF00BF142111A805F0C4FA00BF1A
:10CAC00010A8407C01090901491C10A84174407C50
:10CAD000F0218843103010A9487400BF00BF11A88E
:10CAE000807B00090001401C11A9887311A8807B7C
:10CAF000F0218843103011A9887300BF00BF11A82E
:10CB0000C07B00090001401CC87311A8C07BF02144
:10CB10008843103011A9C87300BF00BF10A8007D62
:10CB200001090901491C10A80175007DF021884305
:10CB3000103010A9087500BF00201190012110A825
:10CB4000017200201390642110A8017411A95248A9
:10CB500000F0EEF9044600BF2546002D07D000BFC7
:10CB60004B4A4B21C9002846FFF724FD00BF00BFF8
:10CB7000402101A805F067FA48A101A805F0ECF9E9
:10CB800000BF10A8007801090901491C10A8017014
:10CB90000078F0218843103010A9087000BF00BF52
:10CBA00010A8407800090001487010A84078F021D2
:10CBB000884310A9487000BF01A800F023FB044679
:10CBC00000BF2546002D07D000BF314A31491E3134
:10CBD0002846FFF7EFFC00BF00BF1BB030BD00F0E0
:10CBE00055FEFFF767FDFFF76DFDFFF729FDFFF726
:10CBF0008AFDFFF727FEFFF75BFEFFF799FEFFF7C1
:10CC0000F7FCFFF792FD00202649087000BFFFF7F0
:10CC100069FD244800780128F9D1234800780128CB
:10CC200015D187DF044600BF2546002D07D000BF81
:10CC3000174A5121C9002846FFF7BCFC00BF00BFBE
:10CC4000132001218140194AD16000BF00BFFFF7C6
:10CC5000CFFC154800780128D9D1FFF766FDD6E74B
:10CC600003210522120707231B02D2188300D1508B
:10CC70007047012181400D4A9160704701460B4881
:10CC80000069C840C007C00F70470000002900209D
:10CC9000ECC9010045020000E828002047616D6EE4
:10CCA00065730000042800200528002000050050BE
:10CCB0008A88428270470022D24342827047F8B588
:10CCC00004460E46207D002820D0B51D29886089A5
:10CCD00081421AD1288B022817D12068002814D04D
:10CCE00000BF00BFA97EEA7E120211430846C107B9
:10CCF000C90F002902D00020009001E0012000901F
:10CD0000694620462268904700BF00BFF8BDF8B5CD
:10CD100005460E4614462F882088102804D0112876
:10CD20000AD0502815D10FE0607B012803D121469D
:10CD30003046FFF7BDFF0DE0A088B84203D1214681
:10CD40003046FFF7B8FF05E021463046FFF7B7FF52
:10CD500000E000BF00BFF8BDF0B591B004460D463D
:10CD6000207D002819D00020099000BF08A8007974
:10CD700001090901491C08A801710079F0218843C3
:10CD8000103008A9087100BF697B08A8417180793B
:10CD900006218843801C08A988711C210AA805F077
:10CDA00052F908A8007A02218843811C08A8017260
:10CDB000007A08218843411808A80172007A0421EA
:10CDC0008843011D08A80172007A10218843217D43
:10CDD000002901D0012100E00021090110221140A9
:10CDE000084308A9087200200B900D900E90207D3A
:10CDF000002801D009A800E000200F90002010902A
:10CE000000BF0121684681737249818100BF002003
:10CE10000290A97B68460172E97B4172807A062103
:10CE20008843811C68468172807A082188430146C4
:10CE300068468172807A1021884301466846817273
:10CE4000807A4108490068468172297B019114214A
:10CE500004A805F0F8F803A8049002A805900121A1
:10CE600068460183002141830121818301A8089044
:10CE7000A088A31D04AA0AA9A2DF0646002E02D09C
:10CE8000304611B0F0BDA86800284DD000BF012188
:10CE9000684681735049818100BF00200290287C40
:10CEA0006946087200BF6846407A01090901684670
:10CEB0004172407AF02188436946487200BF684653
:10CEC000807A06218843811C68468172807A082115
:10CED0008843014668468172807A10218843014662
:10CEE00068468172807A4108490068468172A96863
:10CEF00005F014F80746142104A805F0A4F803A8C7
:10CF0000049002A805906846078300214183018BA5
:10CF100081830890E08822460E3204A9A3DF0646EA
:10CF2000002E03D03046ACE70020E0810020A8E7C7
:10CF3000F8B504460D46286820600020C043608292
:10CF400028792075FF20207400BF01216846817078
:10CF50002249018000BF221D69460120A0DF06464C
:10CF6000002E01D03046F8BD29462046FFF7F4FEDA
:10CF7000F9E733B585B004460025207C6946097E73
:10CF8000884224D0012104916846007E2074608A82
:10CF90001349884219D0207D002816D00020009027
:10CFA00001900290039001210491E188684601807C
:10CFB000012181700021818004A8029006A80390BD
:10CFC000608A6946A6DF054600E0082500BF2846BE
:10CFD00007B030BD192A0000082900000F18000012
:10CFE000FFFF000070B504460D4600BF002D01D0C4
:10CFF000012000E000200646002E05D100BFE6A279
:10D000003321FFF7D7FA00BF00BF00BF002C01D0CB
:10D01000012000E000200646002E05D100BFDEA260
:10D020003421FFF7C7FA00BF00BF28782070298895
:10D030002879FF231B02194000200206080A10432A
:10D04000607028791B022968194000200204080C2E
:10D050001043A07029791B0228681840002109029A
:10D06000000E0843E07028792071287A6071190C4D
:10D07000A8680840000AA0710902A8680840000CCE
:10D08000E07170BDF8B505460E46002400BF002EC5
:10D0900001D0012000E000200746002F05D100BF8D
:10D0A000BDA24B21FFF786FA00BF00BF00BF002DD5
:10D0B00001D0012000E000200746002F05D100BF6D
:10D0C000B5A24C21FFF776FA00BF00BF32782046A8
:10D0D000611CCCB22A542919708800F054F9001947
:10D0E000C4B22919B08800F04EF90019C4B2291948
:10D0F000F08800F048F90019C4B200BF072C01D134
:10D10000012000E000200746002F05D100BFA2A2A9
:10D110005421FFF74FFA00BF00BFF8BDF0B58FB044
:10D1200007460D4614461E4600BF002D01D00120C3
:10D1300000E0002000900098002805D100BF96A2D2
:10D140006D21FFF737FA00BF00BF00BF002C01DDE3
:10D15000012000E0002000900098002805D100BFC9
:10D160008DA26E21FFF726FA00BF00BF1C2107A881
:10D1700004F069FF6946087F02218843801C6946E4
:10D180000877002008900A900B900C900D9000BF3B
:10D19000012108A881766846078700BF002001901A
:10D1A0003178684601717178417180790621884330
:10D1B000811C684681718079082188430146684650
:10D1C0008171807910218843014668468171807998
:10D1D0004108490068468171142102A804F033FF18
:10D1E0000EA8029001A803906846048200214182A3
:10D1F0008482069502AA07A972480088149BA2DFC0
:10D200000FB0F0BD7FB5044600BF012168468173B1
:10D210006D49818100BF6B4A03A90120A0DF05464B
:10D22000002D02D0284604B070BD208800280DDDF6
:10D2300066480090228823463C3365486168FFF7C2
:10D240006DFF0546002D01D02846ECE72089002817
:10D250000EDD60480090228923463C335C48401F25
:10D26000E168FFF75BFF0546002D01D02846DAE7AD
:10D27000208A00280EDD58480090228A23463C333D
:10D280005348001F6169FFF749FF0546002D01D093
:10D290002846C8E7208B00280EDD50480090228BDE
:10D2A00023463C334A48801EE169FFF737FF0546B5
:10D2B000002D01D02846B6E7208C00280EDD484816
:10D2C0000090228C23463C334148C01E616AFFF720
:10D2D00025FF0546002D01D02846A4E7208D002813
:10D2E0000EDD40480090228D23463C333848401ED6
:10D2F000E16AFFF713FF0546002D01D0284692E7AB
:10D30000206B002813D001A8216BFFF76BFE364875
:10D3100023463C33082201A900902D48801FFFF7C7
:10D32000FDFE0546002D01D028467CE700BF606B5E
:10D3300000280FD02D480090606B027923463C33C3
:10D3400001682348401CFFF7E9FE0546002D01D087
:10D35000284668E7A06B002813D001A8A16BFFF74F
:10D3600091FE234823463C33072201A90090184828
:10D370002730FFF7D3FE0546002D01D0284652E79F
:10D3800000BF00204FE702460A70FF200002104055
:10D3900000124870022070472E2E5C536F75726326
:10D3A000655F733133305C626C655C626C655F73C2
:10D3B000657276696365735C626C655F6469732E20
:10D3C00063000000082800200A1800000A28002036
:10D3D000292A0000122800201A28002022280020D4
:10D3E0002A280020322800203A2800204228002045
:10D3F0004A2800208A88028470470022D24302848F
:10D40000704738B505460C46208B022817D128688E
:10D41000002814D000BF00BFA17EE27E120211439B
:10D420000846C107C90F002902D00020009001E082
:10D4300001200090694628462A68904700BF38BD01
:10D4400070B504460D46AE1D3188A089814203D1D6
:10D4500031462046FFF7D5FF70BD0FB5028CF94B62
:10D460009A4211D000220092019202920392038903
:10D470006A46138001239370002393800A4610327A
:10D480000292921C039200BF0FBDF8B505460E46EE
:10D4900014462F882088102806D011280CD0382850
:10D4A00017D050281AD10FE0607B012803D1214604
:10D4B0003046FFF79FFF12E0A088B84203D1214613
:10D4C0003046FFF79AFF0AE021463046FFF7B8FFE3
:10D4D00005E021463046FFF7C0FF00BF00BF00BF98
:10D4E000F8BDF7B582B0044617460020019001252B
:10D4F0006079002803D0042101980843019022207C
:10D50000005D002803D00221019808430190039890
:10D51000FF280ADD01210198084301907919039839
:10D5200000F0A8F94019C5B205E00398C2B2284638
:10D53000691CCDB23A544C20005B002803DD102159
:10D54000019808430190002618E0A81C14280BD964
:10D550004C20005B801B4200700023462433C1181E
:10D56000184604F049FD0DE0791972002346243372
:10D57000985A00F07FF94019C5B2761C4C20005B28
:10D58000B042E2DC00BF4C20005B801B81B24C202B
:10D59000015301983870284605B0F0BD30B595B0FC
:10D5A00005460C4600200D9000BF08A8007D01092B
:10D5B0000901491C08A80175007DF021884310303D
:10D5C00008A9087500BF217B08A84175807D062148
:10D5D0008843811C08A881751C210EA804F033FD26
:10D5E00008A8007E10218843103008A90876002082
:10D5F0000F90119012900DA813900020149000BF6E
:10D600000121684681779049818300BF0020069000
:10D61000617B68460176A17B4176807E0621884346
:10D62000811C68468176807E0821884301466846D1
:10D630008176807E10218843014668468176807E0F
:10D6400041084900491C68468176142108A804F065
:10D65000FAFC07A8089006A8099001AA002128460C
:10D66000FFF73FFF014668460185002141851421EF
:10D67000818501A80C90E8882B46083308AA0EA9DA
:10D68000A2DF15B030BD30B58FB005460C461C2169
:10D6900008A804F0D8FC08A9087802218843801C57
:10D6A00008A90870002009900B900C900D900E9026
:10D6B00000BF0121684681726349491C018100BF96
:10D6C00000200190E17B68460171217C41718079E5
:10D6D00006218843811C684681718079082188432E
:10D6E0000146684681718079102188430146684669
:10D6F000817180794108490068468171142103A82D
:10D7000004F0A1FC02A8039001A80490012168463E
:10D7100081820021C18201210183A0680790E888ED
:10D720002B46103303AA08A9A2DF0FB030BDF8B50D
:10D7300004460E4630682060307960710020C04396
:10D7400020840021222001554C20015300BF0121DB
:10D75000684681703D49018000BFA21D69460120D5
:10D76000A0DF0546002D01D02846F8BD31462046F1
:10D77000FFF714FF0546002D01D02846F5E7B068F5
:10D78000002808D031462046FFF77DFF0546002DD2
:10D7900001D02846E9E70020E7E7F0B58BB0044662
:10D7A0000F46208C2749884222D006AA39462046B7
:10D7B000FFF797FE06460596002001900290039021
:10D7C00004902189684681800121817100210181B5
:10D7D00005A8039006A80490208C01A9A6DF0546A1
:10D7E000002D04D16846808AB04200D00C2500E0AC
:10D7F000082528460BB0F0BD70B504460D464C20F8
:10D80000005B14280AD12622A118881E04F0F4FB1C
:10D810004C20005B401E81B24C2001534C20015B28
:10D82000005B401C82B24C20025349002046243049
:10D83000455270BD01464C20405A142808D10120A1
:10D8400070470000FFFF0000372A00000D1800009D
:10D850000020F5E70246108C0B4B984202D1517123
:10D86000002070470820FCE722221154704702462E
:10D870000020704702460A70FF200002104000128C
:10D880004870022070470000FFFF000008B501202B
:10D890000B230A2209210090082000F069F808BD36
:10D8A00070B504460D46E0B200F047F8204670BD62
:10D8B00070B505460E4608A004F048FC002404E0BC
:10D8C000295D06A004F042FC641CB442F8D302A017
:10D8D00004F03CFC70BD00000D0A000030782530DB
:10D8E0003258200000BF424880680128FBD1002048
:10D8F0003F4988603F488069C0B2704770B50446B0
:10D900000D4601260AE02046641E002804DB7D2027
:10D91000C000FEF79FFD01E0002603E03448806868
:10D920000128F0D100BF002C05DB002030498860C1
:10D93000304880692870304670BD2E49C86100BFEC
:10D940002B49C9690129FBD10021294AD1617047BE
:10D9500030B50346002528466D1C1C5C05E02046BA
:10D96000FFF7EBFF28466D1C1C5C002CF7D130BD87
:10D97000F8B507460C4615461E46204600F025F829
:10D980000021304600F02AF81A48C4604661069823
:10D9900000280DD0384600F018F80021284600F085
:10D9A0001DF8144805618760012012494031C862A2
:10D9B0001148104948620420086001200F4988601E
:10D9C000086000200A498860F8BD0321052212077B
:10D9D00007231B02D2188300D150704710B58A006C
:10D9E00005231B07072424021B1984001A5110BDAC
:10D9F000002100400025004000509D000020004014
:10DA00000246002112E0C800F94BC01880789378D4
:10DA100098420AD1C800F64B185A1388984204D18C
:10DA2000C800F34BC01840687047491CF1480068B3
:10DA30008142E8D30020F7E70246EE48006802285A
:10DA400015D2EC480068C000E94BC0181388038069
:10DA500053884380E7480068C000E54BC018416028
:10DA6000E4480068401CE34B186000207047042025
:10DA7000FCE710B5002409E038226243DE4BD018E1
:10DA800038226243D218516B8847641CD948006819
:10DA90008442F1D30020D949086010BDF8B504468E
:10DAA0000D466020005D2E21484307193846FFF7D8
:10DAB000A7FF0646002E2ED0D048006802282AD2A2
:10DAC0005C20015BCD48006838225043CA4A801868
:10DAD00041800121C948006838225043C64A115488
:10DAE000C648006838214843114640184560C3487D
:10DAF000006838214843114640184663BF48006813
:10DB0000401CBE49086008460068BA490968884256
:10DB100001D1FFF7AEFFF8BDF8B504460D46602011
:10DB2000005D2E21484307193846FFF769FF064676
:10DB3000002E3CD0B1480068022838D25C20015B3E
:10DB4000AE48006838225043AB4A80184180002D0F
:10DB500012D00021A948006838225043A64A115427
:10DB6000A649096838225143A34A8918081D2E2264
:10DB7000394604F041FA06E00221A0480068382244
:10DB800050439D4A11549D480068382148439A49A2
:10DB90004018466399480068401C98490860084648
:10DBA000006894490968884201D1FFF762FFF8BD17
:10DBB00070B5044692480068401C914908600846C8
:10DBC00000688C49096888422ED200215F200155E7
:10DBD0006020005D401CC1B260200155005D2E2117
:10DBE000484305196020005DC00081494018018844
:10DBF000298040886880002028715C20025B298889
:10DC0000804804F0A3FA5C21085B2A46012190DFDA
:10DC10000646002E07D000216120015531462046DE
:10DC2000FFF73CFF70BD02E000216120015500BFFD
:10DC3000F8E710B502460B896020805C2E24604313
:10DC40008018808D834201DA012010BD0020FCE79E
:10DC500070B50446002A16D10D896020005D2E267D
:10DC600070430019808D854201D1002070BD088964
:10DC7000401C18806020005D2E2568430019808DAF
:10DC800058800120F2E70889401CD588A84201D1BC
:10DC90000020EBE70889401C1880D088401E58807F
:10DCA0000120E3E738B504466020005D2E2148439B
:10DCB00005195F20005D002811D05F22125D521E01
:10DCC000D1B26022125D2E235A4315190C224A4309
:10DCD000AB1DD0180289521C6B461A8002E0688D79
:10DCE00069460880A88D694648805C21085B6946C2
:10DCF00092DF38BDF0B585B004460F460020019094
:10DD00006020005D2E21484305195F20005D0C2135
:10DD10004843A91D401802905F20005D401C2979EE
:10DD2000884207D103AB002220460299FFF790FFFB
:10DD3000019029E05F20065D21E02879401EB04275
:10DD400002D10020009005E0701C0C214843A91D61
:10DD50004018009003AB2046009A0299FFF778FF25
:10DD6000002802D0012001900CE0009802905F2072
:10DD7000005D401CC1B25F200155701CC6B22879FD
:10DD8000B042DADC00BF00BF0198002804D10120B6
:10DD90003870002005B0F0BD002038705C21085BB1
:10DDA00003A993DFF6E7F8B504460D466888002816
:10DDB0002AD16020005D2E21484307192E460836DF
:10DDC00071883980B0887880F2887A853189B98500
:10DDD0002046FFF767FF00900098002806D000213A
:10DDE0006120015520460099FFF758FE13E000001E
:10DDF000A829002060280020B82900205C280020E5
:10DE000064280020AC26020000212046FFF784FE93
:10DE10002046FFF7CDFEF8BDF3B587B005460020DC
:10DE200006906020405D2E214843441908984088A0
:10DE3000002857D10898083005902079049005985B
:10DE400000780390039904984018032804DC217992
:10DE500003980818207101E003202071049E00201F
:10DE6000029017E00A22029842430598801C11187C
:10DE70000C207043A21D83180A22184604F0BCF837
:10DE800000210C207043A21D80184181761C02984D
:10DE9000401C02902079B042E4D8701E0C21484307
:10DEA000A11D4018019028460199FFF7C2FE0028E5
:10DEB00002D02079032802D10120069011E02179B7
:10DEC0005F2041552846FFF7EDFE0746002F08D09A
:10DED00000216120415539462846FFF7DFFD09B092
:10DEE000F0BD01E0012006900698002823D0002113
:10DEF0005F20415505A92846FFF7FCFE0746002F85
:10DF000007D000216120415539462846FFF7C6FD5C
:10DF1000E5E76846007D00280CD05C20425B218844
:10DF2000924804F013F901212846FFF7F5FD284631
:10DF3000FFF73EFE00BF00BFD1E7FEB504460D4629
:10DF40006020005D2E21484307192E4608365F20C9
:10DF5000005D0C214843B91D4018029068880028D4
:10DF600016D100BF0FE006214143B21C8918498831
:10DF70007F4A914206D106214143B21C525A02996E
:10DF80004A8103E0401C31888142ECD800BF00BFC9
:10DF9000002001905F20005D401C3979884202D149
:10DFA0000120019016E05F20005D401CC1B25F209F
:10DFB000015501A92046FFF79DFE0090009800281A
:10DFC00007D000216120015520460099FFF766FD2A
:10DFD000FEBD00BF6846007900280CD05C20025BC3
:10DFE0003988644804F0B2F801212046FFF794FD17
:10DFF0002046FFF7DDFD00BFEAE700205E4908602C
:10E0000001205E49087000205D4908605D49086094
:10E0100070470020584908605849087058490860FE
:10E0200058490860704770B504460D46002C01D071
:10E03000002D01D10E2070BD50480078002801D17C
:10E040000820F8E74C480068022801D10620F2E7D2
:10E0500029462046FFF7F0FCEDE7F8B504460F46E9
:10E06000002C01D10E20F8BD44480078002801D1D1
:10E070000820F8E740480068002801D10820F2E7AE
:10E080006120005D002801D01120ECE700203C4910
:10E0900008603C4908600021602001555C2007535E
:10E0A0006020005D2E21484305196020005DC000FE
:10E0B0003549401801882980408868805C20025BCF
:10E0C0002988324804F042F85C21085B2A46012185
:10E0D00090DF0646002E01D03046C4E701216120C2
:10E0E00001550020BFE7F8B506460D4614463788AF
:10E0F000002D01D0002C00D1F8BD20480078002868
:10E1000000D1F9E7208830281DD004DC102807D082
:10E11000112827D10BE032281AD0332822D11CE055
:10E12000607B022802D1A1885C2041531BE0A088BB
:10E13000B84207D06221284603F085FF0021C94379
:10E140005C2041530FE0211D2846FFF72CFE0AE01A
:10E15000211D2846FFF760FE05E0211D2846FFF738
:10E16000ECFE00E000BF00BF00BFC5E75026020084
:10E1700002290000FC2602006028002068280020F8
:10E18000642800205C280020A8290020AC2602007A
:10E19000002314214143FC4A53541421414389185C
:10E1A0004B8001231421414389188B6000231421E3
:10E1B00041438918CB601421414389180B61142114
:10E1C000414389188B80704710B50020EF490880C3
:10E1D000EF490870EC49091F0870487088700024E6
:10E1E00003E02046FFF7D4FF641C0A2CF9D310BDCE
:10E1F000FFB583B004460F4615460326E448007871
:10E2000000280BD1002D06D10698002803D102204A
:10E21000DF49087002E00120DD490870DC48007821
:10E22000030003F0A3FF07FD05314E84BAD7FD00BC
:10E23000D8484069401C002808D001221207126902
:10E2400091B2D44A506903F0ADFE02E0012000070C
:10E250004069401E01210907096989B248430290BB
:10E260000120000700690004820C012000070069FA
:10E2700080B278430146029821DF0646002E02D183
:10E280000220C3490870D0E0384620DF0646002E41
:10E2900016D1002D11D1069800280AD12078042823
:10E2A00003D10720BA4908700AE00520B849087070
:10E2B00006E00420B649087002E00320B449087063
:10E2C000B3E0B4484069401C002808D0012212077E
:10E2D000126991B2AF4A506903F064FE02E0012076
:10E2E00000074069401E01210907096989B24843B6
:10E2F000012109070290096989B2794308462A4633
:10E30000029921DF0646002E10D1069800280AD176
:10E310002078042803D106209D49087006E00520D6
:10E320009B49087002E00420994908707DE09948F3
:10E330004069401C002808D001221207126991B2DE
:10E34000944A506903F02EFE02E001200007406964
:10E35000401E01210907096989B24843A9004018F4
:10E3600061884018012109070290096989B279433F
:10E37000AA00891862888818069A029921DF064641
:10E38000002E09D12078042803D106208049087086
:10E3900002E005207E49087047E00120000700697F
:10E3A00080B27843AB00C01802906088820821696F
:10E3B000029821DF0646002E0BD1002D06D10698CB
:10E3C000002803D107207249087002E00620704936
:10E3D00008702AE06F484069401C002808D00122DC
:10E3E0001207126991B26B4A506903F0DBFD02E03B
:10E3F000012000074069401E01210907096989B20F
:10E400004843019001200007006981B2019803F0A0
:10E41000C9FD029020DF0646002E04D1072000E04F
:10E4200002E05B49087000E000BF00BF304607B063
:10E43000F0BDF0B585B00F275348001F00781421B8
:10E44000484351494418E5682078022804D004283C
:10E4500023D005286FD16FE0206903904B480088D6
:10E4600086026088801B0490039880190390A0881E
:10E4700080194519012189020498884206D204981E
:10E4800082082846039921DF074605E0FF22013272
:10E490002846039921DF074681E0A06800013E4934
:10E4A000401800890490A06800014018408903903A
:10E4B000A06800014018406802900298A84205D167
:10E4C0000399049848436188884202D0A0680228D2
:10E4D0000DD101200007006981B2284603F062FDDA
:10E4E0002A4909884618304620DF074622E00120E5
:10E4F0000007006981B2284603F054FD064601205A
:10E500000007006980B27043281A8008019001203A
:10E510000007006980B2711C484361884919401A9C
:10E520008008009031462046009B019AFFF760FE6C
:10E53000074600BF33E031E001200007006981B2E7
:10E54000284603F02FFD0646A08841190120000748
:10E55000006980B27043081A80080490A0884019AE
:10E560006188421801200007006980B2711C48438D
:10E57000801A8008039031462046039B049AFFF7D7
:10E5800037FE07460BE000002C2A002074280020EC
:10E590007728002000100010F42A002000BF00BFE0
:10E5A000002F02D10120F9498870384605B0F0BD2E
:10E5B000FFB581B0064617460024F44840780A2883
:10E5C00037D0F2480078F14949784018C4B20A2C93
:10E5D00002DB20460A38C4B214206043EB49091D0F
:10E5E0000E54142060434018076114206043411802
:10E5F000029805C8CA60886014206043E34A121D6F
:10E600008018049941801420604380180A99818001
:10E610000025101F8078002805D1FFF70AFF054666
:10E62000112D00D10025D9484078401CD7494870A9
:10E6300000E00425284605B0F0BD10B50024D348FD
:10E640004078002807DDFFF7F4FE0446002C02D0D6
:10E65000112C00D10024204610BDF8B50446CB484B
:10E66000007814214843C949091D0E5C081F007831
:10E6700014214843C549091D401880680001C44958
:10E680000D58C248007814214843C049091D40185C
:10E690004088091F0090097814225143BB4A121D7B
:10E6A00089180B69111F097814225143B74A121DAA
:10E6B00089180846083022463146A847F8BDFEB5FD
:10E6C00005460026B148807801287DD10020AF4959
:10E6D0008870B0480078082811D1022D03D100209D
:10E6E000AC49087002E00020AB490870FFF7A5FFB5
:10E6F0000646002E02D03046FFF7AFFFFEBD022DCA
:10E7000002D0032D79D174E0A04800781421484349
:10E710009E49091D4418A1480088401C9F49088053
:10E720002078022807D10846008880026188884244
:10E7300001DB012000E0002007462078052805D1F4
:10E7400094480078072801D1012000E000200290C1
:10E750002078042805D18F480078072801D10120AE
:10E7600000E000200190207804280BD18B4800881D
:10E7700080026188884205DB86480078002801D144
:10E78000012000E0002000900298002807D10198A5
:10E79000002804D10098002801D1002F1FD00020AC
:10E7A0007C4908703046FFF758FF78490878FFF732
:10E7B000EFFC00207949088074484078401E734976
:10E7C00048700846007800E01AE0401C08700846CF
:10E7D00000780A2803DB084600780A380870FFF73B
:10E7E0002CFF0646002E02D03046FFF736FF05E02C
:10E7F00003E00D20FFF731FF00E000BF00BF00BFC6
:10E8000000BF7BE770B5FFF7DFFC0020644908809C
:10E8100064484069401C002808D001221207126990
:10E8200091B2604A506903F0BDFB02E0012000078D
:10E830004069801E01210907096989B248435A4984
:10E84000086000205549088000BF0DE0002102014A
:10E850004F4B99500201D21811810201D2189181B7
:10E860000201D2185181401C0028EFD008204949EC
:10E8700008704C484069401C002808D0012212074B
:10E88000126991B2474A506903F08CFB02E0012003
:10E8900000074069401E01210907096989B2484300
:10E8A000064601200007006981B2304603F07AFB7A
:10E8B000054620DF0446002C04D10120334988702E
:10E8C00035490870204670BDF8B504460D4600BFB6
:10E8D00031480078002801D10820F8BD00BF002C85
:10E8E00001D10E20F9E7002D01D10E20F5E72068B7
:10E8F000002801D10E20F0E7A0880121090709694D
:10E9000089B2884202DCA088102801DA0720E4E7F7
:10E91000E088002830D023484069401C002808D0F7
:10E9200001221207126991B21E4A506903F03AFBA4
:10E9300002E0012000074069401E01210907096922
:10E9400089B24843E188A2885143174A126889185E
:10E95000884211D3E088A188484301210907096949
:10E9600089B288420ADDA18801221207126990B299
:10E9700003F02EFB002901D00720AEE720798007A5
:10E98000800F002812D00720A7E70000282A0020C7
:10E99000F42A002077280020762800207428002000
:10E9A0006C2800200010001070280020FE4800880D
:10E9B000012801D1042090E7FB4800882860FB482B
:10E9C00000686860F84909880901F94A8918686887
:10E9D0004860F5490988090120685050A088F2492B
:10E9E0000988090189180881E088EF490988090127
:10E9F000891848810027A688E1884E4300BF781C0B
:10EA000087B201200007006980B2B04205D2012020
:10EA10000007006980B2361A00E0002601200007D6
:10EA2000006980B2E14909684018E04908600120A6
:10EA30000007006980B2B042E1D9DB4800880001DC
:10EA4000DB4940188781D8480088401CD649088097
:10EA5000002042E73CB5034600BFD64800780028B6
:10EA600001D108203CBD00BF002B01D10E20F9E7E9
:10EA7000002A01D10E20F5E71868002805D1186892
:10EA80000001CB4C2058002801D10720EAE75C6840
:10EA9000186801940090019C18680001C44D401949
:10EAA0000089484320180190009800012C46001965
:10EAB0004089009C2401641924896043009C24013E
:10EAC000641964680019019CA04201D80720C9E7B5
:10EAD000019C0098546010600020C3E7F8B504461C
:10EAE0000E4615461F4600BFB2480078002801D1E7
:10EAF0000820F8BD00BF002E01D10E20F9E7002C40
:10EB000001D10E20F5E72068002805D1206800011A
:10EB1000A7490858002801D10720EAE7206800012A
:10EB2000A3494018408921680901A14A8918098927
:10EB3000484321680901891849684018616888427A
:10EB400001D80720D5E7002D06D02068000198499C
:10EB500040180089A84201DA0720CAE7E8192168AD
:10EB60000901934A89180989884201DD0720C0E715
:10EB7000304600F05CF9002804D0384600F057F920
:10EB8000002801D11020B4E7606800F050F9002897
:10EB900001D11020ADE72B463246214602200097D6
:10EBA000FFF706FDA5E7F8B504460E4615461F46D5
:10EBB00000BF80480078002801D10820F8BD00BFC0
:10EBC000002E01D10E20F9E7002C01D10E20F5E72F
:10EBD0002068002805D120680001754908580028E0
:10EBE00001D10720EAE720680001714940184089F7
:10EBF000216809016E4A8918098948432168090179
:10EC00008918496840186168884201D80720D5E70B
:10EC1000002D06D020680001654940180089A842EF
:10EC200001DA0720CAE7E81921680901604A891852
:10EC30000989884201DD0720C0E7304600F0F7F877
:10EC4000002804D0384600F0F2F8002801D1102046
:10EC5000B4E7606800F0EBF8002801D11020ADE7C0
:10EC60002B463246214605200097FFF7A1FCA5E779
:10EC7000FFB581B00C4615461E4600BF4D480078D2
:10EC8000002802D1082005B0F0BD00BF002C01D142
:10EC90000E20F8E70198002801D10E20F3E7206844
:10ECA000002805D12068000141490858002801D1F9
:10ECB0000720E8E7206800013D49401840892168A5
:10ECC00009013B4A891809894843216809018918C3
:10ECD000496840186168884201D80720D3E7002DB1
:10ECE00006D020680001324940180089A84201DAA4
:10ECF0000720C8E7A819216809012D4A8918098940
:10ED0000884201DD0720BEE7019800F090F8002856
:10ED100004D0304600F08BF8002801D11020B2E773
:10ED2000606800F084F8002801D11020ABE760682B
:10ED300081192A46019803F05FF9009520680001C7
:10ED40001B490F58002203212046019BB847002091
:10ED500099E7F8B504460D4600BF1648007800282C
:10ED600001D10820F8BD00BF002C01D10E20F9E729
:10ED70002068002805D1206800010D4908580028A6
:10ED800001D10720EEE720680001094940184089B9
:10ED900021680901064A891809894843216809013F
:10EDA00089184968401807E06C2800207028002066
:10EDB000F42A0020762800206168884201D80720C4
:10EDC000D0E7606800F033F8002801D11020C9E7CF
:10EDD00023681B011A4FDB1962685B68D01A22682E
:10EDE00012013B46D218118903F0DCF8002901D04A
:10EDF0000720B7E700202B4602462146009004205A
:10EE0000FFF7D6FB06463046ACE7014600BF0D488B
:10EE10000078002801D10820704700BF002901D1E7
:10EE20000E20F9E70848407808600020F4E7014622
:10EE30008807800F002801D1012070470020FCE7DF
:10EE4000F42A002076280020282A002010B5044645
:10EE500001210C206043FB4A80188172891E0C201E
:10EE6000604380180181FF210C2060438018C1722B
:10EE70000C2161438818072103F0E5F810BD10B597
:10EE8000044618216143F04A8918084611300621CA
:10EE900003F0D9F818206043EB49401800210160C5
:10EEA00041608160C160FF2118206043E64A8018FC
:10EEB0000174182060438018C175204601F0E6FBFC
:10EEC0000020A100E14A505010BD70B503460C4629
:10EED0000820002115E00C254D43DA4EAD19AD7A1E
:10EEE0002540002D0CD0DA4DAB4205D00C254D430A
:10EEF000AD192D899D4202D11160002003E005204B
:10EF0000491C0029E7D000BF70BD7CB50546A9B2F9
:10EF10006A46D048FFF79EFD0446002C09D15C21CB
:10EF20006846FFF716FF0446002C02D12846FFF77B
:10EF3000A6FF20467CBDF8B505460E4605270024F1
:10EF40000FE018216143C04A891808461030072293
:10EF5000294603F08AF8002802D13460002702E035
:10EF6000641C072CEDD300BF3846F8BD10B504462D
:10EF7000002010BDFEB504460E46A1786A46B5488D
:10EF8000FFF768FD0546002D49D160780C21484304
:10EF9000AC494018807A40210840402801D0022E18
:10EFA00001D1AD4F04E0012E01D1AC4F00E0AC4FD8
:10EFB000A07818225043A44A8118002318226846DA
:10EFC000B8470546002D1AD1022E18D060780C21C2
:10EFD00048439C494018807A4021884361780C223C
:10EFE0005143984A8918887260781C2250439D4A80
:10EFF000811818231C226846B847054600BF022E18
:10F000000DD020780C21484397494018807A800021
:10F0100096490A58214668469047054600BFFEBDFE
:10F02000FEB507460C460620029061780C2251433B
:10F03000844A8918088902AA6946AADF0646002E72
:10F0400045D161780C225143894A8918081D6946C7
:10F050000A8903F00AF8002813D160780C2148438C
:10F0600078494018807A0221084002282FD0607821
:10F070000C2148437E4940180021016041608160B5
:10F0800025E060780C21484379490858002801D0D0
:10F09000714D00E0714D6946098960780C2250433A
:10F0A000734A115061780C225143714A8918081D26
:10F0B00069460A8902F0A0FF60780C2250436C4A2E
:10F0C000811834230C223846A847064600BF00208A
:10F0D000FEBD02460020704770B505460C466178BB
:10F0E0000C225143624A881834230C222946FFF728
:10F0F000BFFD0646002E0DD160780C2148435C49C7
:10F100000858401C002805D1002160780C2250438B
:10F11000574A1150304670BD024600207047F8B57E
:10F1200004460026002760780C21484350490858BF
:10F1300000281FD060780C21484342494018807A4B
:10F1400080210840802815D160780C2148433D4932
:10F150004018807A4021084040280BD060780C216C
:10F16000484343494018061D60780C2148434049F4
:10F17000085A87B261780C225143324A89180889AB
:10F180003A463146A9DF0546002D00D0394D2846C4
:10F19000F8BD01460020704770B5044622780C2364
:10F1A0005A43314BD218111D62780C235A43254B18
:10F1B000D21810897EDF0546002D29D120780C2138
:10F1C000484329494018407A0121084321780C22FC
:10F1D0005143254A8918487260780C2148431949DF
:10F1E0004018807A0421084361780C225143154A63
:10F1F0008918887260780C21484311464018807A3B
:10F200002021884361780C2251430E4A8918887264
:10F21000284670BD0146002902D116483338704790
:10F22000FF20087048708870C8700020F7E7FFB5AD
:10F230008FB01D4600BF0C48006800281CD113B0D9
:10F24000F0BD0000F02B0020202B0020042B00201C
:10F25000FFFF000078280020A7EB0100DDEA010095
:10F260006DEF0100C82B0020FC2B00201C260200A3
:10F27000E42B00204180000000BF18985C2801D9D1
:10F2800013B0F0BD012006900BA8FFF7C3FF0646A0
:10F2900000BF3746002F06D000BFF0A2FE49384617
:10F2A000FDF788F900BF00BF002108A801730174B1
:10F2B0000A9518980990002712E0B9B207AAF748F2
:10F2C000FFF7C8FB0646002E09D1082207A90F98B0
:10F2D00002F0CBFE002802D108A98F7302E07F1C48
:10F2E000072FEAD300BF08A8807BFF2878D01098AA
:10F2F00004280AD118985C2803D1202008A9087492
:10F3000099E0402008A9087495E0E549681A182199
:10F3100002F048FE0446072C1DD209A80D90119852
:10F32000002810D108A9887B01218140DD4A12689C
:10F330001140002901D0012100E00021002902D163
:10F340000020069077E008A9887B01F09FF9202033
:10F3500008A908746FE0D449681A1C2102F022FE43
:10F360000446002C1AD109A80D90202108A8017488
:10F37000447300200390CD4904911C206043CA4986
:10F380004018009008A8807B18214843C4494018C1
:10F39000019068460A90182009904CE0C449681A08
:10F3A0000C2102F0FFFD0446002C1AD1302108A8E0
:10F3B000017444730121C1730C206043BD4940189E
:10F3C000807A02210840022835D008A8407B0C2111
:10F3D0004843B749401800210160416081602AE03C
:10F3E0004DE000200690402008A90874B2488542EC
:10F3F00004D104201090012006901CE008A8807B16
:10F400008000AE490858A84215D10120069009A8ED
:10F410000D9000200CE008A98A7B0C214143A54BEC
:10F42000C918C97A8A4202D108AA507302E0401C66
:10F430000028F0D000BF0698012820D11098042899
:10F4400006D108A9087C0321084308A908740FE025
:10F450001098032806D108A9087C0121084308A9AF
:10F46000087405E008A9087C0221084308A908746B
:10F4700009A80D900CA90BA8119A01F04AF900BF38
:10F48000FEE67FB50646002E02D18D4804B070BD61
:10F4900000240FE000BF00210C206043894A115076
:10F4A0000C206043801841720C20604380188172E8
:10F4B00000BF641C002CEDD0002403E02046FFF7C1
:10F4C000C5FC641C002CF9D0794800210160416022
:10F4D0008160002403E02046FFF7D1FC641C072C68
:10F4E000F9D35C21684681810721C1817648029069
:10F4F0006A4902A8FFF7E8F90546002D30D101203E
:10F50000724908703078002821D100241CE0A1B293
:10F510006A466248FFF79EFA0546002D0FD1182172
:10F5200061435F4A8818002318226946FFF7A0FB51
:10F530000546002D07D000206449087006E0002031
:10F540006249087002E0641C072CE0D308E06A46B8
:10F550009089D289504381B25048FFF7FAFB0546A3
:10F56000284693E770B505460C4600BF574800781B
:10F57000002802D15248801F70BD00BF002D01D16C
:10F580004F48F9E7002C01D14D48F5E720680028E5
:10F5900001D14B48F0E74B48006800280FD149499A
:10F5A000206808600522611D4648001D02F024FD08
:10F5B00020794449887200202870002601E0404EDE
:10F5C0000A3E3046D8E7F8B5044600BF3F48007809
:10F5D000002802D13A48801FF8BD00BF002C01D19D
:10F5E0003748F9E700BF2078012806DA20780C2197
:10F5F000484334490858002802D13148801FEBE7BE
:10F6000000BF00BF6078012807DA60780C2148430A
:10F6100028494018807A012802D12948801CDBE75C
:10F6200000BF274DAD1F60780C2148432149401889
:10F63000807A02210840022860D1A078FF2807D1F3
:10F6400060780C2148431B494018C07AFF2856D0E7
:10F6500060780C2148431749401839E02E2E5C533E
:10F660006F757263655F733133305C626C655C64C7
:10F6700065766963655F6D616E616765725C64651F
:10F68000766963655F6D616E616765725F63656E04
:10F690007472616C2E6300005B0500007828002006
:10F6A000202B002080280020C82B0020082C0020C0
:10F6B000E42B0020F02B00204C260200042B00201D
:10F6C0000E800000FC2B00202FF201008428002077
:10F6D000C07AA07063781C267343FE4E9A19637833
:10F6E0001C267343FB4E9B191946123163780C2676
:10F6F0007343F94E9B19188981DF054641E0607814
:10F700000C225043F44A8118684600F0C7FF0546B2
:10F71000002D35D16846017860780C225043EE4ABE
:10F720008018C17268460078A07020780C21484388
:10F73000EA494018407AC007C00F00281CD0607802
:10F740000C21484311464018807A202108436178F3
:10F750000C225143E04A8918887220780C214843D2
:10F76000DE494018407A0221084321780C22514397
:10F77000DA4A8918487203E02046FFF70DFD054676
:10F7800000BF284628E7024600BFD5480078002879
:10F7900001D1D448704700BF002A02D1D148801D52
:10F7A000F8E7002902D1CF48801DF3E700BF1078A9
:10F7B000012806DA10780C235843C84B1858002843
:10F7C00001D1C848E6E700BF00BF5078012807DA3A
:10F7D00050780C235843C04BC018807A012802D1BE
:10F7E000C0480830D6E700BF50780C235843BA4BC6
:10F7F000C018807A04231840002809D150780C23BF
:10F800005843B54BC018807A20231840002802D0F6
:10F81000012008700EE050780C235843AE4BC018FE
:10F82000807A80231840002802D00220087001E06E
:10F83000002008700020ADE7F8B5044600BFA848D6
:10F840000078002801D1A748F8BD00BF002C02D1E4
:10F85000A448801DF8E7002902D1A248801DF3E7E3
:10F860000868002802D19F48801DEDE788680028BD
:10F8700002D19C48801DE7E700BF2078012806DA06
:10F8800020780C256843954D2858002801D19548CB
:10F89000DAE700BF002200230020009000BF45E00F
:10F8A0000025009500BF12E00C266E438A4FF61922
:10F8B000F67A86420AD10C266E43F619B67A0227EA
:10F8C0003E40022E02D10126009602E06D1C002D62
:10F8D000EAD000BF009D002D27D10D7B9D420FD99E
:10F8E00018254543804EAD19ED7DED07ED0F002D38
:10F8F00006D118254543AD199F008E68F5515B1C54
:10F900000D79954211D918254543774EAD19ED7DF6
:10F9100002263540002D08D118254543724EAD19F9
:10F92000103597000E68F551521C401C0728B7D3BC
:10F930000A710B73002087E702466A4888307047D7
:10F9400070B5044600BF66480078002801D16548BC
:10F9500070BD00BF002C02D16248801DF8E700BFD7
:10F960002078012806DA20780C2148435B490858A2
:10F97000002801D15B48EBE700BF00BFA078072853
:10F9800007DAA0781821484357494018C07DFF285E
:10F9900002D154480830DBE700BFA078FFF7B5FA82
:10F9A00005462846D4E770B5044600BF4C480078A9
:10F9B000002801D14B4870BD00BF002C02D149483E
:10F9C000801DF8E700BF2078012806DA20780C2196
:10F9D000484342490858002801D14248EBE700BF9C
:10F9E000002600250BE0182068433F494018C07DE1
:10F9F000FF2803D02846FFF788FA06466D1C072D1E
:10FA0000F1D33046D7E7FEB504460D4600BF344873
:10FA10000078002801D13348FEBD00BF002C02D180
:10FA20003048801DF8E7002D02D12E48801DF3E7F5
:10FA300000BF2078012806DA20780C2148432749A6
:10FA40000858002801D12748E6E700BF00BF6078CA
:10FA5000012807DA60780C2148431F494018807A52
:10FA6000012802D11F480830D6E700BF00BFA078A8
:10FA7000072807DAA078182148431B494018C07DA1
:10FA8000FF2802D117480830C6E700BFA868002841
:10FA900012D0686800280FD0686806280CD2287831
:10FAA000012809D163780C277B43104FDB19181DFF
:10FAB0006A68A96802F0A0FAA1786A460C48FEF7C5
:10FAC000C9FF0646287880000A490A582146684638
:10FAD000904711E0C82B0020F02B0020FC2B0020C9
:10FAE0008428002008800000202B0020E42B002028
:10FAF000782800201C260200064630468CE77CB59C
:10FB000004460D4600BFFD480078002801D1FC489E
:10FB10007CBD00BF002C02D1F948801DF8E7002D04
:10FB200002D1F748801DF3E700BF2078012806DAEC
:10FB300020780C214843F3490858002801D1F048A7
:10FB4000E6E700BF00BFA078072807DAA0781821F1
:10FB50004843ED494018C07DFF2802D1E8480830ED
:10FB6000D6E700BF60780C214843E8494018807A06
:10FB700002210840022802D0E1488930C8E7A8687D
:10FB8000002812D1686806280FD2287801280CD1E5
:10FB900060780C214843DE494018001DA860607859
:10FBA0000C214843DA4908586860A1786A46D94868
:10FBB000FEF750FF064628788000D7490A582146AC
:10FBC0006846904706463046A2E7014600BFCB484C
:10FBD0000078002801D1CA48704700BF002902D12F
:10FBE000C748801DF8E700BF0878012806DA0878C2
:10FBF0000C225043C34A1058002801D1C048EBE7FB
:10FC000000BF00BF8878072807DA88781822504399
:10FC1000BD4A8018C07DFF2802D1B9480830DBE713
:10FC200000BFB7488830D7E7FEB504460D4600BF91
:10FC3000B2480078002801D1B148FEBD00BF002CB9
:10FC400002D1AF48801DF8E7002D02D1AC48801DDD
:10FC5000F3E76868002802D1A948801DEDE700BFDE
:10FC60002078012806DA20780C214843A549085855
:10FC7000002801D1A248E0E700BF00BFA078072814
:10FC800007DAA078182148439F494018C07DFF2813
:10FC900002D19B480830D0E700BF2868042801D271
:10FCA0000720CAE79D4FA1786A469A48FEF7D2FE20
:10FCB0000646002E23D144230422694602A8FEF7FB
:10FCC000D7FF0646002E04D10298401C002800D021
:10FCD000934F4423042229466846B8470646002E1F
:10FCE0000DD14823142268466968FEF75CFF06467A
:10FCF000002E04D1A17889008A4A686850503046A5
:10FD00009BE7FEB504460D4600BF7C4800780028FE
:10FD100001D17B48FEBD00BF002C02D17848801D78
:10FD2000F8E7002D02D17648801DF3E700BF207868
:10FD3000012806DA20780C21484372490858002827
:10FD400001D16F48E6E700BF00BFA078072807DAB7
:10FD5000A078182148436C494018C07DFF2802D183
:10FD600067480830D6E700BF6868002805D1A0784A
:10FD700080006C490858686004E0A1788900694AED
:10FD800068685050A1786A466248FEF763FE0646EE
:10FD9000002E1AD144230422694602A8FEF768FF08
:10FDA0000646002E0FD10298401C00280BD0482395
:10FDB000142269466868FEF75BFF0646002E04D1F0
:10FDC0000298286001E04E4E38363046A2E73EB534
:10FDD000044600BF49480078002801D148483EBD8C
:10FDE00000BF002C02D14648801DF8E700BF2078F4
:10FDF000012806DA20780C21484342490858002897
:10FE000001D13F48EBE700BF00BFA078072807DA21
:10FE1000A078182148433C494018C07DFF2802D1F2
:10FE200037480830DBE700BFA1786A463948FEF75B
:10FE300011FE0546002D17D144230422694602A86D
:10FE4000FEF716FF05460298401C00280CD04423FC
:10FE5000042235496846FEF7A6FE0546002D03D16B
:10FE6000A17889002F4A50502846B8E7024600BFC3
:10FE700022480078002801D12148704700BF00299E
:10FE800002D11F48801DF8E7002A02D11C48801DBE
:10FE9000F3E700BF1078012806DA10780C235843E6
:10FEA000184B1858002801D11548E6E700BF107814
:10FEB00008700020E1E770B504460D4600BF0F480A
:10FEC0000078002801D10E4870BD00BF002C02D17F
:10FED0000B48801DF8E7002D02D10948801DF3E78B
:10FEE00000BF2078012806DA20780C214843054914
:10FEF000085800281AD10248E6E7000084280020AC
:10FF000008800000FC2B0020202B0020F02B00207C
:10FF1000E42B0020782800202C260200DDEA0100D6
:10FF2000A7EB0100042B00204C26020000BF00BFFD
:10FF3000A078072807DAA07818214843FB49401821
:10FF4000C07DFF2801D1FA48BEE700BF6078FF28D6
:10FF50001CD12878022819D0A17818225143F34ADD
:10FF60008918084610300722294602F045F8A07883
:10FF700001218140EF4A12681143EE4A116000BF2F
:10FF800002212046FEF7F6FF002601E0E84E093E7A
:10FF9000304699E770B504460E4600BFE648007843
:10FFA000002802D1E248083870BD00BF002C02D101
:10FFB000DF48801EF8E7002E02D1DD48801EF3E7FF
:10FFC00000BF2078012806DA20780C214843DB495D
:10FFD0000858002802D1D6480838E5E700BFD44DBC
:10FFE0000B3DA078FF2817D16078FF282AD06078D1
:10FFF0000C214843D2494018807A02210840022847
:020000040002F8
:1000000020D160780C225043CD4A81180722304617
:1000100001F0F2FF002515E0A07818214843C349FC
:100020004018C07D0221084000280BD1A07818227A
:100030005043BE4A8018014610310722304601F075
:10004000DBFF00252846AFE770B58AB005460C46B1
:1000500000BFB9480078002803D1B54808380AB075
:1000600070BD00BF002D02D1B148801EF7E7002C03
:1000700002D1AF48801EF2E700BF2878012806DAD7
:1000800028780C214843AD490858002802D1A848D7
:100090000838E4E700BF00BFA878072807DAA87887
:1000A00018214843A1494018C07DFF2801D1A0482C
:1000B000D5E700BF00BF0020E060A2492161002118
:1000C0006161A87818214843984940186060002071
:1000D000A060A97801AA9C48FEF7BCFC0646002E49
:1000E00017D118231C2201A903A8FEF7C1FD06465B
:1000F000002E0ED1E0609349216100216161A87852
:10010000182148438949401860600020A06003A876
:1001100020603046A3E7F3B591B00C4600260020DE
:100120000E9011980088089000BF8348007800283E
:1001300001D113B0F0BD00BF00BF804800680028A7
:1001400000D1F6E700BF0DA8FFF764F8054600BF31
:100150002F46002F06D000BF7C4A7D493846FCF769
:1001600029FA00BF00BF002009900025201D0B9038
:100170002A2168460186FF2108A8817500210175A2
:10018000002010902088102813D0A08810AA0221E7
:10019000FEF79BFE0546002D0BD10C21109848431D
:1001A00067494018C17A08A881751098C1B208A89B
:1001B0004175208817287DD006DC10280BD0112827
:1001C00079D0132878D1F4E0182876D01C2875D07F
:1001D0005228F7D103E2607B02287BD110AF3A4668
:1001E00001215C48FEF771FE01900198002807D1BB
:1001F00002210C2238685043514A8018817201E074
:100200000420019001980546002D63D1012611219B
:1002100008A801721098C1B208A84175A1880C22E3
:1002200010985043464A8018018102210C221098F0
:100230005043434A801881720C2210995143404A1E
:1002400088180722A11D01F0D7FE0FA9A01DFEF7F7
:1002500072FE0546002D3DD10F98C1B20C221098B8
:100260005043374A8018C1720C21109848431146F8
:100270004018807A082108430C2210995143304AD3
:100280008918887208A90F9888750F9881B26A46F4
:100290002D48FEF7DFFB0546002D1AD11C221099D0
:1002A00051432D4A881818231C226946FEF7E0FCAA
:1002B000224805E0B0E00EE09FE12BE198E109E083
:1002C000807A800025490A580DA96846904705465E
:1002D00000BF00BF92E1A1880898814268D00C213C
:1002E0001098484316494018807A022188430C220E
:1002F00010995143124A891888720C21109848436A
:1003000011464018807A08210840082828D10C217D
:100310001098484311464018807A80210840802870
:1003200029D100210DA8FEF725FE24E0202B002076
:10033000108000008028002084280020FC2B002052
:10034000F02B0020082C0020782800205CF601000B
:100350008A090000FFFF0000C82B00202C260200A5
:1003600008A8807DFF2806D008A9887DFEF787FDB4
:10037000FF2008A988750C2110984843FC494018B3
:10038000807A04210840042807D101200E90F94802
:10039000407A40084000F749487210210C2210981A
:1003A0005043F34A801881720126122008A908726E
:1003B00024E1002600200590EF49069100210791D5
:1003C0001C2110984843ED49401802900C211098C8
:1003D0004843E7494018C07A18214843E849401883
:1003E000039000200490A08802AB002211467FDF1A
:1003F0000546002D01D009950DE00C2110984843C9
:10040000DB494018807A042108430C22109951439B
:10041000D74A89188872F1E0D648407A40084000EF
:10042000D44948720C2110984843D1494018807A29
:10043000042188430C2210995143CD4A89188872AF
:10044000142008A90872012601200E90A079002826
:1004500002D0A07909905CE0E0794007C00F002845
:1004600057D008A8807DFF2853D00C21109848430E
:10047000BF494018807A082108430C221099514343
:10048000BB4A89188872A07A8007C00F00280DD057
:10049000182110984843BA494018C07D41084900C6
:1004A000182210985043B64A8018C1750C21109834
:1004B0004843AF494018C07AFF282AD00C21109831
:1004C0004843AB49085C02281FD00C23109A5A43BA
:1004D0000B46D11808AA927D18235A43A84BD2186C
:1004E00010461030072201F087FD08A8807D1821F2
:1004F0004843A3494018C07D0221884308A9897D4B
:10050000182251439E4A8918C87501210DA8FEF78B
:1005100031FD73E0A079000901283FD1A0790007DF
:10052000000F01283AD10C211098484390494018F7
:10053000807A08210840082830D10C2210995143B4
:10054000904A8918081D062101F07DFD162008A992
:10055000087201200E900C211098484384494018DD
:10056000807A202108430C2210995143804A89182F
:1005700088720C211098484311464018807A402117
:1005800008430C2210995143794A89188872794896
:10059000407A02210843774948721CE00C211098E8
:1005A000484373494018807A802108430C221099EF
:1005B00051436F4A89188872152008A908726D483E
:1005C000807A8000704A11580DA888470546002D92
:1005D00001D06E4809900020099001260EE0654880
:1005E000807A8000684A11580DA88847099005E074
:1005F000132008A90872012600E000BF00BF002EEA
:1006000016D00AA90DA8099A00F083F808A8007A64
:1006100012280DD100BF0C211098484354494018AE
:10062000807A012802D01098FEF710FC00BF00BFAE
:100630000E98002828D04F48407A0221084002280E
:1006400022D106AA20215248FEF73FFC0546002D84
:1006500013D10021684601770698C1B268464177F8
:100660000C210698484342494018C17A6846817770
:1006700007A8FEF791FD054605E03E48407A0221B5
:1006800088433C49487200BF00BF52E501218140C8
:10069000404A12688A433F490A607047F8B50546E8
:1006A0000E463A4FBF1C00242EE018206043344908
:1006B0004018C07DFF2826D13078022814D0182099
:1006C00060434018C07D02218843182161432C4AB1
:1006D0008918C87518216143891808461030072207
:1006E000314601F089FC0BE0182060432449401892
:1006F000C07D4108490018206043214A8018C17517
:100700002C70002702E0641C072CCED300BF3846B3
:10071000F8BDF8B504460D46164616480768324639
:1007200029462046B847F8BD02460020704770B5FC
:1007300005460E4631462846FEF772FC0446002C5C
:1007400002D100BF00BF0446204670BD0246002013
:10075000704770B505460E4631462846FEF7BCFC8C
:100760000446002C02D100BF00BF0446204670BDE5
:10077000F02B0020FC2B0020082C0020C82B002090
:10078000202B0020E42B00203C26020041800000AA
:10079000FFFF00008028002001460020704770B550
:1007A00005462846FEF7BBFC0446002C02D100BFDC
:1007B00000BF0446204670BDF0B502460C4600203E
:1007C00037E001238340194623460B40002B2FD0EE
:1007D000D5680D40002D05D101235B04D5680D437C
:1007E000D56004E003231B04D5688D43D56005253F
:1007F0002D0707263602AD198600AD5903263604AB
:10080000B5430526360707273F02F6198700F5513D
:1008100005252D0707263602AD198600AD591D4363
:100820000526360707273F02F6198700F55100BF56
:10083000401C2028C5D3F0BDF0B585B0EF48056950
:100840000020EF49C86300263FE014207043ED49C3
:10085000096844180120B040EB49096808400028A5
:1008600031D0E068C04368402168084007463946F7
:100870002046FFF7A1FFE148006968400390039814
:1008800000280ED003980543E068C0436840216803
:100890000840009020460099FFF78EFF009807431C
:1008A00000BFA068A84338400190606828403840E5
:1008B0000290019902980843002803D02269019907
:1008C0000298904700BF701CC6B2D048007886429C
:1008D000BBDB05B0F0BD10B50146002029E01422B5
:1008E0004A43C84B1B689A58012383401A40002A88
:1008F0001ED00522120707231B02D2188300D258EC
:1009000003231B049A4305231B07072424021B19F6
:1009100084001A510522120707231B02D2188300F4
:10092000D25805231B07072424021B1984001A51DF
:10093000401C2028D3D310BD70B505460C46002CB2
:1009400001D1072070BD20468107890F002901D100
:10095000012100E00021002901D10720F2E7A94888
:100960000460AB4805700020A8490870A6490860DB
:10097000A7480078142250430146A248006801F0BD
:1009800062FB0020C043A34988600620012181400A
:10099000A14A116000BF012100F0F9F806200121F1
:1009A00081409E4A116000BF0020CBE7F8B50446A5
:1009B0000D4616461F4693480068002801D10820BE
:1009C000F8BD002F01D10720FAE790480078904940
:1009D0000978884201DB0420F2E7284630438B493E
:1009E000097814225143874A12685050874800788A
:1009F00014214843834909684018456083480078BA
:100A0000142148437F490968401886607F48007870
:100A1000142148437B490968401807617B480078E6
:100A200020707A480078401C784908702078FFF7D9
:100A300052FF0020C4E7F0B5024672480068002863
:100A400001D10820F0BD71480078824201DB072007
:100A5000F8E700206A4BD863684804696A48006870
:100A6000002802D158066B4B586001209040664B1D
:100A70001B681843644B1860002314205043614DD9
:100A80002D684019C360002142E001238B401846C5
:100A9000142353435B4D2D68EB580340002B36D095
:100AA00025460540002D02D003231B040EE0012340
:100AB0005B0414255543534E3668AD19ED68054364
:100AC000142656434F4F3F68F619F56005252D074C
:100AD00007263602AD198E00AD5903263604B543FC
:100AE0000526360707273F02F6198F00F551052521
:100AF0002D0707263602AD198E00AD591D43052678
:100B0000360707273F02F6198F00F55100BF491C31
:100B10002029BAD3002095E710B50446394800686B
:100B2000002801D1082010BD38480078844201DB3C
:100B30000720F8E72046FFF7CEFE0120A04032490B
:100B400009688143304801600068002803D1012012
:100B5000C007304988600020E5E710B50246294803
:100B60000068002801D1082010BD28480078824282
:100B700001DB0720F8E714205043224C24680319B6
:100B80001E4800691C68204008600020ECE710B592
:100B9000002819DA224A03071B0F083B9B089B0019
:100BA000D2588307DC0EFF23A3409A438B071B0E0A
:100BB0008407E40EA3401A43194B0407240F083C92
:100BC000A408A4001A5118E0144A03231B02D218E7
:100BD00083089B00D2588307DC0EFF23A3409A436F
:100BE0008B071B0E8407E40EA3401A430B4B032410
:100BF00024021B198408A4001A5110BD00050050DE
:100C00004061004090280020882800208D28002086
:100C10008C2800200063004080E200E000E100E05A
:100C20001CED00E010B5002819DAFB4A03071B0F82
:100C3000083B9B089B00D2588307DC0EFF23A34090
:100C40009A438B071B0E8407E40EA3401A43F24B12
:100C50000407240F083CA408A4001A5118E0EF4A26
:100C600003231B02D21883089B00D2588307DC0E93
:100C7000FF23A3409A438B071B0E8407E40EA34077
:100C80001A43E64B032424021B198408A4001A51BA
:100C900010BD10B50446E248846003211120FFF71F
:100CA000C1FF10BD10B501200004DE494860DD49D8
:100CB00040394860112000F0F5FC112000F0E4FC00
:100CC0000120D94908602F20FBF7D4FB0120D74928
:100CD000087010BD10B5112001218140CF4A80322B
:100CE000116000BF01200004CE498860CD49403921
:100CF00088600120CC4948602F20FBF7BBFB012016
:100D0000C94988600020CA4908602F20FBF7B2FB60
:100D10000020C649087010BDF0B50246242050439B
:100D2000C44B1B68C118C4480068401C002802D18D
:100D3000C148026059E0C0484B6800682424604301
:100D4000BC4C246800194068834217D8BA48006830
:100D500024235843B74B1B68C01840684B68C31A1C
:100D6000B548006824246043B24C246800194360ED
:100D7000B14800680862B048026036E04B68AE4D8A
:100D80002C6828680DE024254543AA4E3668AD1925
:100D90006D685B1B044624254543A64E3668AD1995
:100DA000286A451C002D07D024254543A14E3668EE
:100DB000AD196D689D42E6D3451C002D0CD024254D
:100DC00045439C4E3668AD196D68EE1A242545439F
:100DD000984F3F68ED196E604B60086224256543AB
:100DE000944E3668AD192A6200BFF0BDF8B50646CC
:100DF000914805682C4609E0B44200D109E0254637
:100E0000242060438B4909684018046A601C00284C
:100E1000F2D100BF601C002800D1F8BDA54210D15E
:100E20008548006824214843824909684018006ABF
:100E30008149086008460068401C002801D1FFF77E
:100E400049FF242060437B490968401847682420F3
:100E50006043784909684018016A24206843754A4C
:100E6000126880180162242068437249096840189A
:100E7000046A601C00280CD0242060436D49096876
:100E800040184068C119242060436A4A12688018DB
:100E9000416000BFC1E710B5112000F0FCFB10BDA0
:100EA00010B5142000F0F7FB10BD70B50446634880
:100EB0000068002813D0614AE169A0691268904770
:100EC000054600BF2E46002E07D000BF5CA2FF21C2
:100ED00064313046FBF76EFB00BF00BF02E0A16942
:100EE000E069884770BDF8B553480068401C002889
:100EF0003AD0002700F008FC04464D48016820461F
:100F000000F005FC06464C48056811E024206843C3
:100F10004849096844186068B04200D90BE060682D
:100F2000361A6068C719256A2046FFF7BEFF00BF62
:100F3000681C0028EAD100BF4D4800784D49097867
:100F4000884209D14B480078401CC0B2494908701A
:100F5000022801D1002008704648007880004649E8
:100F60000F50FFF79DFF00BFF8BD014640480078D5
:100F7000404A127890421DD03D480078401C3C4ABF
:100F8000107010460078022801D1002010703848F7
:100F900000788000384A10580860254A08681268AE
:100FA0008018234A1060104600680002000A106092
:100FB000012070470020086000BFFAE7FEB51E4818
:100FC000006801902D480078009076E00098C000FD
:100FD0002B490968441825786BE01820684361683C
:100FE0000F18681CC5B2A078A84200D10025387837
:100FF000022802D0032859D144E0242178684843CC
:101000000C4909684618307D002804D07868FFF73D
:10101000EDFE002030754AE01CED00E000E100E04C
:10102000001501404013014000100140BC28002081
:10103000A828002098280020A4280020B8280020F4
:101040002E2E5C2E2E5C2E2E5C2E2E5C2E2E5C53B5
:101050006F757263655C6170705F636F6D6D6F6EED
:101060005C6170705F74696D65722E6300000000D2
:10107000B4280020B5280020AC2800209C2800209F
:10108000A02800200CE0F849096824225143F74ABF
:101090001268881800210175F34A016A116000BFC7
:1010A000F1480068401C0028EDD100E000BF00BFFF
:1010B00000BF6078A84290D100BF0098411EC9B21D
:1010C0000091002882D1E84801680198814201D04E
:1010D0000120FEBD0020FCE7F0B50346002426E019
:1010E000E14E366824277E43E04F3F68F01946689A
:1010F0009E4203D94668F61A46601DE046689B1B6F
:1011000046683419002646600675D74E3568D64FB6
:10111000066A3E600669002E08D00E193602360AAD
:1011200086600669C66016680662156000BFCE4814
:101130000068401C0028D3D100BFF0BDFEB50746B3
:10114000C94800680290CA48007801906BE0019895
:10115000C000C849096845185DE0781C002807D020
:101160003E4624207043C14909684418276A23E099
:101170002978182359436A6850182978491C29701E
:101180002978AA78914201D100212970466824214A
:101190007143B64A12688C180178012902D1217D69
:1011A000002900D037E08168A160C168E160016971
:1011B00021614169E16100BFAF49A0680968401A37
:1011C0000002000AAD49884208D2AB49A06809680C
:1011D00000F09DFAE1684018606011E0A648A1683F
:1011E000006800F094FA0090E1680098814204D908
:1011F000E1680098081A606001E00020606000BFAC
:101200000020A060E06001202075801E2062304632
:10121000FFF782FD00BF781C00289ED128786978EE
:1012200088429AD100BF0198411EC9B2019100289D
:101230008DD18D4801680298814201D00120FEBD08
:101240000020FCE7FEB588480068401C002834D028
:101250008548006824214843844909684018456846
:1012600000F052FA0190844804682146019800F089
:101270004EFAC61C82480078002801D1FFF712FD03
:10128000AE4201D2284600E0304604192402240A66
:1012900020467C49086000BF00F036FA00900199B2
:1012A000009800F034FAC71C2046019900F02FFA8C
:1012B000874201D9FFF7EFFD01E0FFF70BFDFEBD0F
:1012C000FEB50020C04301906B480468664807687B
:1012D0006846FFF74AFE0546FFF770FE0646002DFA
:1012E00005D001AA21460098FFF7F6FE01260198D5
:1012F000FFF724FF002800D00126002E02D0384638
:10130000FFF7A0FFFEBD4170704770B502460B4667
:101310005078411C9078884200D100211078884292
:1013200001D1002070BD19605078182670435568AF
:101330002C182046F6E7FFB581B005460E46174645
:10134000E9004C4A126888186946FFF7DEFF044638
:10135000002C02D1042005B0F0BD01202070666091
:1013600000F0D2F9A060E760049820610A986061FB
:10137000E900404A126888180099FFF7C4FFFFF798
:101380008FFD0020E7E7F8B504460E46E100394A34
:10139000126888186946FFF7B8FF0546002D01D18D
:1013A0000420F8BD022028706E60E100314A126806
:1013B00088180099FFF7A7FFFFF772FD0020F0E7FC
:1013C00038B50446E1002B4A126888186946FFF7D1
:1013D0009CFF0546002D01D1042038BD0320287054
:1013E000001F6860E100234A126888180099FFF71F
:1013F0008AFFFFF755FD0020EFE710B500202249D6
:1014000008600021204841608160C16000201E49C1
:10141000403908604860FFF766FD10BD10B5FFF762
:101420004FFF10BDFFB581B00E4617461C46204643
:101430008107890F002901D1012100E00021002945
:1014400002D1072005B0F0BD002C01D10720F9E73B
:10145000FFF740FC0D490A9808600D4806700348E4
:101460000460002523E00000A42800209828002024
:101470009C280020A0280020A8280020FFFF7F0033
:10148000BC2800204015014040110140B828002030
:10149000942800200021242068439F4A1268115498
:1014A000242068439C4A1268801801756D1CB5425F
:1014B000F0DB2420704304190320984908709848F1
:1014C0000460183400250CE0E900954A1268881879
:1014D00000210170417087704460182179430C1914
:1014E0006D1C032DF0DB0020C0438E4908600020F6
:1014F0008D4908708D490870142000F0D3F803213D
:101500001420FFF78FFB142000F0BEF80198FFF7BE
:10151000C0FB00F0F9F886490860002092E770B53A
:1015200003460C467C480068002801D1082070BDA5
:10153000002A01D10720FAE7002B01D10720F6E7A6
:1015400000211CE024204843734D2D68285C0028AE
:1015500014D10125242048436F4E36683554242089
:1015600048436D4D2D6840194470242048436A4D0E
:101570002D684019826119600020D8E7491C6D4828
:1015800000788142DEDB0420D1E710B500F092F84C
:10159000012802D0032804D101E0002403E0012443
:1015A00001E0022400BF00BF204610BDFEB5044686
:1015B0000D46164658480068002801D10820FEBD97
:1015C0005C480078844201D2052D01D20720F6E75D
:1015D0002420604350490968085C012801D0082094
:1015E000EDE7242060434C49096840184078012801
:1015F00001D1284600E000200746FFF7C6FF3B4622
:101600002A46214600960190FFF795FED7E770B570
:10161000044641480068002801D1082070BD4548B3
:101620000078844201D30720F8E7242060433A4938
:101630000968085C012801D00820EFE7FFF7A5FF43
:1016400005462146FFF79FFEE8E710B532480068DF
:10165000002801D1082010BDFFF797FF0446FFF7CF
:10166000AFFEF8E710B5044600F04EF82060002009
:1016700010BD70B505460E4614463146284600F0AA
:1016800046F82060002070BDC206D20E01219140B4
:10169000294A11607047C206D20E01219140274AA3
:1016A00011607047C206D20E01219140234A803258
:1016B0001160704710B522484068C105C90D002966
:1016C00020D00A46103A50B200280DDA1C4B1C33C9
:1016D0000407240F083CA408A4001B598407E40E47
:1016E000E3401B069B0F0BE0134B032424021B1942
:1016F0008408A4001B598407E40EE3401B069B0FDB
:10170000D8B210BD0420FCE70E484068704702467E
:10171000501A0002000A7047982800209C280020D8
:10172000A0280020A4280020B4280020B5280020EC
:10173000A82800209428002000E100E000E200E05A
:1017400000ED00E00015014070B506460C46154658
:1017500029462046FAF743FF70BDF8B55A4800788D
:10176000002800D1F8BD59480068002801D10120A7
:1017700000E00020054656480068002801D10120FD
:1017800000E00020064600BF002D14D1684651DF5E
:101790000446052C01D101250CE0002C06D000BF29
:1017A0004CA269212046FAF705FF03E0474900985B
:1017B0000968884700BF002E1AD15448008800905D
:1017C00069465348006860DF0446052C01D10126B4
:1017D0000DE0002C06D000BF3EA280212046FAF783
:1017E000E9FE04E04A48006839490968884700BFB3
:1017F000002D02D0002E00D000E0C5E700BF00BFE2
:10180000B0E7FFB581B00C4616461F46002C02D14A
:10181000072005B0F0BD20468107890F002901D1BE
:10182000012100E00021002901D10720F1E738481B
:10183000046036480680374807603749019810DF52
:101840000546002D01D02846E3E701201E49087017
:10185000162026DFDDE710B511DF0446002C01D08D
:10186000012000E0002018490870204610BD014604
:10187000002901D10E207047154801600020FAE7C9
:101880000146002901D10E20704710480160002058
:10189000FAE770B51F480068002811D01D4800689D
:1018A0008047044600BF2546002D07D000BF09A28F
:1018B000FF2133312846FAF77DFE00BF00BF01E06B
:1018C000FFF74BFF70BD0000CA280020D028002081
:1018D000CC2800202E2E5C2E2E5C2E2E5C2E2E5C14
:1018E0002E2E5C536F757263655C73645F636F6DFE
:1018F0006D6F6E5C736F66746465766963655F684F
:10190000616E646C65722E6300000000C8280020C0
:10191000C4280020C028002049170200F7B584B071
:1019200004460F4606980678B01C1F2803DC607832
:10193000801C1F2802DD0C2007B0F0BD1F20801B7B
:10194000801E85B20295B11C781802A97DDF039034
:101950000398002801D00398EEE72078022808D1E8
:1019600068460089A84204DC092001906846058980
:101970000BE0082001906078002804D06078A8422D
:1019800001DC657801E068460589681CC2B2304612
:10199000711CCEB23A543046721CD6B201993954F9
:1019A00006980178A81C0818C1B20698017000209A
:1019B000C2E7F8B505460C462078001D1F2801DD5A
:1019C0000C20F8BD684679DF0646002E01D030466F
:1019D000F7E703212278501C2070A954192122789E
:1019E000501C2070A954207841196846008800F0E6
:1019F0008AFA2178401820700020E2E7F8B5054601
:101A00000F4616461C466868002801D10720F8BD1D
:101A10002078801C298840181F2801DD0C20F6E75B
:101A20002878401CC1B22278501C2070B154217813
:101A3000481C207077542A8823789819696800F028
:101A4000DBFA20782978401820700020DFE730B5D5
:101A500003461078C01C1F2801DD0C2030BD022475
:101A60001578681C10704C550A241578681C107085
:101A70004C551578681C10704B550020EEE7FFB5EB
:101A800087B006461D46109C0020069020780590E1
:101A9000002747E0B900706841180A88684602814B
:101AA00049884181002203A902A864DF04900498B8
:101AB000002802D004980BB0F0BD6846017B09985D
:101AC00081422ED10698002801D0002000E002209B
:101AD000019020786946097B4118019808181F2851
:101AE00001DD0C20E7E70698002809D12078401C8A
:101AF00020702278511C08982170A854012006906B
:101B00002078421903A902A864DF049004980028F1
:101B100001D00498CFE720786946097B40182070EF
:101B200000BF7F1C3088B842B4DC0698002806D07D
:101B300021780598401C081AC1B205982954002044
:101B4000B9E7FFB581B0074615460A9E0096022206
:101B50003846049B0299FFF792FF0446002C02D0FE
:101B6000204605B0F0BD0096102229463846049B59
:101B7000FFF785FF0446002C01D02046F1E7002046
:101B8000EFE701460888062808DB08881922D201F9
:101B9000904205DD0888E04A904201D00720704756
:101BA0004888062808DB48881922D201904205DDC2
:101BB0004888D94A904201D00720F0E70888D64AE1
:101BC000904208D04888904205D008884A889042C0
:101BD00001DD0720E3E70020E1E7F8B506460D4602
:101BE00014462078801D1F2801D90C20F8BD3046EE
:101BF000FFF7C7FF0746002F01D03846F6E705215B
:101C00002278501C2070A95412212278501C207078
:101C1000A95422785119308800F075F921784018BC
:101C2000207022785119708800F06DF921784018E1
:101C300020700020DAE7F8B505460E4614462879EC
:101C4000801CC7B22078801CC0191F2801DD0C2021
:101C5000F8BD781CC1B22278501C2070B154FF210D
:101C60002278501C2070B15422789119288800F0F5
:101C70004AF9217840182070A88800280EDDA8684D
:101C8000002801D10720E3E7AA8823789819A968DA
:101C900000F0B2F920782979401820700020D7E7A9
:101CA000FEB507460E461446386B002801D10720C2
:101CB000FEBD0020019032E0396B0C2201985043A8
:101CC0000D182879801CC0B200900098401CC1B249
:101CD0002278501C2070B15416212278501C20709C
:101CE000B15422789119288800F00DF92178401814
:101CF0002070A88800280EDDA868002801D10720E0
:101D0000D6E7AA8823789819A96800F075F9207891
:101D10002979401820700198401CC0B201903420ED
:101D2000C15D01988142C7DC0020C1E7F8B50446D7
:101D30000F4616460025002030702078002809D074
:101D4000324639462046FFF7E9FD0546002D01D011
:101D50002846F8BDA078002808D031463846FFF75D
:101D600028FE0546002D01D02846F2E7A08800286D
:101D70000ADD33463A460121201DFFF73FFE0546A6
:101D8000002D01D02846E4E7E06800280BD00020B1
:101D9000E168085632463946FFF759FE0546002DE0
:101DA00001D02846D5E7208A00280CDD3B460622D4
:101DB0000221204610300096FFF7C3FE0546002D95
:101DC00001D02846C5E7208B00280CDD3B460722C2
:101DD0000321204618300096FFF7B3FE0546002D7C
:101DE00001D02846B5E7208C00280CDD3B461522A3
:101DF0001421204620300096FFF7A3FE0546002D53
:101E000001D02846A5E7A06A002809D03246394605
:101E1000A06AFFF7E2FE0546002D01D0284698E7AC
