:020000040001F9
:10C000003039002095C40100AFC40100B1C4010063
:10C010000000000000000000000000000000000020
:10C02000000000000000000000000000B3C4010098
:10C030000000000000000000B5C40100B7C401000A
:10C04000B9C40100B9C40100B9C40100B9C40100F8
:10C05000B9C4010000000000891F0200B9C401003A
:10C06000B9C40100B9C40100B9C40100B9C40100D8
:10C07000B9C40100B9C40100B9C40100B9C40100C8
:10C08000B9C401004B2B0200B9C40100B9C40100BE
:10C090006D2B0200B9C40100E32F0200B9C40100F6
:10C0A000B9C40100B9C40100000000000000000094
:10C0B0000000000000000000000000000000000080
:10C0C0000000000000000000000000000000000070
:10C0D0000000000000000000000000000000000060
:10C0E0000000000000000000000000000000000050
:10C440000348854607F0B4FB0048004765DC01005F
:10C4500030390020401E00BF00BF00BF00BF00BF3A
:10C4600000BF00BF00BF00BF00BF00BF00BFF1D1D1
:10C4700070470000401E00BF00BF00BF00BF00BFEC
:10C4800000BF00BF00BF00BF00BF00BF00BFF1D1B1
:10C49000704700000321094802680A430260084807
:10C4A00002680A4302600748804707480047FEE7E2
:10C4B000FEE7FEE7FEE7FEE7FEE70000240500409A
:10C4C0005405004071C5010041C4010032483349A0
:10C4D000086070473248008CC0B2012812D1304841
:10C4E000808C0007000F00280CD12D48806AF021B5
:10C4F0000840402806D12A48C06A0840002801D1D7
:10C50000012070470020FCE72548008CC0B20128BC
:10C510002CD12348808C0007000F002826D120480A
:10C52000806AF0210840002806D11D48C06A0840F2
:10C53000002801D1012070471948806AF021084085
:10C54000102806D11648C06A0840002801D10120F1
:10C55000F1E71348806AF0210840302806D11048DE
:10C56000C06A0840002801D10120E4E70020E2E78A
:10C5700010B5FFF7C9FF002805D00A480A494860EE
:10C58000C8130A498861FFF7A5FF002802D00120DF
:10C590000749886010BD00000024F4000028002036
:10C5A000C00F00F0DFFF07C000050040006C004036
:10C5B0000006004070B505460C4616462B4622463E
:10C5C0003146EDA007F044FB122001F0A2FB00E091
:10C5D00000BF002CFCD170BD70B504460D462A4644
:10C5E0002146EF48FFF7E6FF70BD70B596B001A891
:10C5F00003F0B3FF044600BF2646002E06D000BF5E
:10C60000E8A2EB493046FFF7D5FF00BF00BF019815
:10C61000002804D00120E749087016B070BD082139
:10C6200010A80173002101750AA8129002A81490A5
:10C6300012A9E14804F0A8FC044600BF2646002EDB
:10C6400007D000BFD7A2DA4910313046FFF7B2FF5A
:10C6500000BF00BF10A8007B002803D110A8007DF8
:10C66000002803D0D5480078012813D0D44800789A
:10C6700040084000D24908700846007802218843EB
:10C68000CF490870A02008815020488100204860D0
:10C69000888117E0CA48007840084000C8490870FF
:10C6A0000846007802218843801CC5490870A020F4
:10C6B00008815020488112A848601E2088810120EE
:10C6C000BE490870BE4886DF04462146BDA007F07B
:10C6D000BFFA00BF2646002E07D000BFB1A2B44962
:10C6E0002D313046FFF766FF00BF00BF0125002D4A
:10C6F00002D1BEA007F0ACFA0120C3490870122095
:10C7000001F007FB00BF88E7F7B584B01546059830
:10C71000007815287CD008DC11280DD012284FD0C5
:10C7200013287AD0142875D193E0212873D02228B9
:10C7300072D02328F7D1D3E0B4A007F089FA059886
:10C740004068861CB079717932790092019102902B
:10C75000F378B2787178B54807F07AFA132001F0CF
:10C76000D8FA0127002F02D1A0A007F071FA042205
:10C77000AF48049907F0A6F9059840680188AD48CC
:10C7800003F013F8044600BF0394039C002C07D069
:10C7900000BF84A2FF214D310398FFF70BFF00BFBC
:10C7A00000BFA5480078401CA349087008460078DF
:10C7B000012801DAFFF719FFA0A007F049FAA4E069
:10C7C000A6A007F045FA62219A4807F0A2F90127CE
:10C7D000002F02D1AAA007F03BFA0127002F02D1B7
:10C7E000AEA007F035FA132001F098FA92480078CD
:10C7F000012804D1FFF7F9FEB0A007F029FA8E480E
:10C800000078401E8C490870B9A007F021FA7CE03E
:10C8100037E002E078E03BE04EE004984178BDA0CC
:10C8200007F016FA824804F076FA044600BF26465E
:10C83000002E07D000BF5BA2FF2179313046FFF701
:10C84000B9FE00BF00BF04984178BDA007F000FA10
:10C850005BE0C6A007F0FCF9CF4801F09FFB04465F
:10C8600000BF2646002E07D000BF4EA2FF21823116
:10C870003046FFF79FFE00BF00BFC8A007F0E8F9F1
:10C8800043E0D1A007F0E4F9D8A007F0E1F93CE0DB
:10C89000DFA007F0DDF900BF2E46002E07D000BF55
:10C8A00040A2FF218E313046FFF784FE00BF00BF5B
:10C8B000E0A007F0CDF928E0E9A007F0C9F900BF32
:10C8C0002E46002E07D000BF36A2FF2194313046FD
:10C8D000FFF770FE00BF00BFECA007F0B9F914E04D
:10C8E000F5A007F0B5F900BF2E46002E07D000BF17
:10C8F0002CA2FF219A313046FFF75CFE00BF00BF3B
:10C90000F8A007F0A5F900E000BF00BF002007B0C5
:10C91000F0BDF0B505460B4600211C680EE0665CD4
:10C92000481C275CAF4206D1881C20181060701E7E
:10C9300090800020F0BD701C091800BF98888842C4
:10C94000EDD80520F6E770B5F14873DF044600BF67
:10C950002546002D07D000BF12A2FF21D031284666
:10C96000FFF728FE00BF00BF0020EA49087013202F
:10C9700001F0CFF970BD00005B4150504C5D3A2092
:10C980004153534552543A2025732C2025642C20C2
:10C990006572726F72203078253038780D0A000089
:10C9A000EFBEADDE2E2E5C6D61696E2E6300000061
:10C9B000B10300003D280020362800203C2800203C
:10C9C000702A00205B4150504C5D3A205363616EE9
:10C9D000207374617274206572726F7220636F6469
:10C9E000653A2030782578200D0A00005B415050D0
:10C9F0004C5D3A204C43442057726974652066614F
:10CA0000696C6564210D0A00352800205B41505097
:10CA10004C5D3A203E3E20444D5F4556545F434FA7
:10CA20004E4E454354494F4E0D0A00009C410200B2
:10CA300037280020F42900203B2800205B4150507B
:10CA40004C5D3A203C3C20444D5F4556545F434F7B
:10CA50004E4E454354494F4E0D0A00005B41505025
:10CA60004C5D3A203E3E20444D5F4556545F44495C
:10CA700053434F4E4E454354494F4E0D0A0000005C
:10CA80005B4150504C5D3A204C434420436C6561FF
:10CA900072206661696C6564210D0A005B4150502B
:10CAA0004C5D3A5B345D3A204C43442057726974C4
:10CAB00065206661696C6564210D0A005B41505018
:10CAC0004C5D3A203C3C20444D5F4556545F444900
:10CAD00053434F4E4E454354494F4E3A2073636182
:10CAE0006E20737461727465643F0D0A000000006B
:10CAF0005B4150504C5D3A203C3C20444D5F4556D4
:10CB0000545F444953434F4E4E454354494F4E0D95
:10CB10000A0000005B4150504C5D3A5B3078253094
:10CB200032585D203E3E20444D5F4556545F53458C
:10CB30004355524954595F53455455500D0A00000E
:10CB40005B4150504C5D3A5B3078253032585D2067
:10CB50003C3C20444D5F4556545F53454355524934
:10CB600054595F53455455500D0A00005B415050D5
:10CB70004C5D3A203E3E20444D5F4556545F534540
:10CB80004355524954595F53455455505F434F4D97
:10CB9000504C4554450D0A00582A00205B41505026
:10CBA0004C5D3A203C3C20444D5F4556545F534514
:10CBB0004355524954595F53455455505F434F4D67
:10CBC000504C4554450D0A005B4150504C5D3A2095
:10CBD0003E3E20444D5F4C494E4B5F5345435552BA
:10CBE00045445F494E440D0A000000005B4150502F
:10CBF0004C5D3A203C3C20444D5F4C494E4B5F53CA
:10CC00004543555245445F494E440D0A000000001B
:10CC10005B4150504C5D3A203E3E20444D5F4556AE
:10CC2000545F4C494E4B5F534543555245440D0AA2
:10CC3000000000005B4150504C5D3A203C3C2044D9
:10CC40004D5F4556545F4445564943455F434F4EFB
:10CC5000544558545F4C4F414445440D0A00000070
:10CC60005B4150504C5D3A203E3E20444D5F45565E
:10CC7000545F4445564943455F434F4E54455854CD
:10CC80005F53544F5245440D0A0000005B41505021
:10CC90004C5D3A203C3C20444D5F4556545F444532
:10CCA000564943455F434F4E544558545F53544F84
:10CCB0005245440D0A0000005B4150504C5D3A2043
:10CCC0003E3E20444D5F4556545F444556494345DA
:10CCD0005F434F4E544558545F44454C455445447A
:10CCE0000D0A00005B4150504C5D3A203C3C204412
:10CCF0004D5F4556545F4445564943455F434F4E4B
:10CD0000544558545F44454C455445440D0A000071
:10CD10004829002034280020F0B585B00646351D8E
:10CD2000308819286ED006DC10280BD011286AD064
:10CD3000132869D179E01B2811D01D2874D05228FE
:10CD4000F7D1A7E0707B012808D1132000F0E1FFA4
:10CD5000132000F0E3FFB088FB490880C2E02846BA
:10CD60000B300390A87AC0086946088201AA03A97B
:10CD70000220FFF7CEFD0446002C05D001AA03A92E
:10CD80000320FFF7C6FD0446002C4CD1002741E0EC
:10CD900000BF790001984018407800900098000288
:10CDA000009079000198405C00990843009000BF12
:10CDB000E6A0009906F04CFFE8490098884228D187
:10CDC0000D2171563120C043814221DB87DF0446AB
:10CDD000002C03D02146E2A006F03AFF0020EA49E9
:10CDE0000870122000F09AFFE8480078022188437A
:10CDF000E6490870E64AA81C88DF0446002C07D0E4
:10CE0000214602E019E059E06BE0E2A006F020FFC5
:10CE100007E07F1C69460889C10F09184910B9420B
:10CE2000B6D800BF00BF5DE023E00023E54A194605
:10CE3000C54800887FDF044600BF2888C2490988AA
:10CE4000884215D0A87802280CD1DFA006F000FF98
:10CE5000E448007801280BD10220E2490870FFF76E
:10CE6000C4FB05E0A878032802D1DFA006F0F0FE9D
:10CE700038E02888A91C75DF044600BF2746002F2C
:10CE800006D000BFE24AE3493846FFF793FB00BFF4
:10CE900000BF27E000221146AB480088A9DF044606
:10CEA00000BF2746002F07D000BFD94AD949491DE6
:10CEB0003846FFF77FFB00BF00BF13E02888A24978
:10CEC000098888420CD10020C0439F490880132064
:10CED00000F024FFD0A006F0BBFE0120DB49087063
:10CEE00000E000BF00BF05B0F0BD10B50446022C45
:10CEF00002D0032C0BD100E000BFD54800780028F9
:10CF000004D00020D2490870FFF76FFB00E000BF9B
:10CF100000BF10BD10B5044621468B4804F0A3FCA9
:10CF20002246CC49884802F086FC2146CA4800F0D7
:10CF3000E0FF2146C94801F0A6F92246C8498248C7
:10CF400001F04BFE2246C7497F4801F088FA21468E
:10CF50007D4806F0B2FC2046FFF7DEFE10BD10B59E
:10CF60000446204602F053FF2046FFF7BEFF10BDE7
:10CF700070B500BF00234822BB49082005F0E9FF37
:10CF8000054600BF2E46002E07D000BFA04AA1498B
:10CF90005A313046FFF70EFB00BF00BF00BFB34859
:10CFA00006F00DF8044600BF2546002D07D000BF4F
:10CFB000974A984965312846FFF7FCFA00BF00BF41
:10CFC000AB4806F005F8044600BF2546002D07D003
:10CFD00000BF8F4A8F4969312846FFF7EBFA00BF3F
:10CFE00000BF70BD7FB502F0B5FF044600BF254607
:10CFF000002D07D000BF864A864979312846FFF7C1
:10D00000D9FA00BF00BF11209A490969C140C90778
:10D01000C90F002901D1012000E0002000906846DE
:10D0200003F0D7FD044600BF2546002D07D000BF02
:10D03000774A784980312846FFF7BCFA00BF00BF25
:10D04000052102A8013006F064FD8B480190022101
:10D0500068460172407A4108490068464172407A48
:10D0600002218843014668464172407A1C21884368
:10D0700001460C3168464172407A20218843694656
:10D080004872072101A881711021C171007A4008FE
:10D090004000401C01A9087201A8007A02218843BF
:10D0A000801C01A90872754803F004FE044600BF05
:10D0B0002546002D07D000BF554A564996312846CF
:10D0C000FFF778FA00BF00BF7FBD10B5122000F057
:10D0D00017FE132000F014FE122000F011FE1320A2
:10D0E00000F00EFE132000F00BFE10BD30B5112035
:10D0F00003210A4613048C00234305242407072533
:10D100002D0264198500635100BF30BD704770B5B2
:10D1100040DF044600BF2546002D07D000BF3C4A33
:10D120003C49CD312846FFF745FA00BF00BF70BD2E
:10D13000F3B585B00E463078012802D0022801D11F
:10D14000CEE09DE0E4E0000004280020095B4150AF
:10D15000504C5D3A2025780D0A0000000D180000A3
:10D160005B4150504C5D3A205363616E2073746F85
:10D1700070206661696C65642C20726561736F6EE6
:10D180002025640D0A00000035280020702A0020A8
:10D19000544102005B4150504C5D3A20436F6E6E2B
:10D1A000656374696F6E205265717565737420468E
:10D1B00061696C65642C20726561736F6E202564F3
:10D1C0000D0A0000062800205B4150504C5D3A20BB
:10D1D0005363616E2074696D6564206F75742E0DE4
:10D1E0000A0000003C2800205B4150504C5D3A2072
:10D1F000436F6E6E656374696F6E205265717565FD
:10D2000073742074696D6564206F75742E0D0A0047
:10D21000A4C901004D0200005B4150504C5D3A2012
:10D22000424C455F4741505F4556545F4449534324
:10D230004F4E4E45435445443A20646973636F6EC4
:10D240006E65637465640D0A0000000034280020D8
:10D250003D280020F4290020582A0020642A0020BC
:10D26000742900205C290020802A002015CF0100AD
:10D270005FCF01000005005009C7010036280020DB
:10D28000FE4803F048FD054600BF2F46002F06D09C
:10D2900000BFFB4AFB493846FFF78CF900BF00BFCF
:10D2A000059800F07BFE054600BF2F46002F07D0F3
:10D2B00000BFF34AF349091D3846FFF77BF900BF69
:10D2C00000BF012400BF2746002F07D100BFEC4A52
:10D2D000EC49C91D0020FFF76DF900BF00BF18E041
:10D2E0007188E9A006F0B4FC7288F1A101A806F0EB
:10D2F000BFFC012400BF2746002F07D100BFE04A32
:10D30000E04913310020FFF755F900BF00BF00E0EE
:10D3100000BF00BF07B0F0BDF3B585B00C46207864
:10D32000002804D001282ED002285CD143E0E4A0DC
:10D3300006F08EFCECA006F08BFC059800F0E3FFF5
:10D34000064600BF3746002F07D000BFCC4ACD4964
:10D350002C313846FFF72EF900BF00BFEBA006F0D6
:10D3600077FC059800F0C3FF064600BF3746002F44
:10D3700007D000BFC24AC34931313846FFF71AF916
:10D3800000BF00BF30E06178ECA006F061FC62787D
:10D39000F4A101A806F06CFC012500BF2F46002F68
:10D3A00007D100BFB64A6D21C9000020FFF702F97E
:10D3B00000BF00BF18E06178EEA006F049FC62787B
:10D3C000E8A101A806F054FC012500BF2F46002F5C
:10D3D00007D100BFAA4AAB494B310020FFF7EAF85A
:10D3E00000BF00BF00E000BF00BF07B0F0BD38B510
:10D3F000EA4800906946EA4800F059FD044600BF3B
:10D400002546002D07D000BF9D4A7121C90028463E
:10D41000FFF7D0F800BF00BF38BD38B5E148009035
:10D420006946E14800F0F6FE044600BF2546002D9F
:10D4300007D000BF924A93496C312846FFF7BAF8EB
:10D4400000BF00BF38BD70B502F07FF9044600BFD1
:10D450002546002D07D000BF894A1D2149012846D5
:10D46000FFF7A8F800BF00BF70BD704710B50446B5
:10D47000FFF7FBFF10BD10B50446CC480068401C08
:10D48000CA4908600321C948006806F0F1FA00297A
:10D4900001D0012000E00020C549087010BD70B522
:10D4A0000546C3480078002809D0C249C24806F0A2
:10D4B000BAFA84B22146C14801F046FD00BF70BDF2
:10D4C00010B50446BE48007801214840BC490870A8
:10D4D00008460178B94801F06FFD10BDF8B500BFEE
:10D4E0000020B84B05221146009005F043FB05468D
:10D4F00000BF2E46002E06D000BF614AB24930461A
:10D50000FFF758F800BF00BF00BFB04A0121B04884
:10D5100005F0ADFB044600BF2546002D07D000BF37
:10D52000574A472109012846FFF744F800BF00BFCA
:10D53000A84A0121A84805F09AFB044600BF2546E9
:10D54000002D07D000BF4E4A9F490B312846FFF7F8
:10D5500031F800BF00BFA14A0121A14805F087FBB7
:10D56000044600BF2546002D07D000BF444A964917
:10D5700010312846FFF71EF800BF00BF994A01216D
:10D58000994805F074FB044600BF2546002D07D0DE
:10D5900000BF3B4A8C4915312846FFF70BF800BF06
:10D5A00000BFF8BD3EB500BF68460078010909011B
:10D5B000491C009168460078F021884310300090A3
:10D5C00000BF042289A168467CDF044600BF2546CF
:10D5D000002D07D000BF2A4A7B4928312846FEF794
:10D5E000E9FF00BF00BF2748173078DF044600BFBF
:10D5F0002546002D07D000BF214A73492B3128460C
:10D60000FEF7D8FF00BF00BF002001900290FF216D
:10D610009131684681804900C18000210181FF214C
:10D620009131418101A87ADF044600BF2546002DD3
:10D6300007D000BF124A644935312846FEF7BAFFC9
:10D6400000BF00BF3EBD30B593B006210491694ACA
:10D6500007CA01AB07C3382105A806F05AFA022110
:10D660006846017501218175018304A90791032191
:10D67000818501A90C91002105A8BDE03728002073
:10D68000A4C901002A0300005B4150504C5D3A20C0
:10D690004852204D6561737572656D656E742072B8
:10D6A00065636569766564202564200D0A000000C5
:10D6B0004865617274205261746520256400000021
:10D6C0005B4150504C5D3A20426174746572792020
:10D6D0005365727669636520646973636F766572FA
:10D6E00065642E200D0A00005B4150504C5D3A20CD
:10D6F00052656164696E6720626174746572792035
:10D700006C6576656C2E200D0A0000005B41505060
:10D710004C5D3A20456E61626C696E6720426174AF
:10D7200074657279204C6576656C204E6F746966FD
:10D7300069636174696F6E2E200D0A005B41505061
:10D740004C5D3A2042617474657279204C6576654F
:10D750006C207265636569766564202564202525E3
:10D760000D0A0000426174746572792025642025D9
:10D77000250000005B4150504C5D3A2042617474BA
:10D78000657279204C6576656C2052656164206114
:10D79000732025642025250D0A00000031D10100E9
:10D7A000582A002019D30100642A002040280020B4
:10D7B0000B280020E42900201C28002074290020C8
:10D7C00044280020C82A00206A0400006DD401000B
:10D7D0002428002077D40100282800209FD40100AD
:10D7E0002C280020C1D401003028002053313330D0
:10D7F000000000005C41020005F0F0FE044600BF9E
:10D800002546002D06D000BFFD4AFE492846FEF7FA
:10D81000D1FE00BF00BF1421FB4806F07AF90020BA
:10D82000F949087048600872282008820020488260
:10D8300013B030BD30B59BB003210091142116A860
:10D8400006F067F900201690012110A801776846BC
:10D85000189000BF18A8007901090901491C18A8EF
:10D8600001710079F0218843103018A9087100BFB8
:10D8700000BF16A8407B0009000116A9487316A82E
:10D88000407BF021884316A9487300BF00BF16A84B
:10D89000807B00090001887316A8807BF0218843F3
:10D8A00016A9887300BF00BF18A8C0790109090133
:10D8B000491C18A8C171C079F0218843103018A9FB
:10D8C000C87100BF00BF16A8007C0009000116A99E
:10D8D000087416A8007CF021884316A9087400BFBC
:10D8E000CA4801F0CCFA044600BF2546002D07D0F7
:10D8F00000BFC34AC3492B312846FEF75BFE00BF79
:10D9000000BF142111A806F004F900BF10A8407C44
:10D9100001090901491C10A84174407CF021884389
:10D92000103010A9487400BF00BF11A8807B000907
:10D930000001401C11A9887311A8807BF021884345
:10D94000103011A9887300BF00BF11A8C07B000967
:10D950000001401CC87311A8C07BF021884310301F
:10D9600011A9C87300BF00BF10A8007D01090901FB
:10D97000491C10A80175007DF0218843103010A9C2
:10D98000087500BF00201190012110A8017200202D
:10D990001390642110A8017411A99D4800F070FE35
:10D9A000044600BF2546002D07D000BF944A954984
:10D9B0003E312846FEF7FEFD00BF00BF402101A812
:10D9C00006F0A7F893A101A805F0FAFF00BF10A880
:10D9D000007801090901491C10A801700078F021A4
:10D9E0008843103010A9087000BF00BF10A840780D
:10D9F00000090001487010A84078F021884310A960
:10DA0000487000BF01A800F0A5FF044600BF2546EE
:10DA1000002D07D000BF7A4AA121C9002846FEF791
:10DA2000C9FD00BF00BF1BB030BD10B551207E49FD
:10DA30000860642048600120886008737B4805F016
:10DA4000E5FF8C207A490860FF202D3048600A20CD
:10DA5000886000200873774805F0D8FF6420764975
:10DA60000860FF20F53048600120886000200873BE
:10DA7000724805F0CBFF10BD10B5044600BF604AE8
:10DA800060496C312046FEF795FD00BF10BD70B5B2
:10DA900005462878002811D13B216948008876DFA7
:10DAA000044600BF2646002E07D000BF544A554901
:10DAB00080313046FEF77EFD00BF00BF70BD30B53F
:10DAC00087B01C21684606F024F80020009005204D
:10DAD000C003019002900321684601734B4881897D
:10DAE0006846C18100210174564805905648069049
:10DAF000684605F00EFE044600BF2546002D07D0FF
:10DB000000BF3F4A3F4998312846FEF753FD00BF0A
:10DB100000BF07B030BD4D48007840084000401CB1
:10DB20004A4908700846007802218843474908702E
:10DB3000084600781C2188430C3044490870084688
:10DB40000078202188434149087007204870102040
:10DB50008870704770B50022012109043C480068B4
:10DB600005F0CCF8044600BF2546002D07D000BFC5
:10DB7000234A2449B0312846FEF71CFD00BF00BFF0
:10DB800000220121C9033348006805F0B7F80446B4
:10DB900000BF2546002D07D000BF194A1949B331EF
:10DBA0002846FEF707FD00BF00BF00222A492B4888
:10DBB000006805F0A3F8044600BF2546002D07D0F5
:10DBC00000BF0F4A0F49B6312846FEF7F3FC00BFED
:10DBD00000BF00220521C9032148006805F08EF826
:10DBE000044600BF2546002D07D000BF044AAF21E0
:10DBF000C9002846FEF7DEFC00BF00BF70BD000074
:10DC0000A4C90100BF040000482900207429002095
:10DC10005C2900204E6F7264696353656D69636FA0
:10DC20006E647563746F7200C42900200C28002094
:10DC3000D429002014280020E42900201C280020DA
:10DC4000042800208FDA010079DA0100062800207C
:10DC50002428002028280020662600002C280020E8
:10DC60003028002001F0BAF9FFF72FFAFFF73EFA4B
:10DC7000FFF74CFAFFF77CF9FFF7B4F9FFF7E3FB86
:10DC8000FFF7B5FBFFF7C9FBFFF728FCFFF78AFC9E
:10DC9000FFF7D9FCFFF7CEFDFFF7C7FEFFF70FFF39
:10DCA000FFF739FFFFF756FFFEF74DFEFEF79DFC2D
:10DCB00000201D49087000BFFFF729FA1A480078B4
:10DCC0000128F9D119480078012810D187DF0446CE
:10DCD00000BF2546002D06D000BF154A154928462D
:10DCE000FEF768FC00BF00BF122000F017F8FEF737
:10DCF0002AFE0E4800780128DED1FEF776FCDBE72D
:10DD000003210522120707231B02D2188300D150DA
:10DD1000704701218140084A91607047012181408C
:10DD2000054AD160704700003428002035280020C3
:10DD3000A4C90100A50500000005005010B59D48CC
:10DD400000689D49096888423DD09A4800681421BE
:10DD500048439A4940188078002810D1954A1268A3
:10DD600014235A430B46D2189188924A12681423FE
:10DD70005A43924B985A002295DF04460FE08D4A91
:10DD8000126814235A438D4BD21811460831894A20
:10DD9000126814235A43894B985A97DF0446002C83
:10DDA0000DD187A005F054FF82480068401C8149CE
:10DDB0000860084600784007400F086002E08C4881
:10DDC00005F046FF00BF10BD70B504460D46FFF7D5
:10DDD000B5FF70BDF8B505460C46A089A9888842F4
:10DDE00021D100260220694608703146761C204663
:10DDF0001230405C3040002807D13146761C204666
:10DE00001230405C6946488008E02146123188198A
:10DE100001784278120211436846418069462846DB
:10DE2000AA68904700BFF8BD38B50446207800289E
:10DE30003CD1A0886F49884238D1A079012835D1DA
:10DE400060886D490968088000251EE00C2029467D
:10DE5000414320460A30405A6849884214D10C2078
:10DE60002946414320460A3008184089624909681A
:10DE700048800C202946414320460A300818008972
:10DE80005D490968888003E06D1C207AA842DDD8CE
:10DE900000BF5BA005F0DCFE012069460870564813
:10DEA0000068826854480068904700BF38BD38B5A4
:10DEB00004460D46002C01D0002D01D10E2038BDA6
:10DEC0000121684681704B4901804B4804604A49F2
:10DED0002868096888600020C043474909680880AD
:10DEE00000204549096848805249684601F043FCD2
:10DEF000E5E770B505460C46002D01D0002C00D199
:10DF000070BD2088102804D037280DD0382810D1B3
:10DF100005E0607B022801D1A08828800AE0214624
:10DF20002846FFF757FF05E021462846FFF74CFF3C
:10DF300000E000BF00BF00BFE2E7F7B506461546A8
:10DF400032463D48019905F083FE2F461A48006885
:10DF500019490968491C184A116014214843174996
:10DF60004418104600784007400F11460860019998
:10DF700061810221E181211D21610021A181012115
:10DF800021722771FF200002384001126171268042
:10DF90000120A070FFF7D2FE0020FEBD10B50446A0
:10DFA000002C01D10E2010BD618820880122FFF7CE
:10DFB000C4FFF8E7502800204C280020582D0020EE
:10DFC0005B4852535F435D3A20534420526561647D
:10DFD0002F577269746520415049207265747572BB
:10DFE0006E7320537563636573732E2E0D0A0000E4
:10DFF000E04102000D18000048280020372A0000E8
:10E000005B4852535F435D3A204865617274205209
:10E010006174652053657276696365206469736312
:10E020006F766572656420617420706565722E0D6F
:10E030000A00000029DE01003C42020010B5C04881
:10E040000068C049096888423DD0BD480068142175
:10E050004843BD4940188078002810D1B84A12685A
:10E0600014235A430B46D2189188B54A12681423D8
:10E070005A43B54B985A002295DF04460FE0B04A48
:10E08000126814235A43B04BD21811460831AC4AD7
:10E09000126814235A43AC4B985A97DF0446002C5D
:10E0A0000DD1AAA005F0D4FDA5480068401CA449E4
:10E0B0000860084600784007400F086002E0AF485B
:10E0C00005F0C6FD00BF10BD70B504460D46FFF754
:10E0D000B5FF70BDF8B504460D462E460C363088A7
:10E0E000A188884209D1022168460170B179417046
:10E0F00069462046A268904700BFFFF79FFFF8BD22
:10E1000038B504460D46A889A188884209D1012165
:10E1100068460170A97C417069462046A268904714
:10E1200000BF38BD38B50446207800283DD1A0880E
:10E130009349884239D1A079012836D16088914924
:10E140000968088000251FE00C202946414320462D
:10E150000A30405A8C49884214D10C202946414348
:10E1600020460A30081840898649096848800C20F2
:10E170002946414320460A30081800898149096828
:10E18000888004E0681CC5B2207AA842DCDC00BFAD
:10E190007EA005F05DFD00206946087079480068A2
:10E1A000826878480068904702E084A005F050FD3E
:10E1B00038BDF7B50646154632468E48019905F03A
:10E1C00047FD2F465F4800685E490968491C5D4A63
:10E1D0001160142148435C494418104600784007F8
:10E1E000400F11460860019961810221E181211DE2
:10E1F00021610021A181012121722771FF200002EC
:10E2000038400112617126800120A070FFF716FFCF
:10E210000020FEBD38B504460D46002C01D0002D6F
:10E2200001D10E2038BD012168468170544901801A
:10E23000544804600020C043524909680880002007
:10E240005049096848804F49096888804D492868C5
:10E25000096888606849684601F08DFAE2E710B500
:10E2600002461388654CA3420CD001234370938867
:10E270004380CB8BC3808B8B83800B4620338360A2
:10E280000223037010BD70B505460C46002D01D069
:10E29000002C00D170BD2088372815D004DC102850
:10E2A00007D035281FD114E0382808D050281AD1BB
:10E2B00014E0607B022801D1A088288014E0214668
:10E2C0002846FFF71DFF0FE021462846FFF7FCFE1A
:10E2D0000AE021462846FFF7FDFE05E021462846D4
:10E2E000FFF7BDFF00BF00BF00BF00BFD2E710B502
:10E2F0000446002C01D10E2010BD61882088012227
:10E30000FFF757FFF8E770B504460E4800680D495F
:10E310000968491C0B4A1160142148430A494518F1
:10E32000104600784007400F11460860A088A8807A
:10E33000208828800020A870FFF780FE002070BD94
:10E340005C28002058280020F82D00205B42415313
:10E350005F435D3A20534420526561642F577269D0
:10E360007465204150492072657475726E73205334
:10E370007563636573732E2E0D0A000084420200DC
:10E380000F18000054280020192A00005B42415356
:10E390005F435D3A204261747465727920536572FF
:10E3A0007669636520646973636F7665726564205E
:10E3B000617420706565722E0D0A00005B42415346
:10E3C0005F435D3A204261747465727920536572CF
:10E3D0007669636520646973636F76657279206618
:10E3E00061696C75726520617420706565722E209C
:10E3F0000D0A0000E042020025E10100FFFF0000DD
:10E400008A88428270470022D24342827047F8B520
:10E4100004460E46207D002820D0B51D298860893D
:10E4200081421AD1288B022817D12068002814D0E5
:10E4300000BF00BFA97EEA7E120211430846C10751
:10E44000C90F002902D00020009001E001200090B7
:10E45000694620462268904700BF00BFF8BDF8B566
:10E4600005460E4614462F882088102804D011280F
:10E470000AD0502815D10FE0607B012803D1214636
:10E480003046FFF7BDFF0DE0A088B84203D121461A
:10E490003046FFF7B8FF05E021463046FFF7B7FFEB
:10E4A00000E000BF00BFF8BDF0B591B004460D46D6
:10E4B000207D002819D00020099000BF08A800790D
:10E4C00001090901491C08A801710079F02188435C
:10E4D000103008A9087100BF697B08A841718079D4
:10E4E00006218843801C08A988711C210AA805F010
:10E4F00010FB08A8007A02218843811C08A8017239
:10E50000007A08218843411808A80172007A042182
:10E510008843011D08A80172007A10218843217DDB
:10E52000002901D0012100E0002109011022114041
:10E53000084308A9087200200B900D900E90207DD2
:10E54000002801D009A800E000200F9000201090C2
:10E5500000BF0121684681737249818100BF00209C
:10E560000290A97B68460172E97B4172807A06219C
:10E570008843811C68468172807A0821884301465D
:10E5800068468172807A102188430146684681720C
:10E59000807A4108490068468172297B01911421E3
:10E5A00004A805F0B6FA03A8049002A8059001217A
:10E5B00068460183002141830121818301A80890DD
:10E5C000A088A31D04AA0AA9A2DF0646002E02D035
:10E5D000304611B0F0BDA86800284DD000BF012121
:10E5E000684681735049818100BF00200290287CD9
:10E5F0006946087200BF6846407A01090901684609
:10E600004172407AF02188436946487200BF6846EB
:10E61000807A06218843811C68468172807A0821AD
:10E620008843014668468172807A102188430146FA
:10E6300068468172807A4108490068468172A968FB
:10E6400005F0A0F90746142104A805F062FA03A812
:10E65000049002A805906846078300214183018B3E
:10E6600081830890E08822460E3204A9A3DF064683
:10E67000002E03D03046ACE70020E0810020A8E760
:10E68000F8B504460D46286820600020C04360822B
:10E6900028792075FF20207400BF01216846817011
:10E6A0002249018000BF221D69460120A0DF0646E5
:10E6B000002E01D03046F8BD29462046FFF7F4FE73
:10E6C000F9E733B585B004460025207C6946097E0C
:10E6D000884224D0012104916846007E2074608A1B
:10E6E0001349884219D0207D002816D000200090C0
:10E6F00001900290039001210491E1886846018015
:10E70000012181700021818004A8029006A8039055
:10E71000608A6946A6DF054600E0082500BF284656
:10E7200007B030BD192A0000082900000F180000AA
:10E73000FFFF000070B504460D4600BF002D01D05C
:10E74000012000E000200646002E05D100BFE6A211
:10E750003321FDF72FFF00BF00BF00BF002C01D009
:10E76000012000E000200646002E05D100BFDEA2F9
:10E770003421FDF71FFF00BF00BF287820702988D3
:10E780002879FF231B02194000200206080A1043C3
:10E79000607028791B022968194000200204080CC7
:10E7A0001043A07029791B02286818400021090233
:10E7B000000E0843E07028792071287A6071190CE6
:10E7C000A8680840000AA0710902A8680840000C67
:10E7D000E07170BDF8B505460E46002400BF002E5E
:10E7E00001D0012000E000200746002F05D100BF26
:10E7F000BDA24B21FDF7DEFE00BF00BF00BF002D14
:10E8000001D0012000E000200746002F05D100BF05
:10E81000B5A24C21FDF7CEFE00BF00BF32782046E6
:10E82000611CCCB22A542919708800F054F90019DF
:10E83000C4B22919B08800F04EF90019C4B22919E0
:10E84000F08800F048F90019C4B200BF072C01D1CC
:10E85000012000E000200746002F05D100BFA2A242
:10E860005421FDF7A7FE00BF00BFF8BDF0B58FB083
:10E8700007460D4614461E4600BF002D01D001205C
:10E8800000E0002000900098002805D100BF96A26B
:10E890006D21FDF78FFE00BF00BF00BF002C01DD22
:10E8A000012000E0002000900098002805D100BF62
:10E8B0008DA26E21FDF77EFE00BF00BF1C2107A8C0
:10E8C00005F027F96946087F02218843801C6946C4
:10E8D0000877002008900A900B900C900D9000BFD4
:10E8E000012108A881766846078700BF00200190B3
:10E8F00031786846017171784171807906218843C9
:10E90000811C6846817180790821884301466846E8
:10E910008171807910218843014668468171807930
:10E920004108490068468171142102A805F0F1F8F8
:10E930000EA8029001A8039068460482002141823B
:10E940008482069502AA07A972480088149BA2DF58
:10E950000FB0F0BD7FB5044600BF0121684681734A
:10E960006D49818100BF6B4A03A90120A0DF0546E4
:10E97000002D02D0284604B070BD208800280DDD8F
:10E9800066480090228823463C3365486168FFF75B
:10E990006DFF0546002D01D02846ECE720890028B0
:10E9A0000EDD60480090228923463C335C48401FBE
:10E9B000E168FFF75BFF0546002D01D02846DAE746
:10E9C000208A00280EDD58480090228A23463C33D6
:10E9D0005348001F6169FFF749FF0546002D01D02C
:10E9E0002846C8E7208B00280EDD50480090228B77
:10E9F00023463C334A48801EE169FFF737FF05464E
:10EA0000002D01D02846B6E7208C00280EDD4848AE
:10EA10000090228C23463C334148C01E616AFFF7B8
:10EA200025FF0546002D01D02846A4E7208D0028AB
:10EA30000EDD40480090228D23463C333848401E6E
:10EA4000E16AFFF713FF0546002D01D0284692E743
:10EA5000206B002813D001A8216BFFF76BFE36480E
:10EA600023463C33082201A900902D48801FFFF760
:10EA7000FDFE0546002D01D028467CE700BF606BF7
:10EA800000280FD02D480090606B027923463C335C
:10EA900001682348401CFFF7E9FE0546002D01D020
:10EAA000284668E7A06B002813D001A8A16BFFF7E8
:10EAB00091FE234823463C33072201A900901848C1
:10EAC0002730FFF7D3FE0546002D01D0284652E738
:10EAD00000BF00204FE702460A70FF2000021040EE
:10EAE00000124870022070472E2E5C536F757263BF
:10EAF000655F733133305C626C655C626C655F735B
:10EB0000657276696365735C626C655F6469732EB8
:10EB100063000000602800200A180000622800201E
:10EB2000292A00006A280020722800207A28002064
:10EB3000822800208A280020922800209A2800207D
:10EB4000A22800208A88028470470022D2430284CF
:10EB5000704738B505460C46208B022817D1286827
:10EB6000002814D000BF00BFA17EE27E1202114334
:10EB70000846C107C90F002902D00020009001E01B
:10EB800001200090694628462A68904700BF38BD9A
:10EB900070B504460D46AE1D3188A089814203D16F
:10EBA00031462046FFF7D5FF70BD0FB5028CF94BFB
:10EBB0009A4211D00022009201920292039203899C
:10EBC0006A46138001239370002393800A46103213
:10EBD0000292921C039200BF0FBDF8B505460E4687
:10EBE00014462F882088102806D011280CD03828E9
:10EBF00017D050281AD10FE0607B012803D121469D
:10EC00003046FFF79FFF12E0A088B84203D12146AB
:10EC10003046FFF79AFF0AE021463046FFF7B8FF7B
:10EC200005E021463046FFF7C0FF00BF00BF00BF30
:10EC3000F8BDF7B582B004461746002001900125C3
:10EC40006079002803D00421019808430190222014
:10EC5000005D002803D00221019808430190039829
:10EC6000FF280ADD012101980843019079190398D2
:10EC700000F0A8F94019C5B205E00398C2B22846D1
:10EC8000691CCDB23A544C20005B002803DD1021F2
:10EC9000019808430190002618E0A81C14280BD9FD
:10ECA0004C20005B801B4200700023462433C118B7
:10ECB000184604F007FF0DE079197200234624334B
:10ECC000985A00F07FF94019C5B2761C4C20005BC1
:10ECD000B042E2DC00BF4C20005B801B81B24C20C4
:10ECE000015301983870284605B0F0BD30B595B095
:10ECF00005460C4600200D9000BF08A8007D0109C4
:10ED00000901491C08A80175007DF02188431030D5
:10ED100008A9087500BF217B08A84175807D0621E0
:10ED20008843811C08A881751C210EA804F0F1FEFF
:10ED300008A8007E10218843103008A9087600201A
:10ED40000F90119012900DA813900020149000BF06
:10ED50000121684681779049818300BF0020069099
:10ED6000617B68460176A17B4176807E06218843DF
:10ED7000811C68468176807E08218843014668466A
:10ED80008176807E10218843014668468176807EA8
:10ED900041084900491C68468176142108A804F0FE
:10EDA000B8FE07A8089006A8099001AA00212846E5
:10EDB000FFF73FFF01466846018500214185142188
:10EDC000818501A80C90E8882B46083308AA0EA973
:10EDD000A2DF15B030BD30B58FB005460C461C2102
:10EDE00008A804F096FE08A9087802218843801C30
:10EDF00008A90870002009900B900C900D900E90BF
:10EE000000BF0121684681726349491C018100BF2E
:10EE100000200190E17B68460171217C417180797D
:10EE200006218843811C68468171807908218843C6
:10EE30000146684681718079102188430146684601
:10EE4000817180794108490068468171142103A8C5
:10EE500004F05FFE02A8039001A804900121684617
:10EE600081820021C18201210183A0680790E88886
:10EE70002B46103303AA08A9A2DF0FB030BDF8B5A6
:10EE800004460E4630682060307960710020C0432F
:10EE900020840021222001554C20015300BF012174
:10EEA000684681703D49018000BFA21D694601206E
:10EEB000A0DF0546002D01D02846F8BD314620468A
:10EEC000FFF714FF0546002D01D02846F5E7B0688E
:10EED000002808D031462046FFF77DFF0546002D6B
:10EEE00001D02846E9E70020E7E7F0B58BB00446FB
:10EEF0000F46208C2749884222D006AA3946204650
:10EF0000FFF797FE064605960020019002900390B9
:10EF1000049021896846818001218171002101814D
:10EF200005A8039006A80490208C01A9A6DF054639
:10EF3000002D04D16846808AB04200D00C2500E044
:10EF4000082528460BB0F0BD70B504460D464C2090
:10EF5000005B14280AD12622A118881E04F0B2FDF5
:10EF60004C20005B401E81B24C2001534C20015BC1
:10EF7000005B401C82B24C200253490020462430E2
:10EF8000455270BD01464C20405A142808D101203A
:10EF900070470000FFFF0000372A00000D18000036
:10EFA0000020F5E70246108C0B4B984202D15171BC
:10EFB000002070470820FCE72222115470470246C7
:10EFC0000020704702460A70FF2000021040001225
:10EFD0004870022070470000FFFF000008B50120C4
:10EFE0000B230A2209210090082000F069F808BDCF
:10EFF00070B504460D46E0B200F047F8204670BDFB
:10F0000070B505460E4608A004F022FE002404E078
:10F01000295D06A004F01CFE641CB442F8D302A0D3
:10F0200004F016FE70BD00000D0A00003078253097
:10F030003258200000BF424880680128FBD10020E0
:10F040003F4988603F488069C0B2704770B5044648
:10F050000D4601260AE02046641E002804DB7D20C0
:10F06000C000FDF7F7F901E0002603E034488068AE
:10F070000128F0D100BF002C05DB0020304988605A
:10F08000304880692870304670BD2E49C86100BF85
:10F090002B49C9690129FBD10021294AD161704757
:10F0A00030B50346002528466D1C1C5C05E0204653
:10F0B000FFF7EBFF28466D1C1C5C002CF7D130BD20
:10F0C000F8B507460C4615461E46204600F025F8C2
:10F0D0000021304600F02AF81A48C46046610698BC
:10F0E00000280DD0384600F018F80021284600F01E
:10F0F0001DF8144805618760012012494031C8623B
:10F100001148104948620420086001200F498860B6
:10F11000086000200A498860F8BD03210522120713
:10F1200007231B02D2188300D150704710B58A0004
:10F1300005231B07072424021B1984001A5110BD44
:10F14000002100400025004000509D0000200040AC
:10F150000246002112E0C800F94BC018807893786D
:10F1600098420AD1C800F64B185A1388984204D125
:10F17000C800F34BC01840687047491CF14800684C
:10F180008142E8D30020F7E70246EE4800680228F3
:10F1900015D2EC480068C000E94BC0181388038002
:10F1A00053884380E7480068C000E54BC0184160C1
:10F1B000E4480068401CE34B1860002070470420BE
:10F1C000FCE710B5002409E038226243DE4BD0187A
:10F1D00038226243D218516B8847641CD9480068B2
:10F1E0008442F1D30020D949086010BDF8B5044627
:10F1F0000D466020005D2E21484307193846FFF771
:10F20000A7FF0646002E2ED0D048006802282AD23A
:10F210005C20015BCD48006838225043CA4A801800
:10F2200041800121C948006838225043C64A115420
:10F23000C648006838214843114640184560C34815
:10F24000006838214843114640184663BF480068AB
:10F25000401CBE49086008460068BA4909688842EF
:10F2600001D1FFF7AEFFF8BDF8B504460D466020AA
:10F27000005D2E21484307193846FFF769FF06460F
:10F28000002E3CD0B1480068022838D25C20015BD7
:10F29000AE48006838225043AB4A80184180002DA8
:10F2A00012D00021A948006838225043A64A1154C0
:10F2B000A649096838225143A34A8918081D2E22FD
:10F2C000394604F0FFFB06E00221A048006838221E
:10F2D00050439D4A11549D480068382148439A493B
:10F2E0004018466399480068401C984908600846E1
:10F2F000006894490968884201D1FFF762FFF8BDB0
:10F3000070B5044692480068401C91490860084660
:10F3100000688C49096888422ED200215F2001557F
:10F320006020005D401CC1B260200155005D2E21AF
:10F33000484305196020005DC000814940180188DC
:10F34000298040886880002028715C20025B298821
:10F35000804804F07DFC5C21085B2A46012190DF97
:10F360000646002E07D00021612001553146204677
:10F37000FFF73CFF70BD02E000216120015500BF96
:10F38000F8E710B502460B896020805C2E246043AC
:10F390008018808D834201DA012010BD0020FCE737
:10F3A00070B50446002A16D10D896020005D2E2616
:10F3B00070430019808D854201D1002070BD0889FD
:10F3C000401C18806020005D2E2568430019808D48
:10F3D00058800120F2E70889401CD588A84201D155
:10F3E0000020EBE70889401C1880D088401E588018
:10F3F0000120E3E738B504466020005D2E21484334
:10F4000005195F20005D002811D05F22125D521E99
:10F41000D1B26022125D2E235A4315190C224A43A1
:10F42000AB1DD0180289521C6B461A8002E0688D11
:10F4300069460880A88D694648805C21085B69465A
:10F4400092DF38BDF0B585B004460F46002001902C
:10F450006020005D2E21484305195F20005D0C21CE
:10F460004843A91D401802905F20005D401C297987
:10F47000884207D103AB002220460299FFF790FF94
:10F48000019029E05F20065D21E02879401EB0420E
:10F4900002D10020009005E0701C0C214843A91DFA
:10F4A0004018009003AB2046009A0299FFF778FFBE
:10F4B000002802D0012001900CE0009802905F200B
:10F4C000005D401CC1B25F200155701CC6B2287996
:10F4D000B042DADC00BF00BF0198002804D101204F
:10F4E0003870002005B0F0BD002038705C21085B4A
:10F4F00003A993DFF6E7F8B504460D4668880028AF
:10F500002AD16020005D2E21484307192E46083677
:10F5100071883980B0887880F2887A853189B98598
:10F520002046FFF767FF00900098002806D00021D2
:10F530006120015520460099FFF758FE13E00000B6
:10F54000982E0020B8280020A82E0020B4280020E3
:10F55000BC2800208443020000212046FFF784FEDF
:10F560002046FFF7CDFEF8BDF3B587B00546002075
:10F5700006906020405D2E21484344190898408839
:10F58000002857D1089808300590207904900598F4
:10F5900000780390039904984018032804DC21792B
:10F5A00003980818207101E003202071049E0020B8
:10F5B000029017E00A22029842430598801C111815
:10F5C0000C207043A21D83180A22184604F07AFA10
:10F5D00000210C207043A21D80184181761C0298E6
:10F5E000401C02902079B042E4D8701E0C214843A0
:10F5F000A11D4018019028460199FFF7C2FE00287E
:10F6000002D02079032802D10120069011E021794F
:10F610005F2041552846FFF7EDFE0746002F08D032
:10F6200000216120415539462846FFF7DFFD09B02A
:10F63000F0BD01E0012006900698002823D00021AB
:10F640005F20415505A92846FFF7FCFE0746002F1D
:10F6500007D000216120415539462846FFF7C6FDF5
:10F66000E5E76846007D00280CD05C20425B2188DD
:10F67000924804F0EDFA01212846FFF7F5FD2846EF
:10F68000FFF73EFE00BF00BFD1E7FEB504460D46C2
:10F690006020005D2E21484307192E4608365F2062
:10F6A000005D0C214843B91D40180290688800286D
:10F6B00016D100BF0FE006214143B21C89184988CA
:10F6C0007F4A914206D106214143B21C525A029907
:10F6D0004A8103E0401C31888142ECD800BF00BF62
:10F6E000002001905F20005D401C3979884202D1E2
:10F6F0000120019016E05F20005D401CC1B25F2038
:10F70000015501A92046FFF79DFE009000980028B2
:10F7100007D000216120015520460099FFF766FDC2
:10F72000FEBD00BF6846007900280CD05C20025B5B
:10F730003988644804F08CFA01212046FFF794FDD3
:10F740002046FFF7DDFD00BFEAE700205E490860C4
:10F7500001205E49087000205D4908605D4908602D
:10F760007047002058490860584908705849086097
:10F7700058490860704770B504460D46002C01D00A
:10F78000002D01D10E2070BD50480078002801D115
:10F790000820F8E74C480068022801D10620F2E76B
:10F7A00029462046FFF7F0FCEDE7F8B504460F4682
:10F7B000002C01D10E20F8BD44480078002801D16A
:10F7C0000820F8E740480068002801D10820F2E747
:10F7D0006120005D002801D01120ECE700203C49A9
:10F7E00008603C4908600021602001555C200753F7
:10F7F0006020005D2E21484305196020005DC00097
:10F800003549401801882980408868805C20025B67
:10F810002988324804F01CFA5C21085B2A46012141
:10F8200090DF0646002E01D03046C4E7012161205A
:10F8300001550020BFE7F8B506460D461446378847
:10F84000002D01D0002C00D1F8BD20480078002800
:10F8500000D1F9E7208830281DD004DC102807D01B
:10F86000112827D10BE032281AD0332822D11CE0EE
:10F87000607B022802D1A1885C2041531BE0A08854
:10F88000B84207D06221284604F043F90021C94359
:10F890005C2041530FE0211D2846FFF72CFE0AE0B3
:10F8A000211D2846FFF760FE05E0211D2846FFF7D1
:10F8B000ECFE00E000BF00BF00BFC5E72843020028
:10F8C00002290000D4430200B8280020C0280020EC
:10F8D000BC280020B4280020982E00208443020079
:10F8E000002314214143FC4A5354142141438918F5
:10F8F0004B8001231421414389188B60002314217C
:10F9000041438918CB601421414389180B611421AC
:10F91000414389188B80704710B50020EF4908805B
:10F92000EF490870EC49091F08704870887000247E
:10F9300003E02046FFF7D4FF641C0A2CF9D310BD66
:10F94000FFB583B004460F4615460326E448007809
:10F9500000280BD1002D06D10698002803D10220E3
:10F96000DF49087002E00120DD490870DC480078BA
:10F97000030004F091F907FD05314E84BAD7FD006C
:10F98000D8484069401C002808D00122120712699B
:10F9900091B2D44A506904F06BF802E001200007EC
:10F9A0004069401E01210907096989B24843029054
:10F9B0000120000700690004820C01200007006993
:10F9C00080B278430146029821DF0646002E02D11C
:10F9D0000220C3490870D0E0384620DF0646002EDA
:10F9E00016D1002D11D1069800280AD120780428BC
:10F9F00003D10720BA4908700AE00520B849087009
:10FA000006E00420B649087002E00320B4490870FB
:10FA1000B3E0B4484069401C002808D00122120716
:10FA2000126991B2AF4A506904F022F802E0012055
:10FA300000074069401E01210907096989B248434E
:10FA4000012109070290096989B2794308462A46CB
:10FA5000029921DF0646002E10D1069800280AD10F
:10FA60002078042803D106209D49087006E005206F
:10FA70009B49087002E00420994908707DE099488C
:10FA80004069401C002808D001221207126991B277
:10FA9000944A506903F0ECFF02E00120000740693E
:10FAA000401E01210907096989B24843A90040188D
:10FAB00061884018012109070290096989B27943D8
:10FAC000AA00891862888818069A029921DF0646DA
:10FAD000002E09D12078042803D10620804908701F
:10FAE00002E005207E49087047E001200007006918
:10FAF00080B27843AB00C018029060888208216908
:10FB0000029821DF0646002E0BD1002D06D1069863
:10FB1000002803D107207249087002E006207049CE
:10FB200008702AE06F484069401C002808D0012274
:10FB30001207126991B26B4A506903F099FF02E013
:10FB4000012000074069401E01210907096989B2A7
:10FB50004843019001200007006981B2019803F039
:10FB600087FF029020DF0646002E04D1072000E028
:10FB700002E05B49087000E000BF00BF304607B0FC
:10FB8000F0BDF0B585B00F275348001F0078142151
:10FB9000484351494418E5682078022804D00428D5
:10FBA00023D005286FD16FE0206903904B4800886F
:10FBB00086026088801B0490039880190390A088B7
:10FBC00080194519012189020498884206D20498B7
:10FBD00082082846039921DF074605E0FF2201320B
:10FBE0002846039921DF074681E0A06800013E49CD
:10FBF000401800890490A0680001401840890390D3
:10FC0000A06800014018406802900298A84205D1FF
:10FC10000399049848436188884202D0A06802286A
:10FC20000DD101200007006981B2284603F020FFB2
:10FC30002A4909884618304620DF074622E001207D
:10FC40000007006981B2284603F012FF0646012032
:10FC50000007006980B27043281A800801900120D3
:10FC60000007006980B2711C484361884919401A35
:10FC70008008009031462046009B019AFFF760FE05
:10FC8000074600BF33E031E001200007006981B280
:10FC9000284603F0EDFE0646A08841190120000722
:10FCA000006980B27043081A80080490A088401947
:10FCB0006188421801200007006980B2711C484326
:10FCC000801A8008039031462046039B049AFFF770
:10FCD00037FE07460BE000001C2F0020CC28002038
:10FCE000CF28002000100010E42F002000BF00BF2C
:10FCF000002F02D10120F9498870384605B0F0BDC7
:10FD0000FFB581B0064617460024F44840780A281B
:10FD100037D0F2480078F14949784018C4B20A2C2B
:10FD200002DB20460A38C4B214206043EB49091DA7
:10FD30000E5414206043401807611420604341189A
:10FD4000029805C8CA60886014206043E34A121D07
:10FD50008018049941801420604380180A9981809A
:10FD60000025101F8078002805D1FFF70AFF0546FF
:10FD7000112D00D10025D9484078401CD749487042
:10FD800000E00425284605B0F0BD10B50024D34896
:10FD90004078002807DDFFF7F4FE0446002C02D06F
:10FDA000112C00D10024204610BDF8B50446CB48E4
:10FDB000007814214843C949091D0E5C081F0078CA
:10FDC00014214843C549091D401880680001C449F1
:10FDD0000D58C248007814214843C049091D4018F5
:10FDE0004088091F0090097814225143BB4A121D14
:10FDF00089180B69111F097814225143B74A121D43
:10FE000089180846083022463146A847F8BDFEB595
:10FE100005460026B148807801287DD10020AF49F1
:10FE20008870B0480078082811D1022D03D1002035
:10FE3000AC49087002E00020AB490870FFF7A5FF4D
:10FE40000646002E02D03046FFF7AFFFFEBD022D62
:10FE500002D0032D79D174E0A048007814214843E2
:10FE60009E49091D4418A1480088401C9F490880EC
:10FE70002078022807D108460088800261888842DD
:10FE800001DB012000E0002007462078052805D18D
:10FE900094480078072801D1012000E0002002905A
:10FEA0002078042805D18F480078072801D1012047
:10FEB00000E000200190207804280BD18B480088B6
:10FEC00080026188884205DB86480078002801D1DD
:10FED000012000E0002000900298002807D101983E
:10FEE000002804D10098002801D1002F1FD0002045
:10FEF0007C4908703046FFF758FF78490878FFF7CB
:10FF0000EFFC00207949088074484078401E73490E
:10FF100048700846007800E01AE0401C0870084667
:10FF200000780A2803DB084600780A380870FFF7D3
:10FF30002CFF0646002E02D03046FFF736FF05E0C4
:10FF400003E00D20FFF731FF00E000BF00BF00BF5E
:10FF500000BF7BE770B5FFF7DFFC00206449088035
:10FF600064484069401C002808D001221207126929
:10FF700091B2604A506903F07BFD02E00120000766
:10FF80004069801E01210907096989B248435A491D
:10FF9000086000205549088000BF0DE000210201E3
:10FFA0004F4B99500201D21811810201D218918150
:10FFB0000201D2185181401C0028EFD00820494985
:10FFC00008704C484069401C002808D001221207E4
:10FFD000126991B2474A506903F04AFD02E00120DC
:10FFE00000074069401E01210907096989B2484399
:10FFF000064601200007006981B2304603F038FD53
:020000040002F8
:10000000054620DF0446002C04D1012033498870C6
:1000100035490870204670BDF8B504460D4600BF4E
:1000200031480078002801D10820F8BD00BF002C1D
:1000300001D10E20F9E7002D01D10E20F5E720684F
:10004000002801D10E20F0E7A088012109070969E5
:1000500089B2884202DCA088102801DA0720E4E790
:10006000E088002830D023484069401C002808D090
:1000700001221207126991B21E4A506903F0F8FC7E
:1000800002E0012000074069401E012109070969BB
:1000900089B24843E188A2885143174A12688918F7
:1000A000884211D3E088A1884843012109070969E2
:1000B00089B288420ADDA18801221207126990B232
:1000C00003F0ECFC002901D00720AEE7207980077F
:1000D000800F002812D00720A7E70000182F00206B
:1000E000E42F0020CF280020CE280020CC2800209C
:1000F000C428002000100010C8280020FE480088F6
:10010000012801D1042090E7FB4800882860FB48C3
:1001100000686860F84909880901F94A891868681F
:100120004860F5490988090120685050A088F249C3
:100130000988090189180881E088EF4909880901BF
:10014000891848810027A688E1884E4300BF781CA3
:1001500087B201200007006980B2B04205D20120B9
:100160000007006980B2361A00E00026012000076F
:10017000006980B2E14909684018E049086001203F
:100180000007006980B2B042E1D9DB480088000175
:10019000DB4940188781D8480088401CD649088030
:1001A000002042E73CB5034600BFD648007800284F
:1001B00001D108203CBD00BF002B01D10E20F9E782
:1001C000002A01D10E20F5E71868002805D118682B
:1001D0000001CB4C2058002801D10720EAE75C68D9
:1001E000186801940090019C18680001C44D4019E2
:1001F0000089484320180190009800012C460019FE
:100200004089009C2401641924896043009C2401D6
:10021000641964680019019CA04201D80720C9E74D
:10022000019C0098546010600020C3E7F8B50446B4
:100230000E4615461F4600BFB2480078002801D17F
:100240000820F8BD00BF002E01D10E20F9E7002CD8
:1002500001D10E20F5E72068002805D120680001B3
:10026000A7490858002801D10720EAE720680001C3
:10027000A3494018408921680901A14A89180989C0
:100280004843216809018918496840186168884213
:1002900001D80720D5E7002D06D020680001984935
:1002A00040180089A84201DA0720CAE7E819216846
:1002B0000901934A89180989884201DD0720C0E7AE
:1002C000304600F05CF9002804D0384600F057F9B9
:1002D000002801D11020B4E7606800F050F9002830
:1002E00001D11020ADE72B4632462146022000976F
:1002F000FFF706FDA5E7F8B504460E4615461F466E
:1003000000BF80480078002801D10820F8BD00BF58
:10031000002E01D10E20F9E7002C01D10E20F5E7C7
:100320002068002805D12068000175490858002878
:1003300001D10720EAE7206800017149401840898F
:10034000216809016E4A8918098948432168090111
:100350008918496840186168884201D80720D5E7A4
:10036000002D06D020680001654940180089A84288
:1003700001DA0720CAE7E81921680901604A8918EB
:100380000989884201DD0720C0E7304600F0F7F810
:10039000002804D0384600F0F2F8002801D11020DF
:1003A000B4E7606800F0EBF8002801D11020ADE759
:1003B0002B463246214605200097FFF7A1FCA5E712
:1003C000FFB581B00C4615461E4600BF4D4800786B
:1003D000002802D1082005B0F0BD00BF002C01D1DB
:1003E0000E20F8E70198002801D10E20F3E72068DD
:1003F000002805D12068000141490858002801D192
:100400000720E8E7206800013D494018408921683D
:1004100009013B4A8918098948432168090189185B
:10042000496840186168884201D80720D3E7002D49
:1004300006D020680001324940180089A84201DA3C
:100440000720C8E7A819216809012D4A89180989D8
:10045000884201DD0720BEE7019800F090F80028EF
:1004600004D0304600F08BF8002801D11020B2E70C
:10047000606800F084F8002801D11020ABE76068C4
:1004800081192A46019803F01DFB009520680001A0
:100490001B490F58002203212046019BB84700202A
:1004A00099E7F8B504460D4600BF164800780028C5
:1004B00001D10820F8BD00BF002C01D10E20F9E7C2
:1004C0002068002805D1206800010D49085800283F
:1004D00001D10720EEE72068000109494018408952
:1004E00021680901064A89180989484321680901D8
:1004F00089184968401807E0C4280020C82800204F
:10050000E42F0020CE2800206168884201D807200F
:10051000D0E7606800F033F8002801D11020C9E767
:1005200023681B011A4FDB1962685B68D01A2268C6
:1005300012013B46D218118903F09AFA002901D022
:100540000720B7E700202B460246214600900420F2
:10055000FFF7D6FB06463046ACE7014600BF0D4824
:100560000078002801D10820704700BF002901D180
:100570000E20F9E70848407808600020F4E70146BB
:100580008807800F002801D1012070470020FCE778
:10059000E42F0020CE280020182F002010B504469C
:1005A00001210C206043FB4A80188172891E0C20B7
:1005B000604380180181FF210C2060438018C172C4
:1005C0000C2161438818072103F0A3FA10BD10B570
:1005D000044618216143F04A891808461130062163
:1005E00003F097FA18206043EB494018002101609E
:1005F00041608160C160FF2118206043E64A801895
:100600000174182060438018C175204601F0E6FB94
:100610000020A100E14A505010BD70B503460C46C1
:100620000820002115E00C254D43DA4EAD19AD7AB6
:100630002540002D0CD0DA4DAB4205D00C254D43A2
:10064000AD192D899D4202D11160002003E00520E3
:10065000491C0029E7D000BF70BD7CB50546A9B292
:100660006A46D048FFF79EFD0446002C09D15C2164
:100670006846FFF716FF0446002C02D12846FFF714
:10068000A6FF20467CBDF8B505460E46052700248A
:100690000FE018216143C04A89180846103007222C
:1006A000294603F048FA002802D13460002702E00E
:1006B000641C072CEDD300BF3846F8BD10B50446C6
:1006C000002010BDFEB504460E46A1786A46B54826
:1006D000FFF768FD0546002D49D160780C2148439D
:1006E000AC494018807A40210840402801D0022EB1
:1006F00001D1AD4F04E0012E01D1AC4F00E0AC4F71
:10070000A07818225043A44A811800231822684672
:10071000B8470546002D1AD1022E18D060780C215A
:1007200048439C494018807A4021884361780C22D4
:100730005143984A8918887260781C2250439D4A18
:10074000811818231C226846B847054600BF022EB0
:100750000DD020780C21484397494018807A8000BA
:1007600096490A58214668469047054600BFFEBD97
:10077000FEB507460C460620029061780C225143D4
:10078000844A8918088902AA6946AADF0646002E0B
:1007900045D161780C225143894A8918081D694660
:1007A0000A8903F0C8F9002813D160780C21484366
:1007B00078494018807A0221084002282FD06078BA
:1007C0000C2148437E49401800210160416081604E
:1007D00025E060780C21484379490858002801D069
:1007E000714D00E0714D6946098960780C225043D3
:1007F000734A115061780C225143714A8918081DBF
:1008000069460A8903F05EF960780C2250436C4A0D
:10081000811834230C223846A847064600BF002022
:10082000FEBD02460020704770B505460C46617853
:100830000C225143624A881834230C222946FFF7C0
:10084000BFFD0646002E0DD160780C2148435C495F
:100850000858401C002805D1002160780C22504324
:10086000574A1150304670BD024600207047F8B517
:1008700004460026002760780C2148435049085858
:1008800000281FD060780C21484342494018807AE4
:1008900080210840802815D160780C2148433D49CB
:1008A0004018807A4021084040280BD060780C2105
:1008B000484343494018061D60780C21484340498D
:1008C000085A87B261780C225143324A8918088944
:1008D0003A463146A9DF0546002D00D0394D28465D
:1008E000F8BD01460020704770B5044622780C23FD
:1008F0005A43314BD218111D62780C235A43254BB1
:10090000D21810897EDF0546002D29D120780C21D0
:10091000484329494018407A0121084321780C2294
:100920005143254A8918487260780C214843194977
:100930004018807A0421084361780C225143154AFB
:100940008918887260780C21484311464018807AD3
:100950002021884361780C2251430E4A89188872FD
:10096000284670BD0146002902D116483338704729
:10097000FF20087048708870C8700020F7E7FFB546
:100980008FB01D4600BF0C48006800281CD113B072
:10099000F0BD0000E030002010300020F42F0020D7
:1009A000FFFF0000D0280020F70202002D02020005
:1009B000BD060200B8300020EC3000206841020083
:1009C000D43000204180000000BF18985C2801D975
:1009D00013B0F0BD012006900BA8FFF7C3FF064639
:1009E00000BF3746002F06D000BFF0A2FE493846B0
:1009F000FBF7E0FD00BF00BF002108A801730174F0
:100A00000A9518980990002712E0B9B207AAF7488A
:100A1000FFF7C8FB0646002E09D1082207A90F9848
:100A200003F089F8002802D108A98F7302E07F1C27
:100A3000072FEAD300BF08A8807BFF2878D0109842
:100A400004280AD118985C2803D1202008A908742A
:100A500099E0402008A9087495E0E549681A182132
:100A600003F006F80446072C1DD209A80D90119832
:100A7000002810D108A9887B01218140DD4A126835
:100A80001140002901D0012100E00021002902D1FC
:100A90000020069077E008A9887B01F09FF92020CC
:100AA00008A908746FE0D449681A1C2102F0E0FF1D
:100AB0000446002C1AD109A80D90202108A8017421
:100AC000447300200390CD4904911C206043CA491F
:100AD0004018009008A8807B18214843C44940185A
:100AE000019068460A90182009904CE0C449681AA1
:100AF0000C2102F0BDFF0446002C1AD1302108A8B9
:100B0000017444730121C1730C206043BD49401836
:100B1000807A02210840022835D008A8407B0C21A9
:100B20004843B749401800210160416081602AE0D4
:100B30004DE000200690402008A90874B248854284
:100B400004D104201090012006901CE008A8807BAE
:100B50008000AE490858A84215D10120069009A886
:100B60000D9000200CE008A98A7B0C214143A54B85
:100B7000C918C97A8A4202D108AA507302E0401CFF
:100B80000028F0D000BF0698012820D11098042832
:100B900006D108A9087C0321084308A908740FE0BE
:100BA0001098032806D108A9087C0121084308A948
:100BB000087405E008A9087C0221084308A9087404
:100BC00009A80D900CA90BA8119A01F04AF900BFD1
:100BD000FEE67FB50646002E02D18D4804B070BDFA
:100BE00000240FE000BF00210C206043894A11500F
:100BF0000C206043801841720C2060438018817281
:100C000000BF641C002CEDD0002403E02046FFF759
:100C1000C5FC641C002CF9D07948002101604160BA
:100C20008160002403E02046FFF7D1FC641C072C00
:100C3000F9D35C21684681810721C1817648029001
:100C40006A4902A8FFF7E8F90546002D30D10120D6
:100C5000724908703078002821D100241CE0A1B22C
:100C60006A466248FFF79EFA0546002D0FD118210B
:100C700061435F4A8818002318226946FFF7A0FBEA
:100C80000546002D07D000206449087006E00020CA
:100C90006249087002E0641C072CE0D308E06A4651
:100CA0009089D289504381B25048FFF7FAFB05463C
:100CB000284693E770B505460C4600BF57480078B4
:100CC000002802D15248801F70BD00BF002D01D105
:100CD0004F48F9E7002C01D14D48F5E7206800287E
:100CE00001D14B48F0E74B48006800280FD1494933
:100CF000206808600522611D4648001D02F0E2FEE2
:100D000020794449887200202870002601E0404E76
:100D10000A3E3046D8E7F8B5044600BF3F480078A1
:100D2000002802D13A48801FF8BD00BF002C01D135
:100D30003748F9E700BF2078012806DA20780C212F
:100D4000484334490858002802D13148801FEBE756
:100D500000BF00BF6078012807DA60780C214843A3
:100D600028494018807A012802D12948801CDBE7F5
:100D700000BF274DAD1F60780C2148432149401822
:100D8000807A02210840022860D1A078FF2807D18C
:100D900060780C2148431B494018C07AFF2856D080
:100DA00060780C2148431749401839E02E2E5C53D7
:100DB0006F757263655F733133305C626C655C6460
:100DC00065766963655F6D616E616765725C6465B8
:100DD000766963655F6D616E616765725F63656E9D
:100DE0007472616C2E6300005B050000D028002047
:100DF00010300020D8280020B8300020F830002023
:100E0000D4300020E030002098410200F42F002070
:100E10000E800000EC3000207F090200DC2800205A
:100E2000C07AA07063781C267343FE4E9A196378CB
:100E30001C267343FB4E9B191946123163780C260E
:100E40007343F94E9B19188981DF054641E06078AC
:100E50000C225043F44A8118684600F0C7FF05464B
:100E6000002D35D16846017860780C225043EE4A57
:100E70008018C17268460078A07020780C21484321
:100E8000EA494018407AC007C00F00281CD060789B
:100E90000C21484311464018807A2021084361788C
:100EA0000C225143E04A8918887220780C2148436B
:100EB000DE494018407A0221084321780C22514330
:100EC000DA4A8918487203E02046FFF70DFD05460F
:100ED00000BF284628E7024600BFD5480078002812
:100EE00001D1D448704700BF002A02D1D148801DEB
:100EF000F8E7002902D1CF48801DF3E700BF107842
:100F0000012806DA10780C235843C84B18580028DB
:100F100001D1C848E6E700BF00BF5078012807DAD2
:100F200050780C235843C04BC018807A012802D156
:100F3000C0480830D6E700BF50780C235843BA4B5E
:100F4000C018807A04231840002809D150780C2357
:100F50005843B54BC018807A20231840002802D08F
:100F6000012008700EE050780C235843AE4BC01897
:100F7000807A80231840002802D00220087001E007
:100F8000002008700020ADE7F8B5044600BFA8486F
:100F90000078002801D1A748F8BD00BF002C02D17D
:100FA000A448801DF8E7002902D1A248801DF3E77C
:100FB0000868002802D19F48801DEDE78868002856
:100FC00002D19C48801DE7E700BF2078012806DA9F
:100FD00020780C256843954D2858002801D1954864
:100FE000DAE700BF002200230020009000BF45E0A8
:100FF0000025009500BF12E00C266E438A4FF619BB
:10100000F67A86420AD10C266E43F619B67A022782
:101010003E40022E02D10126009602E06D1C002DFA
:10102000EAD000BF009D002D27D10D7B9D420FD936
:1010300018254543804EAD19ED7DED07ED0F002DD0
:1010400006D118254543AD199F008E68F5515B1CEC
:101050000D79954211D918254543774EAD19ED7D8F
:1010600002263540002D08D118254543724EAD1992
:10107000103597000E68F551521C401C0728B7D355
:101080000A710B73002087E702466A488830704770
:1010900070B5044600BF66480078002801D1654855
:1010A00070BD00BF002C02D16248801DF8E700BF70
:1010B0002078012806DA20780C2148435B4908583B
:1010C000002801D15B48EBE700BF00BFA0780728EC
:1010D00007DAA0781821484357494018C07DFF28F7
:1010E00002D154480830DBE700BFA078FFF7B5FA1B
:1010F00005462846D4E770B5044600BF4C48007842
:10110000002801D14B4870BD00BF002C02D14948D6
:10111000801DF8E700BF2078012806DA20780C212E
:10112000484342490858002801D14248EBE700BF34
:10113000002600250BE0182068433F494018C07D79
:10114000FF2803D02846FFF788FA06466D1C072DB6
:10115000F1D33046D7E7FEB504460D4600BF34480C
:101160000078002801D13348FEBD00BF002C02D119
:101170003048801DF8E7002D02D12E48801DF3E78E
:1011800000BF2078012806DA20780C21484327493F
:101190000858002801D12748E6E700BF00BF607863
:1011A000012807DA60780C2148431F494018807AEB
:1011B000012802D11F480830D6E700BF00BFA07841
:1011C000072807DAA078182148431B494018C07D3A
:1011D000FF2802D117480830C6E700BFA8680028DA
:1011E00012D0686800280FD0686806280CD22878CA
:1011F000012809D163780C277B43104FDB19181D98
:101200006A68A96802F05EFCA1786A460C48FEF79D
:10121000C9FF0646287880000A490A5821466846D0
:10122000904711E0B8300020E0300020EC30002082
:10123000DC2800200880000010300020D43000207E
:10124000D028002068410200064630468CE77CB575
:1012500004460D4600BFFD480078002801D1FC4837
:101260007CBD00BF002C02D1F948801DF8E7002D9D
:1012700002D1F748801DF3E700BF2078012806DA85
:1012800020780C214843F3490858002801D1F04840
:10129000E6E700BF00BFA078072807DAA07818218A
:1012A0004843ED494018C07DFF2802D1E848083086
:1012B000D6E700BF60780C214843E8494018807A9F
:1012C00002210840022802D0E1488930C8E7A86816
:1012D000002812D1686806280FD2287801280CD17E
:1012E00060780C214843DE494018001DA8606078F2
:1012F0000C214843DA4908586860A1786A46D94801
:10130000FEF750FF064628788000D7490A58214644
:101310006846904706463046A2E7014600BFCB48E4
:101320000078002801D1CA48704700BF002902D1C7
:10133000C748801DF8E700BF0878012806DA08785A
:101340000C225043C34A1058002801D1C048EBE793
:1013500000BF00BF8878072807DA88781822504332
:10136000BD4A8018C07DFF2802D1B9480830DBE7AC
:1013700000BFB7488830D7E7FEB504460D4600BF2A
:10138000B2480078002801D1B148FEBD00BF002C52
:1013900002D1AF48801DF8E7002D02D1AC48801D76
:1013A000F3E76868002802D1A948801DEDE700BF77
:1013B0002078012806DA20780C214843A5490858EE
:1013C000002801D1A248E0E700BF00BFA0780728AD
:1013D00007DAA078182148439F494018C07DFF28AC
:1013E00002D19B480830D0E700BF2868042801D20A
:1013F0000720CAE79D4FA1786A469A48FEF7D2FEB9
:101400000646002E23D144230422694602A8FEF793
:10141000D7FF0646002E04D10298401C002800D0B9
:10142000934F4423042229466846B8470646002EB7
:101430000DD14823142268466968FEF75CFF064612
:10144000002E04D1A17889008A4A6868505030463D
:101450009BE7FEB504460D4600BF7C480078002897
:1014600001D17B48FEBD00BF002C02D17848801D11
:10147000F8E7002D02D17648801DF3E700BF207801
:10148000012806DA20780C214843724908580028C0
:1014900001D16F48E6E700BF00BFA078072807DA50
:1014A000A078182148436C494018C07DFF2802D11C
:1014B00067480830D6E700BF6868002805D1A078E3
:1014C00080006C490858686004E0A1788900694A86
:1014D00068685050A1786A466248FEF763FE064687
:1014E000002E1AD144230422694602A8FEF768FFA1
:1014F0000646002E0FD10298401C00280BD048232E
:10150000142269466868FEF75BFF0646002E04D188
:101510000298286001E04E4E38363046A2E73EB5CC
:10152000044600BF49480078002801D148483EBD24
:1015300000BF002C02D14648801DF8E700BF20788C
:10154000012806DA20780C2148434249085800282F
:1015500001D13F48EBE700BF00BFA078072807DABA
:10156000A078182148433C494018C07DFF2802D18B
:1015700037480830DBE700BFA1786A463948FEF7F4
:1015800011FE0546002D17D144230422694602A806
:10159000FEF716FF05460298401C00280CD0442395
:1015A000042235496846FEF7A6FE0546002D03D104
:1015B000A17889002F4A50502846B8E7024600BF5C
:1015C00022480078002801D12148704700BF002937
:1015D00002D11F48801DF8E7002A02D11C48801D57
:1015E000F3E700BF1078012806DA10780C2358437F
:1015F000184B1858002801D11548E6E700BF1078AD
:1016000008700020E1E770B504460D4600BF0F48A2
:101610000078002801D10E4870BD00BF002C02D117
:101620000B48801DF8E7002D02D10948801DF3E723
:1016300000BF2078012806DA20780C2148430549AC
:10164000085800281AD10248E6E70000DC280020EC
:1016500008800000EC30002010300020E030002036
:10166000D4300020D0280020784102002D02020052
:10167000F7020200F42F00209841020000BF00BFD3
:10168000A078072807DAA07818214843FB494018BA
:10169000C07DFF2801D1FA48BEE700BF6078FF286F
:1016A0001CD12878022819D0A17818225143F34A76
:1016B0008918084610300722294602F003FAA0785C
:1016C00001218140EF4A12681143EE4A116000BFC8
:1016D00002212046FEF7F6FF002601E0E84E093E13
:1016E000304699E770B504460E4600BFE6480078DC
:1016F000002802D1E248083870BD00BF002C02D19A
:10170000DF48801EF8E7002E02D1DD48801EF3E797
:1017100000BF2078012806DA20780C214843DB49F5
:101720000858002802D1D6480838E5E700BFD44D54
:101730000B3DA078FF2817D16078FF282AD0607869
:101740000C214843D2494018807A022108400228DF
:1017500020D160780C225043CD4A811807223046B0
:1017600002F0B0F9002515E0A07818214843C349DC
:101770004018C07D0221084000280BD1A078182213
:101780005043BE4A8018014610310722304602F00D
:1017900099F900252846AFE770B58AB005460C4692
:1017A00000BFB9480078002803D1B54808380AB00E
:1017B00070BD00BF002D02D1B148801EF7E7002C9C
:1017C00002D1AF48801EF2E700BF2878012806DA70
:1017D00028780C214843AD490858002802D1A84870
:1017E0000838E4E700BF00BFA878072807DAA87820
:1017F00018214843A1494018C07DFF2801D1A048C5
:10180000D5E700BF00BF0020E060A24921610021B0
:101810006161A87818214843984940186060002009
:10182000A060A97801AA9C48FEF7BCFC0646002EE1
:1018300017D118231C2201A903A8FEF7C1FD0646F3
:10184000002E0ED1E0609349216100216161A878EA
:10185000182148438949401860600020A06003A80F
:1018600020603046A3E7F3B591B00C460026002077
:101870000E9011980088089000BF834800780028D7
:1018800001D113B0F0BD00BF00BF80480068002840
:1018900000D1F6E700BF0DA8FFF764F8054600BFCA
:1018A0002F46002F06D000BF7C4A7D493846FAF704
:1018B00081FE00BF00BF002009900025201D0B9075
:1018C0002A2168460186FF2108A88175002101753B
:1018D000002010902088102813D0A08810AA022180
:1018E000FEF79BFE0546002D0BD10C2110984843B6
:1018F00067494018C17A08A881751098C1B208A834
:101900004175208817287DD006DC10280BD01128BF
:1019100079D0132878D1F4E0182876D01C2875D017
:101920005228F7D103E2607B02287BD110AF3A4600
:1019300001215C48FEF771FE01900198002807D153
:1019400002210C2238685043514A8018817201E00C
:101950000420019001980546002D63D10126112134
:1019600008A801721098C1B208A84175A1880C227C
:1019700010985043464A8018018102210C22109889
:101980005043434A801881720C2210995143404AB7
:1019900088180722A11D02F095F80FA9A01DFEF7D7
:1019A00072FE0546002D3DD10F98C1B20C22109851
:1019B0005043374A8018C1720C2110984843114691
:1019C0004018807A082108430C2210995143304A6C
:1019D0008918887208A90F9888750F9881B26A468D
:1019E0002D48FEF7DFFB0546002D1AD11C22109969
:1019F00051432D4A881818231C226946FEF7E0FC43
:101A0000224805E0B0E00EE09FE12BE198E109E01B
:101A1000807A800025490A580DA9684690470546F6
:101A200000BF00BF92E1A1880898814268D00C21D4
:101A30001098484316494018807A022188430C22A6
:101A400010995143124A891888720C211098484302
:101A500011464018807A08210840082828D10C2116
:101A60001098484311464018807A80210840802809
:101A700029D100210DA8FEF725FE24E0103000201A
:101A800010800000D8280020DC280020EC30002046
:101A9000E0300020F8300020D0280020AC0D0200FB
:101AA0008A090000FFFF0000B830002078410200E2
:101AB00008A8807DFF2806D008A9887DFEF787FD4D
:101AC000FF2008A988750C2110984843FC4940184C
:101AD000807A04210840042807D101200E90F9489B
:101AE000407A40084000F749487210210C221098B3
:101AF0005043F34A801881720126122008A9087207
:101B000024E1002600200590EF490691002107916D
:101B10001C2110984843ED49401802900C21109860
:101B20004843E7494018C07A18214843E84940181B
:101B3000039000200490A08802AB002211467FDFB2
:101B40000546002D01D009950DE00C211098484361
:101B5000DB494018807A042108430C221099514334
:101B6000D74A89188872F1E0D648407A4008400088
:101B7000D44948720C2110984843D1494018807AC2
:101B8000042188430C2210995143CD4A8918887248
:101B9000142008A90872012601200E90A0790028BF
:101BA00002D0A07909905CE0E0794007C00F0028DE
:101BB00057D008A8807DFF2853D00C2110984843A7
:101BC000BF494018807A082108430C2210995143DC
:101BD000BB4A89188872A07A8007C00F00280DD0F0
:101BE000182110984843BA494018C07D410849005F
:101BF000182210985043B64A8018C1750C211098CD
:101C00004843AF494018C07AFF282AD00C211098C9
:101C10004843AB49085C02281FD00C23109A5A4352
:101C20000B46D11808AA927D18235A43A84BD21804
:101C300010461030072201F045FF08A8807D1821CA
:101C40004843A3494018C07D0221884308A9897DE3
:101C5000182251439E4A8918C87501210DA8FEF724
:101C600031FD73E0A079000901283FD1A079000778
:101C7000000F01283AD10C21109848439049401890
:101C8000807A08210840082830D10C22109951434D
:101C9000904A8918081D062101F03BFF162008A96B
:101CA000087201200E900C21109848438449401876
:101CB000807A202108430C2210995143804A8918C8
:101CC00088720C211098484311464018807A4021B0
:101CD00008430C2210995143794A8918887279482F
:101CE000407A02210843774948721CE00C21109881
:101CF000484373494018807A802108430C22109988
:101D000051436F4A89188872152008A908726D48D6
:101D1000807A8000704A11580DA888470546002D2A
:101D200001D06E4809900020099001260EE0654818
:101D3000807A8000684A11580DA88847099005E00C
:101D4000132008A90872012600E000BF00BF002E82
:101D500016D00AA90DA8099A00F083F808A8007AFD
:101D600012280DD100BF0C21109848435449401847
:101D7000807A012802D01098FEF710FC00BF00BF47
:101D80000E98002828D04F48407A022108400228A7
:101D900022D106AA20215248FEF73FFC0546002D1D
:101DA00013D10021684601770698C1B26846417791
:101DB0000C210698484342494018C17A6846817709
:101DC00007A8FEF791FD054605E03E48407A02214E
:101DD00088433C49487200BF00BF52E50121814061
:101DE000404A12688A433F490A607047F8B5054681
:101DF0000E463A4FBF1C00242EE0182060433449A1
:101E00004018C07DFF2826D13078022814D0182031
:101E100060434018C07D02218843182161432C4A49
